{
  "contractName": "Evaluator",
  "abi": [
    {
      "inputs": [
        {
          "internalType": "contract ERC20TD",
          "name": "_TDERC20",
          "type": "address"
        }
      ],
      "stateMutability": "nonpayable",
      "type": "constructor"
    },
    {
      "anonymous": false,
      "inputs": [
        {
          "indexed": false,
          "internalType": "address",
          "name": "erc20Address",
          "type": "address"
        }
      ],
      "name": "constructedCorrectly",
      "type": "event"
    },
    {
      "anonymous": false,
      "inputs": [
        {
          "indexed": false,
          "internalType": "string",
          "name": "name",
          "type": "string"
        },
        {
          "indexed": false,
          "internalType": "uint256",
          "name": "legs",
          "type": "uint256"
        },
        {
          "indexed": false,
          "internalType": "uint256",
          "name": "sex",
          "type": "uint256"
        },
        {
          "indexed": false,
          "internalType": "bool",
          "name": "wings",
          "type": "bool"
        }
      ],
      "name": "newRandomAnimalAttributes",
      "type": "event"
    },
    {
      "stateMutability": "payable",
      "type": "fallback"
    },
    {
      "inputs": [
        {
          "internalType": "address",
          "name": "",
          "type": "address"
        }
      ],
      "name": "assignedRank",
      "outputs": [
        {
          "internalType": "uint256",
          "name": "",
          "type": "uint256"
        }
      ],
      "stateMutability": "view",
      "type": "function"
    },
    {
      "inputs": [
        {
          "internalType": "address",
          "name": "",
          "type": "address"
        },
        {
          "internalType": "uint256",
          "name": "",
          "type": "uint256"
        }
      ],
      "name": "exerciceProgression",
      "outputs": [
        {
          "internalType": "bool",
          "name": "",
          "type": "bool"
        }
      ],
      "stateMutability": "view",
      "type": "function"
    },
    {
      "inputs": [
        {
          "internalType": "address",
          "name": "",
          "type": "address"
        }
      ],
      "name": "hasBeenPaired",
      "outputs": [
        {
          "internalType": "bool",
          "name": "",
          "type": "bool"
        }
      ],
      "stateMutability": "view",
      "type": "function"
    },
    {
      "inputs": [],
      "name": "nextValueStoreRank",
      "outputs": [
        {
          "internalType": "uint256",
          "name": "",
          "type": "uint256"
        }
      ],
      "stateMutability": "view",
      "type": "function"
    },
    {
      "inputs": [
        {
          "internalType": "address",
          "name": "",
          "type": "address"
        }
      ],
      "name": "studentExerciceSolution",
      "outputs": [
        {
          "internalType": "contract IExerciceSolution",
          "name": "",
          "type": "address"
        }
      ],
      "stateMutability": "view",
      "type": "function"
    },
    {
      "inputs": [
        {
          "internalType": "address",
          "name": "",
          "type": "address"
        }
      ],
      "name": "teachers",
      "outputs": [
        {
          "internalType": "bool",
          "name": "",
          "type": "bool"
        }
      ],
      "stateMutability": "view",
      "type": "function"
    },
    {
      "stateMutability": "payable",
      "type": "receive"
    },
    {
      "inputs": [],
      "name": "ex1_testERC721",
      "outputs": [],
      "stateMutability": "nonpayable",
      "type": "function"
    },
    {
      "inputs": [],
      "name": "ex2a_getAnimalToCreateAttributes",
      "outputs": [],
      "stateMutability": "nonpayable",
      "type": "function"
    },
    {
      "inputs": [
        {
          "internalType": "uint256",
          "name": "animalNumber",
          "type": "uint256"
        }
      ],
      "name": "ex2b_testDeclaredAnimal",
      "outputs": [],
      "stateMutability": "nonpayable",
      "type": "function"
    },
    {
      "inputs": [],
      "name": "ex3_testRegisterBreeder",
      "outputs": [],
      "stateMutability": "nonpayable",
      "type": "function"
    },
    {
      "inputs": [],
      "name": "ex4_testDeclareAnimal",
      "outputs": [],
      "stateMutability": "nonpayable",
      "type": "function"
    },
    {
      "inputs": [],
      "name": "ex5_declareDeadAnimal",
      "outputs": [],
      "stateMutability": "nonpayable",
      "type": "function"
    },
    {
      "inputs": [],
      "name": "ex6a_auctionAnimal_offer",
      "outputs": [],
      "stateMutability": "nonpayable",
      "type": "function"
    },
    {
      "inputs": [
        {
          "internalType": "uint256",
          "name": "animalForSale",
          "type": "uint256"
        }
      ],
      "name": "ex6b_auctionAnimal_buy",
      "outputs": [],
      "stateMutability": "nonpayable",
      "type": "function"
    },
    {
      "inputs": [
        {
          "internalType": "contract IExerciceSolution",
          "name": "studentExercice",
          "type": "address"
        }
      ],
      "name": "submitExercice",
      "outputs": [],
      "stateMutability": "nonpayable",
      "type": "function"
    },
    {
      "inputs": [
        {
          "internalType": "bytes32",
          "name": "_bytes32",
          "type": "bytes32"
        }
      ],
      "name": "bytes32ToString",
      "outputs": [
        {
          "internalType": "string",
          "name": "",
          "type": "string"
        }
      ],
      "stateMutability": "pure",
      "type": "function"
    },
    {
      "inputs": [
        {
          "internalType": "address",
          "name": "studentAddres",
          "type": "address"
        }
      ],
      "name": "readName",
      "outputs": [
        {
          "internalType": "string",
          "name": "",
          "type": "string"
        }
      ],
      "stateMutability": "view",
      "type": "function"
    },
    {
      "inputs": [
        {
          "internalType": "address",
          "name": "studentAddres",
          "type": "address"
        }
      ],
      "name": "readLegs",
      "outputs": [
        {
          "internalType": "uint256",
          "name": "",
          "type": "uint256"
        }
      ],
      "stateMutability": "view",
      "type": "function"
    },
    {
      "inputs": [
        {
          "internalType": "address",
          "name": "studentAddres",
          "type": "address"
        }
      ],
      "name": "readSex",
      "outputs": [
        {
          "internalType": "uint256",
          "name": "",
          "type": "uint256"
        }
      ],
      "stateMutability": "view",
      "type": "function"
    },
    {
      "inputs": [
        {
          "internalType": "address",
          "name": "studentAddres",
          "type": "address"
        }
      ],
      "name": "readWings",
      "outputs": [
        {
          "internalType": "bool",
          "name": "",
          "type": "bool"
        }
      ],
      "stateMutability": "view",
      "type": "function"
    },
    {
      "inputs": [
        {
          "internalType": "string[20]",
          "name": "_randomNames",
          "type": "string[20]"
        },
        {
          "internalType": "uint256[20]",
          "name": "_randomLegs",
          "type": "uint256[20]"
        },
        {
          "internalType": "uint256[20]",
          "name": "_randomSex",
          "type": "uint256[20]"
        },
        {
          "internalType": "bool[20]",
          "name": "_randomWings",
          "type": "bool[20]"
        }
      ],
      "name": "setRandomValuesStore",
      "outputs": [],
      "stateMutability": "nonpayable",
      "type": "function"
    }
  ],
  "bytecode": "0x60806040523480156200001157600080fd5b506040516200615e3803806200615e8339818101604052620000379190810190620000f1565b80600160006101000a81548173ffffffffffffffffffffffffffffffffffffffff021916908373ffffffffffffffffffffffffffffffffffffffff1602179055507f2915b3b4e0613c6b63dca39a375dd8c9f1de68d9e208a0713b7624260e2d0812600160009054906101000a900473ffffffffffffffffffffffffffffffffffffffff16604051620000cb91906200012e565b60405180910390a150620001ad565b600081519050620000eb8162000193565b92915050565b6000602082840312156200010457600080fd5b60006200011484828501620000da565b91505092915050565b62000128816200014b565b82525050565b60006020820190506200014560008301846200011d565b92915050565b6000620001588262000173565b9050919050565b60006200016c826200014b565b9050919050565b600073ffffffffffffffffffffffffffffffffffffffff82169050919050565b6200019e816200015f565b8114620001aa57600080fd5b50565b615fa180620001bd6000396000f3fe60806040526004361061012e5760003560e01c806374db455e116100ab578063df67f59d1161006f578063df67f59d146103be578063e2a51e64146103fb578063e7b8ef2414610412578063e9847a751461043b578063f0a47f7814610478578063f4fdbb88146104b557610135565b806374db455e146102ff578063806df959146103165780639201de55146103535780639aa99dd614610390578063dede624c146103a757610135565b806339119dce116100f257806339119dce1461021a5780634466f62d14610245578063469d2a83146102825780634cb6ad03146102bf578063614933ba146102d657610135565b80630b9612541461013757806314555c7a146101745780632236d3531461019d5780632e64c500146101c65780633842083a1461020357610135565b3661013557005b005b34801561014357600080fd5b5061015e60048036036101599190810190614c18565b6104f2565b60405161016b919061584e565b60405180910390f35b34801561018057600080fd5b5061019b60048036036101969190810190614e1a565b610525565b005b3480156101a957600080fd5b506101c460048036036101bf9190810190614d76565b610a1e565b005b3480156101d257600080fd5b506101ed60048036036101e89190810190614c6a565b610d3a565b6040516101fa9190615833565b60405180910390f35b34801561020f57600080fd5b50610218610d69565b005b34801561022657600080fd5b5061022f61139a565b60405161023c9190615bf2565b60405180910390f35b34801561025157600080fd5b5061026c60048036036102679190810190614c18565b6113a0565b6040516102799190615bf2565b60405180910390f35b34801561028e57600080fd5b506102a960048036036102a49190810190614c18565b6113b8565b6040516102b69190615bf2565b60405180910390f35b3480156102cb57600080fd5b506102d461140f565b005b3480156102e257600080fd5b506102fd60048036036102f89190810190614ca6565b611e29565b005b34801561030b57600080fd5b50610314611fcd565b005b34801561032257600080fd5b5061033d60048036036103389190810190614c18565b6128fa565b60405161034a9190615884565b60405180910390f35b34801561035f57600080fd5b5061037a60048036036103759190810190614d4d565b6129e9565b6040516103879190615884565b60405180910390f35b34801561039c57600080fd5b506103a5612b46565b005b3480156103b357600080fd5b506103bc612bb2565b005b3480156103ca57600080fd5b506103e560048036036103e09190810190614c18565b61337e565b6040516103f29190615bf2565b60405180910390f35b34801561040757600080fd5b506104106133d5565b005b34801561041e57600080fd5b5061043960048036036104349190810190614e1a565b613cbb565b005b34801561044757600080fd5b50610462600480360361045d9190810190614c18565b614602565b60405161046f9190615833565b60405180910390f35b34801561048457600080fd5b5061049f600480360361049a9190810190614c18565b61466d565b6040516104ac9190615833565b60405180910390f35b3480156104c157600080fd5b506104dc60048036036104d79190810190614c18565b61468d565b6040516104e99190615833565b60405180910390f35b60036020528060005260406000206000915054906101000a900473ffffffffffffffffffffffffffffffffffffffff1681565b600260003373ffffffffffffffffffffffffffffffffffffffff1673ffffffffffffffffffffffffffffffffffffffff168152602001908152602001600020600080815260200190815260200160002060009054906101000a900460ff166105c2576040517f08c379a00000000000000000000000000000000000000000000000000000000081526004016105b990615b72565b60405180910390fd5b60606105cd336128fa565b905060006105da33614602565b905060006105e7336113b8565b905060006105f43361337e565b90503073ffffffffffffffffffffffffffffffffffffffff16600360003373ffffffffffffffffffffffffffffffffffffffff1673ffffffffffffffffffffffffffffffffffffffff16815260200190815260200160002060009054906101000a900473ffffffffffffffffffffffffffffffffffffffff1673ffffffffffffffffffffffffffffffffffffffff16636352211e876040518263ffffffff1660e01b81526004016106a59190615bf2565b60206040518083038186803b1580156106bd57600080fd5b505afa1580156106d1573d6000803e3d6000fd5b505050506040513d601f19601f820116820180604052506106f59190810190614c41565b73ffffffffffffffffffffffffffffffffffffffff161461074b576040517f08c379a000000000000000000000000000000000000000000000000000000000815260040161074290615b12565b60405180910390fd5b60606000806000600360003373ffffffffffffffffffffffffffffffffffffffff1673ffffffffffffffffffffffffffffffffffffffff16815260200190815260200160002060009054906101000a900473ffffffffffffffffffffffffffffffffffffffff1673ffffffffffffffffffffffffffffffffffffffff1663b75e07508a6040518263ffffffff1660e01b81526004016107ea9190615bf2565b60006040518083038186803b15801561080257600080fd5b505afa158015610816573d6000803e3d6000fd5b505050506040513d6000823e3d601f19601f8201168201806040525061083f9190810190614d9f565b935093509350935061085188856146ad565b80156108605750821515871515145b801561086b57508186145b801561087657508085145b6108b5576040517f08c379a00000000000000000000000000000000000000000000000000000000081526004016108ac90615ad2565b60405180910390fd5b600260003373ffffffffffffffffffffffffffffffffffffffff1673ffffffffffffffffffffffffffffffffffffffff16815260200190815260200160002060006002815260200190815260200160002060009054906101000a900460ff16610a13576001600260003373ffffffffffffffffffffffffffffffffffffffff1673ffffffffffffffffffffffffffffffffffffffff16815260200190815260200160002060006002815260200190815260200160002060006101000a81548160ff021916908315150217905550600160009054906101000a900473ffffffffffffffffffffffffffffffffffffffff1673ffffffffffffffffffffffffffffffffffffffff1663158a49883360026040518363ffffffff1660e01b81526004016109e092919061580a565b600060405180830381600087803b1580156109fa57600080fd5b505af1158015610a0e573d6000803e3d6000fd5b505050505b505050505050505050565b600460008273ffffffffffffffffffffffffffffffffffffffff1673ffffffffffffffffffffffffffffffffffffffff16815260200190815260200160002060009054906101000a900460ff1615610a7557600080fd5b80600360003373ffffffffffffffffffffffffffffffffffffffff1673ffffffffffffffffffffffffffffffffffffffff16815260200190815260200160002060006101000a81548173ffffffffffffffffffffffffffffffffffffffff021916908373ffffffffffffffffffffffffffffffffffffffff1602179055506001600460008373ffffffffffffffffffffffffffffffffffffffff1673ffffffffffffffffffffffffffffffffffffffff16815260200190815260200160002060006101000a81548160ff021916908315150217905550600260003373ffffffffffffffffffffffffffffffffffffffff1673ffffffffffffffffffffffffffffffffffffffff168152602001908152602001600020600080815260200190815260200160002060009054906101000a900460ff16610d37576001600260003373ffffffffffffffffffffffffffffffffffffffff1673ffffffffffffffffffffffffffffffffffffffff168152602001908152602001600020600080815260200190815260200160002060006101000a81548160ff021916908315150217905550600160009054906101000a900473ffffffffffffffffffffffffffffffffffffffff1673ffffffffffffffffffffffffffffffffffffffff1663158a49883360026040518363ffffffff1660e01b8152600401610c7492919061580a565b600060405180830381600087803b158015610c8e57600080fd5b505af1158015610ca2573d6000803e3d6000fd5b50505050600160009054906101000a900473ffffffffffffffffffffffffffffffffffffffff1673ffffffffffffffffffffffffffffffffffffffff1663158a49883360026040518363ffffffff1660e01b8152600401610d0492919061580a565b600060405180830381600087803b158015610d1e57600080fd5b505af1158015610d32573d6000803e3d6000fd5b505050505b50565b60026020528160005260406000206020528060005260406000206000915091509054906101000a900460ff1681565b600260003373ffffffffffffffffffffffffffffffffffffffff1673ffffffffffffffffffffffffffffffffffffffff168152602001908152602001600020600080815260200190815260200160002060009054906101000a900460ff16610e06576040517f08c379a0000000000000000000000000000000000000000000000000000000008152600401610dfd90615b72565b60405180910390fd5b600360003373ffffffffffffffffffffffffffffffffffffffff1673ffffffffffffffffffffffffffffffffffffffff16815260200190815260200160002060009054906101000a900473ffffffffffffffffffffffffffffffffffffffff1673ffffffffffffffffffffffffffffffffffffffff1663c7b9cb0b306040518263ffffffff1660e01b8152600401610e9e9190615766565b60206040518083038186803b158015610eb657600080fd5b505afa158015610eca573d6000803e3d6000fd5b505050506040513d601f19601f82011682018060405250610eee9190810190614d24565b15610f2e576040517f08c379a0000000000000000000000000000000000000000000000000000000008152600401610f2590615a72565b60405180910390fd5b6000600360003373ffffffffffffffffffffffffffffffffffffffff1673ffffffffffffffffffffffffffffffffffffffff16815260200190815260200160002060009054906101000a900473ffffffffffffffffffffffffffffffffffffffff1673ffffffffffffffffffffffffffffffffffffffff1663216586586040518163ffffffff1660e01b815260040160206040518083038186803b158015610fd557600080fd5b505afa158015610fe9573d6000803e3d6000fd5b505050506040513d601f19601f8201168201806040525061100d9190810190614e43565b905080471015611052576040517f08c379a000000000000000000000000000000000000000000000000000000000815260040161104990615b92565b60405180910390fd5b600360003373ffffffffffffffffffffffffffffffffffffffff1673ffffffffffffffffffffffffffffffffffffffff16815260200190815260200160002060009054906101000a900473ffffffffffffffffffffffffffffffffffffffff1673ffffffffffffffffffffffffffffffffffffffff166341d30bae826040518263ffffffff1660e01b81526004016000604051808303818588803b1580156110f957600080fd5b505af115801561110d573d6000803e3d6000fd5b5050505050600360003373ffffffffffffffffffffffffffffffffffffffff1673ffffffffffffffffffffffffffffffffffffffff16815260200190815260200160002060009054906101000a900473ffffffffffffffffffffffffffffffffffffffff1673ffffffffffffffffffffffffffffffffffffffff1663c7b9cb0b306040518263ffffffff1660e01b81526004016111aa9190615766565b60206040518083038186803b1580156111c257600080fd5b505afa1580156111d6573d6000803e3d6000fd5b505050506040513d601f19601f820116820180604052506111fa9190810190614d24565b611239576040517f08c379a000000000000000000000000000000000000000000000000000000000815260040161123090615bb2565b60405180910390fd5b600260003373ffffffffffffffffffffffffffffffffffffffff1673ffffffffffffffffffffffffffffffffffffffff16815260200190815260200160002060006003815260200190815260200160002060009054906101000a900460ff16611397576001600260003373ffffffffffffffffffffffffffffffffffffffff1673ffffffffffffffffffffffffffffffffffffffff16815260200190815260200160002060006003815260200190815260200160002060006101000a81548160ff021916908315150217905550600160009054906101000a900473ffffffffffffffffffffffffffffffffffffffff1673ffffffffffffffffffffffffffffffffffffffff1663158a49883360026040518363ffffffff1660e01b815260040161136492919061580a565b600060405180830381600087803b15801561137e57600080fd5b505af1158015611392573d6000803e3d6000fd5b505050505b50565b60435481565b60426020528060005260406000206000915090505481565b60006019604260008473ffffffffffffffffffffffffffffffffffffffff1673ffffffffffffffffffffffffffffffffffffffff168152602001908152602001600020546014811061140657fe5b01549050919050565b6000600360003373ffffffffffffffffffffffffffffffffffffffff1673ffffffffffffffffffffffffffffffffffffffff16815260200190815260200160002060009054906101000a900473ffffffffffffffffffffffffffffffffffffffff1673ffffffffffffffffffffffffffffffffffffffff166370a08231306040518263ffffffff1660e01b81526004016114a99190615766565b60206040518083038186803b1580156114c157600080fd5b505afa1580156114d5573d6000803e3d6000fd5b505050506040513d601f19601f820116820180604052506114f99190810190614e43565b90506000600360003373ffffffffffffffffffffffffffffffffffffffff1673ffffffffffffffffffffffffffffffffffffffff16815260200190815260200160002060009054906101000a900473ffffffffffffffffffffffffffffffffffffffff1673ffffffffffffffffffffffffffffffffffffffff16632f745c593060006040518363ffffffff1660e01b81526004016115989291906157b8565b60206040518083038186803b1580156115b057600080fd5b505afa1580156115c4573d6000803e3d6000fd5b505050506040513d601f19601f820116820180604052506115e89190810190614e43565b9050600360003373ffffffffffffffffffffffffffffffffffffffff1673ffffffffffffffffffffffffffffffffffffffff16815260200190815260200160002060009054906101000a900473ffffffffffffffffffffffffffffffffffffffff1673ffffffffffffffffffffffffffffffffffffffff1663ec897772826040518263ffffffff1660e01b81526004016116829190615bf2565b600060405180830381600087803b15801561169c57600080fd5b505af11580156116b0573d6000803e3d6000fd5b505050506000600360003373ffffffffffffffffffffffffffffffffffffffff1673ffffffffffffffffffffffffffffffffffffffff16815260200190815260200160002060009054906101000a900473ffffffffffffffffffffffffffffffffffffffff1673ffffffffffffffffffffffffffffffffffffffff166370a08231306040518263ffffffff1660e01b815260040161174e9190615766565b60206040518083038186803b15801561176657600080fd5b505afa15801561177a573d6000803e3d6000fd5b505050506040513d601f19601f8201168201806040525061179e9190810190614e43565b90506001818403146117e5576040517f08c379a00000000000000000000000000000000000000000000000000000000081526004016117dc90615a52565b60405180910390fd5b60606000806000600360003373ffffffffffffffffffffffffffffffffffffffff1673ffffffffffffffffffffffffffffffffffffffff16815260200190815260200160002060009054906101000a900473ffffffffffffffffffffffffffffffffffffffff1673ffffffffffffffffffffffffffffffffffffffff1663b75e0750876040518263ffffffff1660e01b81526004016118849190615bf2565b60006040518083038186803b15801561189c57600080fd5b505afa1580156118b0573d6000803e3d6000fd5b505050506040513d6000823e3d601f19601f820116820180604052506118d99190810190614d9f565b93509350935093506118fa60405180602001604052806000815250856146ad565b801561190a575082151560001515145b80156119165750816000145b80156119225750806000145b611961576040517f08c379a0000000000000000000000000000000000000000000000000000000008152600401611958906159b2565b60405180910390fd5b6000600360003373ffffffffffffffffffffffffffffffffffffffff1673ffffffffffffffffffffffffffffffffffffffff16815260200190815260200160002060009054906101000a900473ffffffffffffffffffffffffffffffffffffffff1673ffffffffffffffffffffffffffffffffffffffff16632f745c593360006040518363ffffffff1660e01b81526004016119fe9291906157b8565b60206040518083038186803b158015611a1657600080fd5b505afa158015611a2a573d6000803e3d6000fd5b505050506040513d601f19601f82011682018060405250611a4e9190810190614e43565b90503373ffffffffffffffffffffffffffffffffffffffff16600360003373ffffffffffffffffffffffffffffffffffffffff1673ffffffffffffffffffffffffffffffffffffffff16815260200190815260200160002060009054906101000a900473ffffffffffffffffffffffffffffffffffffffff1673ffffffffffffffffffffffffffffffffffffffff16636352211e836040518263ffffffff1660e01b8152600401611aff9190615bf2565b60206040518083038186803b158015611b1757600080fd5b505afa158015611b2b573d6000803e3d6000fd5b505050506040513d601f19601f82011682018060405250611b4f9190810190614c41565b73ffffffffffffffffffffffffffffffffffffffff1614611ba5576040517f08c379a0000000000000000000000000000000000000000000000000000000008152600401611b9c90615a32565b60405180910390fd5b6000809050600360003373ffffffffffffffffffffffffffffffffffffffff1673ffffffffffffffffffffffffffffffffffffffff16815260200190815260200160002060009054906101000a900473ffffffffffffffffffffffffffffffffffffffff1673ffffffffffffffffffffffffffffffffffffffff1663ec897772836040518263ffffffff1660e01b8152600401611c429190615bf2565b600060405180830381600087803b158015611c5c57600080fd5b505af1925050508015611c6d575060015b611c7a5760009050611c7f565b600190505b8015611cc0576040517f08c379a0000000000000000000000000000000000000000000000000000000008152600401611cb790615af2565b60405180910390fd5b600260003373ffffffffffffffffffffffffffffffffffffffff1673ffffffffffffffffffffffffffffffffffffffff16815260200190815260200160002060006005815260200190815260200160002060009054906101000a900460ff16611e1e576001600260003373ffffffffffffffffffffffffffffffffffffffff1673ffffffffffffffffffffffffffffffffffffffff16815260200190815260200160002060006005815260200190815260200160002060006101000a81548160ff021916908315150217905550600160009054906101000a900473ffffffffffffffffffffffffffffffffffffffff1673ffffffffffffffffffffffffffffffffffffffff1663158a49883360026040518363ffffffff1660e01b8152600401611deb92919061580a565b600060405180830381600087803b158015611e0557600080fd5b505af1158015611e19573d6000803e3d6000fd5b505050505b505050505050505050565b600160009054906101000a900473ffffffffffffffffffffffffffffffffffffffff1673ffffffffffffffffffffffffffffffffffffffff1663f0a47f78336040518263ffffffff1660e01b8152600401611e849190615766565b60206040518083038186803b158015611e9c57600080fd5b505afa158015611eb0573d6000803e3d6000fd5b505050506040513d601f19601f82011682018060405250611ed49190810190614d24565b611edd57600080fd5b836005906014611eee929190614706565b50826019906014611f00929190614759565b5081602d906014611f12929190614759565b50806041906014611f24929190614799565b50600060438190555060008090505b6014811015611fc6577ff2537ffa858a0d83d85a3f54f39afe79a3edb9141e3802a7bde0b3131b60b814858260148110611f6957fe5b6020020151858360148110611f7a57fe5b6020020151858460148110611f8b57fe5b6020020151858560148110611f9c57fe5b6020020151604051611fb194939291906158a6565b60405180910390a18080600101915050611f33565b5050505050565b600260003373ffffffffffffffffffffffffffffffffffffffff1673ffffffffffffffffffffffffffffffffffffffff168152602001908152602001600020600080815260200190815260200160002060009054906101000a900460ff1661206a576040517f08c379a000000000000000000000000000000000000000000000000000000000815260040161206190615b72565b60405180910390fd5b600360003373ffffffffffffffffffffffffffffffffffffffff1673ffffffffffffffffffffffffffffffffffffffff16815260200190815260200160002060009054906101000a900473ffffffffffffffffffffffffffffffffffffffff1673ffffffffffffffffffffffffffffffffffffffff1663c7b9cb0b306040518263ffffffff1660e01b81526004016121029190615766565b60206040518083038186803b15801561211a57600080fd5b505afa15801561212e573d6000803e3d6000fd5b505050506040513d601f19601f820116820180604052506121529190810190614d24565b612191576040517f08c379a000000000000000000000000000000000000000000000000000000000815260040161218890615bb2565b60405180910390fd5b6000600360003373ffffffffffffffffffffffffffffffffffffffff1673ffffffffffffffffffffffffffffffffffffffff16815260200190815260200160002060009054906101000a900473ffffffffffffffffffffffffffffffffffffffff1673ffffffffffffffffffffffffffffffffffffffff166370a08231306040518263ffffffff1660e01b815260040161222b9190615766565b60206040518083038186803b15801561224357600080fd5b505afa158015612257573d6000803e3d6000fd5b505050506040513d601f19601f8201168201806040525061227b9190810190614e43565b90506060612288336128fa565b9050600061229533614602565b905060006122a2336113b8565b905060006122af3361337e565b90506000600360003373ffffffffffffffffffffffffffffffffffffffff1673ffffffffffffffffffffffffffffffffffffffff16815260200190815260200160002060009054906101000a900473ffffffffffffffffffffffffffffffffffffffff1673ffffffffffffffffffffffffffffffffffffffff166332b0f376838587896040518563ffffffff1660e01b81526004016123519493929190615c36565b602060405180830381600087803b15801561236b57600080fd5b505af115801561237f573d6000803e3d6000fd5b505050506040513d601f19601f820116820180604052506123a39190810190614e43565b90503073ffffffffffffffffffffffffffffffffffffffff16600360003373ffffffffffffffffffffffffffffffffffffffff1673ffffffffffffffffffffffffffffffffffffffff16815260200190815260200160002060009054906101000a900473ffffffffffffffffffffffffffffffffffffffff1673ffffffffffffffffffffffffffffffffffffffff16636352211e836040518263ffffffff1660e01b81526004016124549190615bf2565b60206040518083038186803b15801561246c57600080fd5b505afa158015612480573d6000803e3d6000fd5b505050506040513d601f19601f820116820180604052506124a49190810190614c41565b73ffffffffffffffffffffffffffffffffffffffff16146124fa576040517f08c379a00000000000000000000000000000000000000000000000000000000081526004016124f190615b12565b60405180910390fd5b60018601600360003373ffffffffffffffffffffffffffffffffffffffff1673ffffffffffffffffffffffffffffffffffffffff16815260200190815260200160002060009054906101000a900473ffffffffffffffffffffffffffffffffffffffff1673ffffffffffffffffffffffffffffffffffffffff166370a08231306040518263ffffffff1660e01b81526004016125969190615766565b60206040518083038186803b1580156125ae57600080fd5b505afa1580156125c2573d6000803e3d6000fd5b505050506040513d601f19601f820116820180604052506125e69190810190614e43565b14612626576040517f08c379a000000000000000000000000000000000000000000000000000000000815260040161261d90615bd2565b60405180910390fd5b60606000806000600360003373ffffffffffffffffffffffffffffffffffffffff1673ffffffffffffffffffffffffffffffffffffffff16815260200190815260200160002060009054906101000a900473ffffffffffffffffffffffffffffffffffffffff1673ffffffffffffffffffffffffffffffffffffffff1663b75e0750866040518263ffffffff1660e01b81526004016126c59190615bf2565b60006040518083038186803b1580156126dd57600080fd5b505afa1580156126f1573d6000803e3d6000fd5b505050506040513d6000823e3d601f19601f8201168201806040525061271a9190810190614d9f565b935093509350935061272c89856146ad565b801561273b5750821515881515145b801561274657508187145b801561275157508086145b612790576040517f08c379a000000000000000000000000000000000000000000000000000000000815260040161278790615ad2565b60405180910390fd5b600260003373ffffffffffffffffffffffffffffffffffffffff1673ffffffffffffffffffffffffffffffffffffffff16815260200190815260200160002060006004815260200190815260200160002060009054906101000a900460ff166128ee576001600260003373ffffffffffffffffffffffffffffffffffffffff1673ffffffffffffffffffffffffffffffffffffffff16815260200190815260200160002060006004815260200190815260200160002060006101000a81548160ff021916908315150217905550600160009054906101000a900473ffffffffffffffffffffffffffffffffffffffff1673ffffffffffffffffffffffffffffffffffffffff1663158a49883360026040518363ffffffff1660e01b81526004016128bb92919061580a565b600060405180830381600087803b1580156128d557600080fd5b505af11580156128e9573d6000803e3d6000fd5b505050505b50505050505050505050565b60606005604260008473ffffffffffffffffffffffffffffffffffffffff1673ffffffffffffffffffffffffffffffffffffffff168152602001908152602001600020546014811061294857fe5b018054600181600116156101000203166002900480601f0160208091040260200160405190810160405280929190818152602001828054600181600116156101000203166002900480156129dd5780601f106129b2576101008083540402835291602001916129dd565b820191906000526020600020905b8154815290600101906020018083116129c057829003601f168201915b50505050509050919050565b606060008090505b60208160ff16108015612a3c5750600060f81b838260ff1660208110612a1357fe5b1a60f81b7effffffffffffffffffffffffffffffffffffffffffffffffffffffffffffff191614155b15612a4e5780806001019150506129f1565b60608160ff166040519080825280601f01601f191660200182016040528015612a865781602001600182028038833980820191505090505b509050600091505b60208260ff16108015612ad95750600060f81b848360ff1660208110612ab057fe5b1a60f81b7effffffffffffffffffffffffffffffffffffffffffffffffffffffffffffff191614155b15612b3c57838260ff1660208110612aed57fe5b1a60f81b818360ff1681518110612b0057fe5b60200101907effffffffffffffffffffffffffffffffffffffffffffffffffffffffffffff1916908160001a9053508180600101925050612a8e565b8092505050919050565b604354604260003373ffffffffffffffffffffffffffffffffffffffff1673ffffffffffffffffffffffffffffffffffffffff168152602001908152602001600020819055506001604360008282540192505081905550601460435410612bb05760006043819055505b565b600260003373ffffffffffffffffffffffffffffffffffffffff1673ffffffffffffffffffffffffffffffffffffffff168152602001908152602001600020600080815260200190815260200160002060009054906101000a900460ff16612c4f576040517f08c379a0000000000000000000000000000000000000000000000000000000008152600401612c4690615b72565b60405180910390fd5b6001600360003373ffffffffffffffffffffffffffffffffffffffff1673ffffffffffffffffffffffffffffffffffffffff16815260200190815260200160002060009054906101000a900473ffffffffffffffffffffffffffffffffffffffff1673ffffffffffffffffffffffffffffffffffffffff166370a08231306040518263ffffffff1660e01b8152600401612ce99190615766565b60206040518083038186803b158015612d0157600080fd5b505afa158015612d15573d6000803e3d6000fd5b505050506040513d601f19601f82011682018060405250612d399190810190614e43565b14612d79576040517f08c379a0000000000000000000000000000000000000000000000000000000008152600401612d7090615a92565b60405180910390fd5b3073ffffffffffffffffffffffffffffffffffffffff16600360003373ffffffffffffffffffffffffffffffffffffffff1673ffffffffffffffffffffffffffffffffffffffff16815260200190815260200160002060009054906101000a900473ffffffffffffffffffffffffffffffffffffffff1673ffffffffffffffffffffffffffffffffffffffff16636352211e60016040518263ffffffff1660e01b8152600401612e299190615869565b60206040518083038186803b158015612e4157600080fd5b505afa158015612e55573d6000803e3d6000fd5b505050506040513d601f19601f82011682018060405250612e799190810190614c41565b73ffffffffffffffffffffffffffffffffffffffff1614612ecf576040517f08c379a0000000000000000000000000000000000000000000000000000000008152600401612ec690615b52565b60405180910390fd5b600360003373ffffffffffffffffffffffffffffffffffffffff1673ffffffffffffffffffffffffffffffffffffffff16815260200190815260200160002060009054906101000a900473ffffffffffffffffffffffffffffffffffffffff1673ffffffffffffffffffffffffffffffffffffffff166342842e0e303360016040518463ffffffff1660e01b8152600401612f6c93929190615781565b600060405180830381600087803b158015612f8657600080fd5b505af1158015612f9a573d6000803e3d6000fd5b505050506000600360003373ffffffffffffffffffffffffffffffffffffffff1673ffffffffffffffffffffffffffffffffffffffff16815260200190815260200160002060009054906101000a900473ffffffffffffffffffffffffffffffffffffffff1673ffffffffffffffffffffffffffffffffffffffff166370a08231306040518263ffffffff1660e01b81526004016130389190615766565b60206040518083038186803b15801561305057600080fd5b505afa158015613064573d6000803e3d6000fd5b505050506040513d601f19601f820116820180604052506130889190810190614e43565b146130c8576040517f08c379a00000000000000000000000000000000000000000000000000000000081526004016130bf90615932565b60405180910390fd5b3373ffffffffffffffffffffffffffffffffffffffff16600360003373ffffffffffffffffffffffffffffffffffffffff1673ffffffffffffffffffffffffffffffffffffffff16815260200190815260200160002060009054906101000a900473ffffffffffffffffffffffffffffffffffffffff1673ffffffffffffffffffffffffffffffffffffffff16636352211e60016040518263ffffffff1660e01b81526004016131789190615869565b60206040518083038186803b15801561319057600080fd5b505afa1580156131a4573d6000803e3d6000fd5b505050506040513d601f19601f820116820180604052506131c89190810190614c41565b73ffffffffffffffffffffffffffffffffffffffff161461321e576040517f08c379a0000000000000000000000000000000000000000000000000000000008152600401613215906158f2565b60405180910390fd5b600260003373ffffffffffffffffffffffffffffffffffffffff1673ffffffffffffffffffffffffffffffffffffffff16815260200190815260200160002060006001815260200190815260200160002060009054906101000a900460ff1661337c576001600260003373ffffffffffffffffffffffffffffffffffffffff1673ffffffffffffffffffffffffffffffffffffffff16815260200190815260200160002060006001815260200190815260200160002060006101000a81548160ff021916908315150217905550600160009054906101000a900473ffffffffffffffffffffffffffffffffffffffff1673ffffffffffffffffffffffffffffffffffffffff1663158a49883360026040518363ffffffff1660e01b815260040161334992919061580a565b600060405180830381600087803b15801561336357600080fd5b505af1158015613377573d6000803e3d6000fd5b505050505b565b6000602d604260008473ffffffffffffffffffffffffffffffffffffffff1673ffffffffffffffffffffffffffffffffffffffff16815260200190815260200160002054601481106133cc57fe5b01549050919050565b6000600360003373ffffffffffffffffffffffffffffffffffffffff1673ffffffffffffffffffffffffffffffffffffffff16815260200190815260200160002060009054906101000a900473ffffffffffffffffffffffffffffffffffffffff1673ffffffffffffffffffffffffffffffffffffffff16632f745c593060006040518363ffffffff1660e01b81526004016134729291906157b8565b60206040518083038186803b15801561348a57600080fd5b505afa15801561349e573d6000803e3d6000fd5b505050506040513d601f19601f820116820180604052506134c29190810190614e43565b9050600360003373ffffffffffffffffffffffffffffffffffffffff1673ffffffffffffffffffffffffffffffffffffffff16815260200190815260200160002060009054906101000a900473ffffffffffffffffffffffffffffffffffffffff1673ffffffffffffffffffffffffffffffffffffffff1663c5f51f73826040518263ffffffff1660e01b815260040161355c9190615bf2565b60206040518083038186803b15801561357457600080fd5b505afa158015613588573d6000803e3d6000fd5b505050506040513d601f19601f820116820180604052506135ac9190810190614d24565b156135ec576040517f08c379a00000000000000000000000000000000000000000000000000000000081526004016135e3906159d2565b60405180910390fd5b6000600360003373ffffffffffffffffffffffffffffffffffffffff1673ffffffffffffffffffffffffffffffffffffffff16815260200190815260200160002060009054906101000a900473ffffffffffffffffffffffffffffffffffffffff1673ffffffffffffffffffffffffffffffffffffffff16633573dbd1836040518263ffffffff1660e01b81526004016136869190615bf2565b60206040518083038186803b15801561369e57600080fd5b505afa1580156136b2573d6000803e3d6000fd5b505050506040513d601f19601f820116820180604052506136d69190810190614e43565b14613716576040517f08c379a000000000000000000000000000000000000000000000000000000000815260040161370d90615992565b60405180910390fd5b6000809050600360003373ffffffffffffffffffffffffffffffffffffffff1673ffffffffffffffffffffffffffffffffffffffff16815260200190815260200160002060009054906101000a900473ffffffffffffffffffffffffffffffffffffffff1673ffffffffffffffffffffffffffffffffffffffff16631a14e94a836040518263ffffffff1660e01b81526004016137b39190615bf2565b600060405180830381600087803b1580156137cd57600080fd5b505af19250505080156137de575060015b6137eb57600090506137f0565b600190505b8015613831576040517f08c379a000000000000000000000000000000000000000000000000000000000815260040161382890615972565b60405180910390fd5b600360003373ffffffffffffffffffffffffffffffffffffffff1673ffffffffffffffffffffffffffffffffffffffff16815260200190815260200160002060009054906101000a900473ffffffffffffffffffffffffffffffffffffffff1673ffffffffffffffffffffffffffffffffffffffff166377386df383655af3107a40006040518363ffffffff1660e01b81526004016138d1929190615c0d565b600060405180830381600087803b1580156138eb57600080fd5b505af11580156138ff573d6000803e3d6000fd5b50505050600360003373ffffffffffffffffffffffffffffffffffffffff1673ffffffffffffffffffffffffffffffffffffffff16815260200190815260200160002060009054906101000a900473ffffffffffffffffffffffffffffffffffffffff1673ffffffffffffffffffffffffffffffffffffffff1663c5f51f73836040518263ffffffff1660e01b815260040161399b9190615bf2565b60206040518083038186803b1580156139b357600080fd5b505afa1580156139c7573d6000803e3d6000fd5b505050506040513d601f19601f820116820180604052506139eb9190810190614d24565b613a2a576040517f08c379a0000000000000000000000000000000000000000000000000000000008152600401613a2190615a12565b60405180910390fd5b655af3107a4000600360003373ffffffffffffffffffffffffffffffffffffffff1673ffffffffffffffffffffffffffffffffffffffff16815260200190815260200160002060009054906101000a900473ffffffffffffffffffffffffffffffffffffffff1673ffffffffffffffffffffffffffffffffffffffff16633573dbd1846040518263ffffffff1660e01b8152600401613ac99190615bf2565b60206040518083038186803b158015613ae157600080fd5b505afa158015613af5573d6000803e3d6000fd5b505050506040513d601f19601f82011682018060405250613b199190810190614e43565b14613b59576040517f08c379a0000000000000000000000000000000000000000000000000000000008152600401613b50906159f2565b60405180910390fd5b600260003373ffffffffffffffffffffffffffffffffffffffff1673ffffffffffffffffffffffffffffffffffffffff1681526020019081526020016000206000603d815260200190815260200160002060009054906101000a900460ff16613cb7576001600260003373ffffffffffffffffffffffffffffffffffffffff1673ffffffffffffffffffffffffffffffffffffffff1681526020019081526020016000206000603d815260200190815260200160002060006101000a81548160ff021916908315150217905550600160009054906101000a900473ffffffffffffffffffffffffffffffffffffffff1673ffffffffffffffffffffffffffffffffffffffff1663158a49883360016040518363ffffffff1660e01b8152600401613c849291906157e1565b600060405180830381600087803b158015613c9e57600080fd5b505af1158015613cb2573d6000803e3d6000fd5b505050505b5050565b6000600360003373ffffffffffffffffffffffffffffffffffffffff1673ffffffffffffffffffffffffffffffffffffffff16815260200190815260200160002060009054906101000a900473ffffffffffffffffffffffffffffffffffffffff1673ffffffffffffffffffffffffffffffffffffffff166370a08231306040518263ffffffff1660e01b8152600401613d559190615766565b60206040518083038186803b158015613d6d57600080fd5b505afa158015613d81573d6000803e3d6000fd5b505050506040513d601f19601f82011682018060405250613da59190810190614e43565b90503073ffffffffffffffffffffffffffffffffffffffff16600360003373ffffffffffffffffffffffffffffffffffffffff1673ffffffffffffffffffffffffffffffffffffffff16815260200190815260200160002060009054906101000a900473ffffffffffffffffffffffffffffffffffffffff1673ffffffffffffffffffffffffffffffffffffffff16636352211e846040518263ffffffff1660e01b8152600401613e569190615bf2565b60206040518083038186803b158015613e6e57600080fd5b505afa158015613e82573d6000803e3d6000fd5b505050506040513d601f19601f82011682018060405250613ea69190810190614c41565b73ffffffffffffffffffffffffffffffffffffffff161415613efd576040517f08c379a0000000000000000000000000000000000000000000000000000000008152600401613ef490615912565b60405180910390fd5b600360003373ffffffffffffffffffffffffffffffffffffffff1673ffffffffffffffffffffffffffffffffffffffff16815260200190815260200160002060009054906101000a900473ffffffffffffffffffffffffffffffffffffffff1673ffffffffffffffffffffffffffffffffffffffff1663c5f51f73836040518263ffffffff1660e01b8152600401613f959190615bf2565b60206040518083038186803b158015613fad57600080fd5b505afa158015613fc1573d6000803e3d6000fd5b505050506040513d601f19601f82011682018060405250613fe59190810190614d24565b614024576040517f08c379a000000000000000000000000000000000000000000000000000000000815260040161401b90615952565b60405180910390fd5b6000600360003373ffffffffffffffffffffffffffffffffffffffff1673ffffffffffffffffffffffffffffffffffffffff16815260200190815260200160002060009054906101000a900473ffffffffffffffffffffffffffffffffffffffff1673ffffffffffffffffffffffffffffffffffffffff16633573dbd1846040518263ffffffff1660e01b81526004016140be9190615bf2565b60206040518083038186803b1580156140d657600080fd5b505afa1580156140ea573d6000803e3d6000fd5b505050506040513d601f19601f8201168201806040525061410e9190810190614e43565b905080471015614153576040517f08c379a000000000000000000000000000000000000000000000000000000000815260040161414a90615ab2565b60405180910390fd5b600360003373ffffffffffffffffffffffffffffffffffffffff1673ffffffffffffffffffffffffffffffffffffffff16815260200190815260200160002060009054906101000a900473ffffffffffffffffffffffffffffffffffffffff1673ffffffffffffffffffffffffffffffffffffffff16631a14e94a82856040518363ffffffff1660e01b81526004016141ec9190615bf2565b6000604051808303818588803b15801561420557600080fd5b505af1158015614219573d6000803e3d6000fd5b50505050503073ffffffffffffffffffffffffffffffffffffffff16600360003373ffffffffffffffffffffffffffffffffffffffff1673ffffffffffffffffffffffffffffffffffffffff16815260200190815260200160002060009054906101000a900473ffffffffffffffffffffffffffffffffffffffff1673ffffffffffffffffffffffffffffffffffffffff16636352211e856040518263ffffffff1660e01b81526004016142cd9190615bf2565b60206040518083038186803b1580156142e557600080fd5b505afa1580156142f9573d6000803e3d6000fd5b505050506040513d601f19601f8201168201806040525061431d9190810190614c41565b73ffffffffffffffffffffffffffffffffffffffff1614614373576040517f08c379a000000000000000000000000000000000000000000000000000000000815260040161436a90615b32565b60405180910390fd5b60018201600360003373ffffffffffffffffffffffffffffffffffffffff1673ffffffffffffffffffffffffffffffffffffffff16815260200190815260200160002060009054906101000a900473ffffffffffffffffffffffffffffffffffffffff1673ffffffffffffffffffffffffffffffffffffffff166370a08231306040518263ffffffff1660e01b815260040161440f9190615766565b60206040518083038186803b15801561442757600080fd5b505afa15801561443b573d6000803e3d6000fd5b505050506040513d601f19601f8201168201806040525061445f9190810190614e43565b1461449f576040517f08c379a000000000000000000000000000000000000000000000000000000000815260040161449690615bd2565b60405180910390fd5b600260003373ffffffffffffffffffffffffffffffffffffffff1673ffffffffffffffffffffffffffffffffffffffff1681526020019081526020016000206000603e815260200190815260200160002060009054906101000a900460ff166145fd576001600260003373ffffffffffffffffffffffffffffffffffffffff1673ffffffffffffffffffffffffffffffffffffffff1681526020019081526020016000206000603e815260200190815260200160002060006101000a81548160ff021916908315150217905550600160009054906101000a900473ffffffffffffffffffffffffffffffffffffffff1673ffffffffffffffffffffffffffffffffffffffff1663158a49883360026040518363ffffffff1660e01b81526004016145ca92919061580a565b600060405180830381600087803b1580156145e457600080fd5b505af11580156145f8573d6000803e3d6000fd5b505050505b505050565b60006041604260008473ffffffffffffffffffffffffffffffffffffffff1673ffffffffffffffffffffffffffffffffffffffff168152602001908152602001600020546014811061465057fe5b602091828204019190069054906101000a900460ff169050919050565b60006020528060005260406000206000915054906101000a900460ff1681565b60046020528060005260406000206000915054906101000a900460ff1681565b6000816040516020016146c0919061574f565b60405160208183030381529060405280519060200120836040516020016146e7919061574f565b6040516020818303038152906040528051906020012014905092915050565b8260148101928215614748579160200282015b82811115614747578251829080519060200190614737929190614832565b5091602001919060010190614719565b5b50905061475591906148b2565b5090565b8260148101928215614788579160200282015b8281111561478757825182559160200191906001019061476c565b5b50905061479591906148de565b5090565b826014601f016020900481019282156148215791602002820160005b838211156147f257835183826101000a81548160ff02191690831515021790555092602001926001016020816000010492830192600103026147b5565b801561481f5782816101000a81549060ff02191690556001016020816000010492830192600103026147f2565b505b50905061482e9190614903565b5090565b828054600181600116156101000203166002900490600052602060002090601f016020900481019282601f1061487357805160ff19168380011785556148a1565b828001600101855582156148a1579182015b828111156148a0578251825591602001919060010190614885565b5b5090506148ae91906148de565b5090565b6148db91905b808211156148d757600081816148ce9190614933565b506001016148b8565b5090565b90565b61490091905b808211156148fc5760008160009055506001016148e4565b5090565b90565b61493091905b8082111561492c57600081816101000a81549060ff021916905550600101614909565b5090565b90565b50805460018160011615610100020316600290046000825580601f106149595750614978565b601f01602090049060005260206000209081019061497791906148de565b5b50565b60008135905061498a81615ef8565b92915050565b60008151905061499f81615ef8565b92915050565b600082601f8301126149b657600080fd5b60146149c96149c482615caf565b615c82565b915081838560208402820111156149df57600080fd5b60005b83811015614a0f57816149f58882614af2565b8452602084019350602083019250506001810190506149e2565b5050505092915050565b600082601f830112614a2a57600080fd5b6014614a3d614a3882615cd1565b615c82565b9150818360005b83811015614a745781358601614a5a8882614b46565b845260208401935060208301925050600181019050614a44565b5050505092915050565b600082601f830112614a8f57600080fd5b6014614aa2614a9d82615cf3565b615c82565b91508183856020840282011115614ab857600080fd5b60005b83811015614ae85781614ace8882614bee565b845260208401935060208301925050600181019050614abb565b5050505092915050565b600081359050614b0181615f0f565b92915050565b600081519050614b1681615f0f565b92915050565b600081359050614b2b81615f26565b92915050565b600081359050614b4081615f3d565b92915050565b600082601f830112614b5757600080fd5b8135614b6a614b6582615d15565b615c82565b91508082526020830160208301858383011115614b8657600080fd5b614b91838284615ea5565b50505092915050565b600082601f830112614bab57600080fd5b8151614bbe614bb982615d41565b615c82565b91508082526020830160208301858383011115614bda57600080fd5b614be5838284615eb4565b50505092915050565b600081359050614bfd81615f54565b92915050565b600081519050614c1281615f54565b92915050565b600060208284031215614c2a57600080fd5b6000614c388482850161497b565b91505092915050565b600060208284031215614c5357600080fd5b6000614c6184828501614990565b91505092915050565b60008060408385031215614c7d57600080fd5b6000614c8b8582860161497b565b9250506020614c9c85828601614bee565b9150509250929050565b6000806000806107a08587031215614cbd57600080fd5b600085013567ffffffffffffffff811115614cd757600080fd5b614ce387828801614a19565b9450506020614cf487828801614a7e565b9350506102a0614d0687828801614a7e565b925050610520614d18878288016149a5565b91505092959194509250565b600060208284031215614d3657600080fd5b6000614d4484828501614b07565b91505092915050565b600060208284031215614d5f57600080fd5b6000614d6d84828501614b1c565b91505092915050565b600060208284031215614d8857600080fd5b6000614d9684828501614b31565b91505092915050565b60008060008060808587031215614db557600080fd5b600085015167ffffffffffffffff811115614dcf57600080fd5b614ddb87828801614b9a565b9450506020614dec87828801614b07565b9350506040614dfd87828801614c03565b9250506060614e0e87828801614c03565b91505092959194509250565b600060208284031215614e2c57600080fd5b6000614e3a84828501614bee565b91505092915050565b600060208284031215614e5557600080fd5b6000614e6384828501614c03565b91505092915050565b614e7581615e03565b82525050565b614e8481615db1565b82525050565b614e9381615e15565b82525050565b614ea281615e39565b82525050565b614eb181615e4b565b82525050565b614ec081615e5d565b82525050565b614ecf81615e6f565b82525050565b6000614ee082615d78565b614eea8185615d83565b9350614efa818560208601615eb4565b614f0381615ee7565b840191505092915050565b6000614f1982615d78565b614f238185615d94565b9350614f33818560208601615eb4565b80840191505092915050565b6000614f4a82615d6d565b614f548185615d83565b9350614f64818560208601615eb4565b614f6d81615ee7565b840191505092915050565b6000614f85600183615d83565b91507f34000000000000000000000000000000000000000000000000000000000000006000830152602082019050919050565b6000614fc5602183615d83565b91507f5468697320616e696d616c20616c72656164792062656c6f6e677320746f206d60008301527f65000000000000000000000000000000000000000000000000000000000000006020830152604082019050919050565b600061502b600283615d83565b91507f72330000000000000000000000000000000000000000000000000000000000006000830152602082019050919050565b600061506b601b83615d83565b91507f5468697320616e696d616c206973206e6f7420666f722073616c6500000000006000830152602082019050919050565b60006150ab602883615d83565b91507f49207761732061626c6520746f2062757920616e20616e696d616c206e6f742060008301527f666f722073616c650000000000000000000000000000000000000000000000006020830152604082019050919050565b6000615111602183615d83565b91507f416e696d616c206173206e6f74206265656e2061756374696f6e6e656420796560008301527f74000000000000000000000000000000000000000000000000000000000000006020830152604082019050919050565b6000615177602983615d83565b91507f4b696c6c656420616e696d616c20636861726163746572697374696373206e6f60008301527f74207265736574656400000000000000000000000000000000000000000000006020830152604082019050919050565b60006151dd601783615d83565b91507f416e696d616c206e6f7420666f722073616c65207965740000000000000000006000830152602082019050919050565b600061521d601983615d83565b91507f416e696d616c20707269636520697320696e636f7272656374000000000000006000830152602082019050919050565b600061525d601383615d83565b91507f416e696d616c206e6f7420666f722073616c65000000000000000000000000006000830152602082019050919050565b600061529d601a83615d83565b91507f596f75206861766520746f20686f6c6420616e20616e696d616c0000000000006000830152602082019050919050565b60006152dd603183615d83565b91507f4576616c7561746f7220686173207468652073616d6520616d6f756e74206f6660008301527f20746f6b656e73206173206265666f72650000000000000000000000000000006020830152604082019050919050565b6000615343601c83615d83565b91507f4576616c7561746f7220697320616c72656164792062726565646572000000006000830152602082019050919050565b6000615383600483615d83565b91507f65727231000000000000000000000000000000000000000000000000000000006000830152602082019050919050565b60006153c3602383615d83565b91507f596f757220616e696d616c20697320746f6f20657870656e7369766520666f7260008301527f206d6500000000000000000000000000000000000000000000000000000000006020830152604082019050919050565b6000615429603383615d83565b91507f4372656174656420616e696d616c20646f65736e2774206861766520636f727260008301527f65637420636861726163746572697374696373000000000000000000000000006020830152604082019050919050565b600061548f602683615d83565b91507f4576616c7561746f72207761732061626c6520746f206b696c6c20796f75722060008301527f616e696d616c00000000000000000000000000000000000000000000000000006020830152604082019050919050565b60006154f5602a83615d83565b91507f4372656174656420616e696d616c20646f65736e27742062656c6f6e6720746f60008301527f204576616c7561746f72000000000000000000000000000000000000000000006020830152604082019050919050565b600061555b602583615d83565b91507f5468697320616e696d616c20776173206e6f74207472616e736665727265642060008301527f746f206d650000000000000000000000000000000000000000000000000000006020830152604082019050919050565b60006155c1600483615d83565b91507f65727232000000000000000000000000000000000000000000000000000000006000830152602082019050919050565b6000615601601583615d83565b91507f4e6f20736f6c7574696f6e207375626d697474656400000000000000000000006000830152602082019050919050565b6000615641602f83615d83565b91507f4576616c7561746f7220646f6573206e6f74206861766520656e6f756768204560008301527f54482c20706c7a206769762065746800000000000000000000000000000000006020830152604082019050919050565b60006156a7601a83615d83565b91507f4576616c7561746f72206973206e6f74206120627265656465720000000000006000830152602082019050919050565b60006156e7602283615d83565b91507f4576616c7561746f722062616c616e636520646964206e6f7420696e6372656160008301527f73650000000000000000000000000000000000000000000000000000000000006020830152604082019050919050565b61574981615df9565b82525050565b600061575b8284614f0e565b915081905092915050565b600060208201905061577b6000830184614e6c565b92915050565b60006060820190506157966000830186614e6c565b6157a36020830185614e6c565b6157b06040830184614eb7565b949350505050565b60006040820190506157cd6000830185614e6c565b6157da6020830184614e99565b9392505050565b60006040820190506157f66000830185614e6c565b6158036020830184614eb7565b9392505050565b600060408201905061581f6000830185614e6c565b61582c6020830184614ec6565b9392505050565b60006020820190506158486000830184614e7b565b92915050565b60006020820190506158636000830184614e8a565b92915050565b600060208201905061587e6000830184614eb7565b92915050565b6000602082019050818103600083015261589e8184614ed5565b905092915050565b600060808201905081810360008301526158c08187614f3f565b90506158cf6020830186615740565b6158dc6040830185615740565b6158e96060830184614e7b565b95945050505050565b6000602082019050818103600083015261590b81614f78565b9050919050565b6000602082019050818103600083015261592b81614fb8565b9050919050565b6000602082019050818103600083015261594b8161501e565b9050919050565b6000602082019050818103600083015261596b8161505e565b9050919050565b6000602082019050818103600083015261598b8161509e565b9050919050565b600060208201905081810360008301526159ab81615104565b9050919050565b600060208201905081810360008301526159cb8161516a565b9050919050565b600060208201905081810360008301526159eb816151d0565b9050919050565b60006020820190508181036000830152615a0b81615210565b9050919050565b60006020820190508181036000830152615a2b81615250565b9050919050565b60006020820190508181036000830152615a4b81615290565b9050919050565b60006020820190508181036000830152615a6b816152d0565b9050919050565b60006020820190508181036000830152615a8b81615336565b9050919050565b60006020820190508181036000830152615aab81615376565b9050919050565b60006020820190508181036000830152615acb816153b6565b9050919050565b60006020820190508181036000830152615aeb8161541c565b9050919050565b60006020820190508181036000830152615b0b81615482565b9050919050565b60006020820190508181036000830152615b2b816154e8565b9050919050565b60006020820190508181036000830152615b4b8161554e565b9050919050565b60006020820190508181036000830152615b6b816155b4565b9050919050565b60006020820190508181036000830152615b8b816155f4565b9050919050565b60006020820190508181036000830152615bab81615634565b9050919050565b60006020820190508181036000830152615bcb8161569a565b9050919050565b60006020820190508181036000830152615beb816156da565b9050919050565b6000602082019050615c076000830184615740565b92915050565b6000604082019050615c226000830185615740565b615c2f6020830184614ea8565b9392505050565b6000608082019050615c4b6000830187615740565b615c586020830186615740565b615c656040830185614e7b565b8181036060830152615c778184614ed5565b905095945050505050565b6000604051905081810181811067ffffffffffffffff82111715615ca557600080fd5b8060405250919050565b600067ffffffffffffffff821115615cc657600080fd5b602082029050919050565b600067ffffffffffffffff821115615ce857600080fd5b602082029050919050565b600067ffffffffffffffff821115615d0a57600080fd5b602082029050919050565b600067ffffffffffffffff821115615d2c57600080fd5b601f19601f8301169050602081019050919050565b600067ffffffffffffffff821115615d5857600080fd5b601f19601f8301169050602081019050919050565b600081519050919050565b600081519050919050565b600082825260208201905092915050565b600081905092915050565b6000615daa82615dd9565b9050919050565b60008115159050919050565b6000819050919050565b6000615dd282615d9f565b9050919050565b600073ffffffffffffffffffffffffffffffffffffffff82169050919050565b6000819050919050565b6000615e0e82615e81565b9050919050565b6000615e2082615e27565b9050919050565b6000615e3282615dd9565b9050919050565b6000615e4482615df9565b9050919050565b6000615e5682615df9565b9050919050565b6000615e6882615df9565b9050919050565b6000615e7a82615df9565b9050919050565b6000615e8c82615e93565b9050919050565b6000615e9e82615dd9565b9050919050565b82818337600083830152505050565b60005b83811015615ed2578082015181840152602081019050615eb7565b83811115615ee1576000848401525b50505050565b6000601f19601f8301169050919050565b615f0181615d9f565b8114615f0c57600080fd5b50565b615f1881615db1565b8114615f2357600080fd5b50565b615f2f81615dbd565b8114615f3a57600080fd5b50565b615f4681615dc7565b8114615f5157600080fd5b50565b615f5d81615df9565b8114615f6857600080fd5b5056fea26469706673582212209d970476dd4d6cba8344bd6b1b77c8b1997df9aef0bbcb141425356a50046aff64736f6c63430006020033",
  "source": "pragma solidity ^0.6.2;\r\npragma experimental ABIEncoderV2;\r\n\r\nimport \"./ERC20TD.sol\";\r\nimport \"./IExerciceSolution.sol\";\r\n\r\ncontract Evaluator \r\n{\r\n\r\n\tmapping(address => bool) public teachers;\r\n\tERC20TD TDERC20;\r\n\r\n \tmapping(address => mapping(uint256 => bool)) public exerciceProgression;\r\n \tmapping(address => IExerciceSolution) public studentExerciceSolution;\r\n \tmapping(address => bool) public hasBeenPaired;\r\n \t\r\n\tstring[20] private randomNames;\r\n\tuint256[20] private randomLegs;\r\n\tuint256[20] private randomSex;\r\n\tbool[20] private randomWings;\r\n\tmapping(address => uint256) public assignedRank;\r\n\tuint public nextValueStoreRank;\r\n\r\n \tevent newRandomAnimalAttributes(string name, uint256 legs, uint256 sex, bool wings);\r\n \tevent constructedCorrectly(address erc20Address);\r\n\t\r\n\tconstructor(ERC20TD _TDERC20) \r\n\tpublic \r\n\t{\r\n\t\tTDERC20 = _TDERC20;\r\n\t\temit constructedCorrectly(address(TDERC20));\r\n\t}\r\n\r\n\tfallback () external payable \r\n\t{}\r\n\r\n\treceive () external payable \r\n\t{}\r\n\r\n\tfunction ex1_testERC721()\r\n\tpublic\t\r\n\t{\r\n\t\t// Checking a solution was submitted\r\n\t\trequire(exerciceProgression[msg.sender][0], \"No solution submitted\");\r\n\r\n\t\t// Check that token 1 belongs to the Evaluator\r\n\t\trequire(studentExerciceSolution[msg.sender].balanceOf(address(this)) == 1, \"err1\");\r\n\t\trequire(studentExerciceSolution[msg.sender].ownerOf(1) == address(this), \"err2\");\r\n\t\t// Check that token 1 can be transferred back to msg.sender\r\n\t\tstudentExerciceSolution[msg.sender].safeTransferFrom(address(this), msg.sender, 1);\r\n\t\trequire(studentExerciceSolution[msg.sender].balanceOf(address(this)) == 0, \"r3\");\r\n\t\trequire(studentExerciceSolution[msg.sender].ownerOf(1) == msg.sender, \"4\");\r\n\r\n\t\t// Crediting points\r\n\t\tif (!exerciceProgression[msg.sender][1])\r\n\t\t{\r\n\t\t\texerciceProgression[msg.sender][1] = true;\r\n\t\t\t// ERC721 points\r\n\t\t\tTDERC20.distributeTokens(msg.sender, 2);\r\n\t\t}\r\n\t}\r\n\r\n\tfunction ex2a_getAnimalToCreateAttributes()\r\n\tpublic\r\n\t{\r\n\t\tassignedRank[msg.sender] = nextValueStoreRank;\r\n\t\tnextValueStoreRank += 1;\r\n\t\tif (nextValueStoreRank >= 20)\r\n\t\t{\r\n\t\t\tnextValueStoreRank = 0;\r\n\t\t}\r\n\t}\r\n\r\n\tfunction ex2b_testDeclaredAnimal(uint animalNumber)\r\n\tpublic\t\r\n\t{\r\n\t\t// Checking a solution was submitted\r\n\t\trequire(exerciceProgression[msg.sender][0], \"No solution submitted\");\r\n\r\n\t\t// Verify that contract is a registeredBreeder \r\n\t\tstring memory name = readName(msg.sender);\r\n\t\tbool wings = readWings(msg.sender);\r\n\t\tuint legs = readLegs(msg.sender);\r\n\t\tuint sex = readSex(msg.sender);\r\n\t\t\r\n\r\n\t\t// Check animal belongs to Evaluator\r\n\t\trequire(studentExerciceSolution[msg.sender].ownerOf(animalNumber) == address(this), \"Created animal doesn't belong to Evaluator\");\r\n\r\n\t\t// Check that properties are visible  \r\n\t\t(string memory _name, bool _wings, uint _legs, uint _sex) = studentExerciceSolution[msg.sender].getAnimalCharacteristics(animalNumber);\r\n\t\trequire(_compareStrings(name,_name) && (wings == _wings) && (legs == _legs) && (sex == _sex), \"Created animal doesn't have correct characteristics\");\r\n\r\n\t\t// Crediting points\r\n\t\tif (!exerciceProgression[msg.sender][2])\r\n\t\t{\r\n\t\t\texerciceProgression[msg.sender][2] = true;\r\n\t\t\tTDERC20.distributeTokens(msg.sender, 2);\r\n\t\t}\r\n\t}\r\n\r\n\tfunction ex3_testRegisterBreeder()\r\n\tpublic\t\r\n\t{\r\n\t\t// Checking a solution was submitted\r\n\t\trequire(exerciceProgression[msg.sender][0], \"No solution submitted\");\r\n\r\n\t\t// Verify that contract is not a registeredBreeder yet\r\n\t\trequire(!studentExerciceSolution[msg.sender].isBreeder(address(this)), \"Evaluator is already breeder\");\r\n\r\n\t\t// Register as a breeder\r\n\t\tuint256 registrationPrice = studentExerciceSolution[msg.sender].registrationPrice();\r\n\t\trequire(address(this).balance >= registrationPrice, \"Evaluator does not have enough ETH, plz giv eth\");\r\n\t\tstudentExerciceSolution[msg.sender].registerMeAsBreeder.value(registrationPrice)();\r\n\t\trequire(studentExerciceSolution[msg.sender].isBreeder(address(this)), \"Evaluator is not a breeder\");\r\n\t\t// Crediting points\r\n\t\tif (!exerciceProgression[msg.sender][3])\r\n\t\t{\r\n\t\t\texerciceProgression[msg.sender][3] = true;\r\n\t\t\tTDERC20.distributeTokens(msg.sender, 2);\r\n\t\t}\r\n\t}\r\n\r\n\tfunction ex4_testDeclareAnimal()\r\n\tpublic\t\r\n\t{\r\n\t\t// Checking a solution was submitted\r\n\t\trequire(exerciceProgression[msg.sender][0], \"No solution submitted\");\r\n\r\n\t\t// Verify that contract is a registeredBreeder \r\n\t\trequire(studentExerciceSolution[msg.sender].isBreeder(address(this)), \"Evaluator is not a breeder\");\r\n\t\tuint256 initBalance = studentExerciceSolution[msg.sender].balanceOf(address(this));\r\n\t\tstring memory name = readName(msg.sender);\r\n\t\tbool wings = readWings(msg.sender);\r\n\t\tuint legs = readLegs(msg.sender);\r\n\t\tuint sex = readSex(msg.sender);\r\n\t\t// Declare an animal \t\r\n\t\tuint animalNumber = studentExerciceSolution[msg.sender].declareAnimal(sex, legs, wings, name);\r\n\r\n\t\t// Check animal belongs to Evaluator\r\n\t\trequire(studentExerciceSolution[msg.sender].ownerOf(animalNumber) == address(this), \"Created animal doesn't belong to Evaluator\");\r\n\t\trequire(studentExerciceSolution[msg.sender].balanceOf(address(this)) == initBalance + 1, \"Evaluator balance did not increase\");\r\n\r\n\t\t// Check that properties are visible \r\n\t\t(string memory _name, bool _wings, uint _legs, uint _sex) = studentExerciceSolution[msg.sender].getAnimalCharacteristics(animalNumber);\r\n\t\trequire(_compareStrings(name,_name) && (wings == _wings) && (legs == _legs) && (sex == _sex), \"Created animal doesn't have correct characteristics\");\r\n\r\n\t\t// Crediting points\r\n\t\tif (!exerciceProgression[msg.sender][4])\r\n\t\t{\r\n\t\t\texerciceProgression[msg.sender][4] = true;\r\n\t\t\tTDERC20.distributeTokens(msg.sender, 2);\r\n\t\t}\r\n\t}\r\n\r\n\tfunction ex5_declareDeadAnimal()\r\n\tpublic\t\r\n\t{\t\r\n\t\t// Getting initial token balance. Must be at least 1\r\n\t\tuint256 initBalance = studentExerciceSolution[msg.sender].balanceOf(address(this));\r\n\t\t\r\n\t\t// Getting an animal id of Evaluator\r\n\t\tuint animalNumber = studentExerciceSolution[msg.sender].tokenOfOwnerByIndex(address(this), 0);\r\n\r\n\t\t// Declaring it as dead\r\n\t\tstudentExerciceSolution[msg.sender].declareDeadAnimal(animalNumber);\t\t\r\n\r\n\t\t// Checking end balance\r\n\t\tuint256 endBalance = studentExerciceSolution[msg.sender].balanceOf(address(this));\r\n\t\trequire(initBalance - endBalance == 1, \"Evaluator has the same amount of tokens as before\");\r\n\r\n\t\t// Check that properties are deleted \r\n\t\t(string memory _name, bool _wings, uint _legs, uint _sex) = studentExerciceSolution[msg.sender].getAnimalCharacteristics(animalNumber);\r\n\t\trequire(_compareStrings(\"\",_name) && (false == _wings) && (0 == _legs) && (0 == _sex), \"Killed animal characteristics not reseted\");\r\n\r\n\t\t// Testing killing another person's animal. The caller has to hold an animal\r\n\t\tuint exerciceSolutionAnimalNumber = studentExerciceSolution[msg.sender].tokenOfOwnerByIndex(msg.sender, 0);\r\n\t\trequire(studentExerciceSolution[msg.sender].ownerOf(exerciceSolutionAnimalNumber) == msg.sender, \"You have to hold an animal\");\r\n\r\n\t\t// Evaluator tries to declare a dead animal that does not belong to him\r\n\t\tbool wasKillAccepted = false;\r\n\t\ttry studentExerciceSolution[msg.sender].declareDeadAnimal(exerciceSolutionAnimalNumber)\r\n\t\t{\r\n\t\t\twasKillAccepted = true;\r\n        } \r\n        catch \r\n        {\r\n            // This is executed in case revert() was used.\r\n            wasKillAccepted = false;\r\n        }\r\n\r\n        require(!wasKillAccepted, \"Evaluator was able to kill your animal\");\r\n\r\n\r\n\t\t// Crediting points\r\n\t\tif (!exerciceProgression[msg.sender][5])\r\n\t\t{\r\n\t\t\texerciceProgression[msg.sender][5] = true;\r\n\t\t\tTDERC20.distributeTokens(msg.sender, 2);\r\n\t\t}\r\n\t}\r\n\r\n\tfunction ex6a_auctionAnimal_offer()\r\n\tpublic\r\n\t{\r\n\t\t// Offer an animal for sale. Evaluator must hold at least one animal.\r\n\t\t// Getting an animal id of Evaluator\r\n\t\tuint animalNumber = studentExerciceSolution[msg.sender].tokenOfOwnerByIndex(address(this), 0);\r\n\t\t// Testing that animal is not for sale yet\r\n\t\trequire(!studentExerciceSolution[msg.sender].isAnimalForSale(animalNumber), \"Animal not for sale yet\" );\r\n\t\trequire(studentExerciceSolution[msg.sender].animalPrice(animalNumber) == 0, \"Animal as not been auctionned yet\");\r\n\r\n\t\t// Trying to buy animal not for sale\r\n\t\tbool wasBuyAccepted = false;\r\n\t\ttry studentExerciceSolution[msg.sender].buyAnimal(animalNumber)\r\n\t\t{\r\n\t\t\twasBuyAccepted = true;\r\n        } \r\n        catch \r\n        {\r\n            // This is executed in case revert() was used.\r\n            wasBuyAccepted = false;\r\n        }\r\n        require(!wasBuyAccepted, \"I was able to buy an animal not for sale\");\r\n\r\n\r\n        // Offering animal for sale\r\n        studentExerciceSolution[msg.sender].offerForSale(animalNumber, 0.0001 ether);\r\n\r\n        // Checking it is for sale\r\n        require(studentExerciceSolution[msg.sender].isAnimalForSale(animalNumber), \"Animal not for sale\" );\r\n\t\trequire(studentExerciceSolution[msg.sender].animalPrice(animalNumber) == 0.0001 ether, \"Animal price is incorrect\");\r\n\r\n\t\t// Crediting points\r\n\t\tif (!exerciceProgression[msg.sender][61])\r\n\t\t{\r\n\t\t\texerciceProgression[msg.sender][61] = true;\r\n\t\t\tTDERC20.distributeTokens(msg.sender, 1);\r\n\t\t}\r\n\t}\r\n\r\n\tfunction ex6b_auctionAnimal_buy(uint animalForSale)\r\n\tpublic\r\n\t{\r\n\t\t// Buy an animal that is on sale. \r\n\t\t// Getting initial token balance\r\n\t\tuint256 initBalance = studentExerciceSolution[msg.sender].balanceOf(address(this));\r\n\r\n\t\t// Verify the animal does not belong to evaluator\r\n\t\trequire(studentExerciceSolution[msg.sender].ownerOf(animalForSale) != address(this), \"This animal already belongs to me\");\r\n\r\n\t\t// Verify that the animal is offered for sale \r\n\t\trequire(studentExerciceSolution[msg.sender].isAnimalForSale(animalForSale), \"This animal is not for sale\");\r\n\r\n\t\t// Check the price of animal\r\n\t\tuint animalPrice = studentExerciceSolution[msg.sender].animalPrice(animalForSale);\r\n\t\trequire(address(this).balance >= animalPrice, \"Your animal is too expensive for me\");\r\n\r\n\t\t// Buy the animal\r\n\t\tstudentExerciceSolution[msg.sender].buyAnimal.value(animalPrice)(animalForSale);\r\n\r\n\t\t// Check that it is mine\r\n\t\trequire(studentExerciceSolution[msg.sender].ownerOf(animalForSale) == address(this), \"This animal was not transferred to me\");\r\n\t\trequire(studentExerciceSolution[msg.sender].balanceOf(address(this)) == initBalance + 1, \"Evaluator balance did not increase\");\r\n\r\n\t\t// Crediting points\r\n\t\tif (!exerciceProgression[msg.sender][62])\r\n\t\t{\r\n\t\t\texerciceProgression[msg.sender][62] = true;\r\n\t\t\tTDERC20.distributeTokens(msg.sender, 2);\r\n\t\t}\r\n\r\n\t}\r\n\r\n\t/* Internal functions and modifiers */ \r\n\tfunction submitExercice(IExerciceSolution studentExercice)\r\n\tpublic\r\n\t{\r\n\t\t// Checking this contract was not used by another group before\r\n\t\trequire(!hasBeenPaired[address(studentExercice)]);\r\n\r\n\t\t// Assigning passed ERC20 as student ERC20\r\n\t\tstudentExerciceSolution[msg.sender] = studentExercice;\r\n\t\thasBeenPaired[address(studentExercice)] = true;\r\n\r\n\t\tif (!exerciceProgression[msg.sender][0])\r\n\t\t{\r\n\t\t\texerciceProgression[msg.sender][0] = true;\r\n\t\t\t// setup points\r\n\t\t\tTDERC20.distributeTokens(msg.sender, 2);\r\n\t\t\t// Deploying contract points\r\n\t\t\tTDERC20.distributeTokens(msg.sender, 2);\r\n\t\t}\r\n\t}\r\n\r\n\tmodifier onlyTeachers() \r\n\t{\r\n\r\n\t    require(TDERC20.teachers(msg.sender));\r\n\t    _;\r\n\t}\r\n\r\n\tfunction _compareStrings(string memory a, string memory b) \r\n\tinternal \r\n\tpure \r\n\treturns (bool) \r\n\t{\r\n    \treturn (keccak256(abi.encodePacked((a))) == keccak256(abi.encodePacked((b))));\r\n\t}\r\n\r\n\tfunction bytes32ToString(bytes32 _bytes32) \r\n\tpublic \r\n\tpure returns (string memory) \r\n\t{\r\n        uint8 i = 0;\r\n        while(i < 32 && _bytes32[i] != 0) {\r\n            i++;\r\n        }\r\n        bytes memory bytesArray = new bytes(i);\r\n        for (i = 0; i < 32 && _bytes32[i] != 0; i++) {\r\n            bytesArray[i] = _bytes32[i];\r\n        }\r\n        return string(bytesArray);\r\n    }\r\n\r\n    function readName(address studentAddres)\r\n\tpublic\r\n\tview\r\n\treturns(string memory)\r\n\t{\r\n\t\treturn randomNames[assignedRank[studentAddres]];\r\n\t}\r\n\r\n\tfunction readLegs(address studentAddres)\r\n\tpublic\r\n\tview\r\n\treturns(uint256)\r\n\t{\r\n\t\treturn randomLegs[assignedRank[studentAddres]];\r\n\t}\r\n\r\n\tfunction readSex(address studentAddres)\r\n\tpublic\r\n\tview\r\n\treturns(uint256)\r\n\t{\r\n\t\treturn randomSex[assignedRank[studentAddres]];\r\n\t}\r\n\r\n\tfunction readWings(address studentAddres)\r\n\tpublic\r\n\tview\r\n\treturns(bool)\r\n\t{\r\n\t\treturn randomWings[assignedRank[studentAddres]];\r\n\t}\r\n\r\n\tfunction setRandomValuesStore(string[20] memory _randomNames, uint256[20] memory _randomLegs, uint256[20] memory _randomSex, bool[20] memory _randomWings) \r\n\tpublic \r\n\tonlyTeachers\r\n\t{\r\n\t\trandomNames = _randomNames;\r\n\t\trandomLegs = _randomLegs;\r\n\t\trandomSex = _randomSex;\r\n\t\trandomWings = _randomWings;\r\n\t\tnextValueStoreRank = 0;\r\n\t\tfor (uint i = 0; i < 20; i++)\r\n\t\t{\r\n\t\t\temit newRandomAnimalAttributes(_randomNames[i], _randomLegs[i], _randomSex[i], _randomWings[i]);\r\n\t\t}\r\n\t}\r\n\r\n}",
  "sourcePath": "C:\\Users\\lenovo\\Desktop\\ESILV\\Blockchain Programming\\td\\erc721-101\\contracts\\Evaluator.sol",
  "compiler": {
    "name": "solc",
    "version": "0.6.2+commit.bacdbe57.Emscripten.clang"
  },
  "schemaVersion": "3.4.3",
  "updatedAt": "2021-12-14T12:24:05.795Z",
  "devdoc": {
    "methods": {}
  },
  "userdoc": {
    "methods": {}
  }
}