{
  "contractName": "Evaluator2",
  "abi": [
    {
      "inputs": [
        {
          "internalType": "contract ERC20TD",
          "name": "_TDERC20",
          "type": "address"
        }
      ],
      "stateMutability": "nonpayable",
      "type": "constructor"
    },
    {
      "anonymous": false,
      "inputs": [
        {
          "indexed": false,
          "internalType": "address",
          "name": "erc20Address",
          "type": "address"
        }
      ],
      "name": "constructedCorrectly",
      "type": "event"
    },
    {
      "anonymous": false,
      "inputs": [
        {
          "indexed": false,
          "internalType": "string",
          "name": "name",
          "type": "string"
        },
        {
          "indexed": false,
          "internalType": "uint256",
          "name": "legs",
          "type": "uint256"
        },
        {
          "indexed": false,
          "internalType": "uint256",
          "name": "sex",
          "type": "uint256"
        },
        {
          "indexed": false,
          "internalType": "bool",
          "name": "wings",
          "type": "bool"
        }
      ],
      "name": "newRandomAnimalAttributes",
      "type": "event"
    },
    {
      "stateMutability": "payable",
      "type": "fallback"
    },
    {
      "inputs": [
        {
          "internalType": "address",
          "name": "",
          "type": "address"
        }
      ],
      "name": "assignedRank",
      "outputs": [
        {
          "internalType": "uint256",
          "name": "",
          "type": "uint256"
        }
      ],
      "stateMutability": "view",
      "type": "function"
    },
    {
      "inputs": [
        {
          "internalType": "address",
          "name": "",
          "type": "address"
        },
        {
          "internalType": "uint256",
          "name": "",
          "type": "uint256"
        }
      ],
      "name": "exerciceProgression",
      "outputs": [
        {
          "internalType": "bool",
          "name": "",
          "type": "bool"
        }
      ],
      "stateMutability": "view",
      "type": "function"
    },
    {
      "inputs": [
        {
          "internalType": "address",
          "name": "",
          "type": "address"
        }
      ],
      "name": "hasBeenPaired",
      "outputs": [
        {
          "internalType": "bool",
          "name": "",
          "type": "bool"
        }
      ],
      "stateMutability": "view",
      "type": "function"
    },
    {
      "inputs": [],
      "name": "nextValueStoreRank",
      "outputs": [
        {
          "internalType": "uint256",
          "name": "",
          "type": "uint256"
        }
      ],
      "stateMutability": "view",
      "type": "function"
    },
    {
      "inputs": [
        {
          "internalType": "address",
          "name": "",
          "type": "address"
        }
      ],
      "name": "studentExerciceSolution",
      "outputs": [
        {
          "internalType": "contract IExerciceSolution",
          "name": "",
          "type": "address"
        }
      ],
      "stateMutability": "view",
      "type": "function"
    },
    {
      "inputs": [
        {
          "internalType": "address",
          "name": "",
          "type": "address"
        }
      ],
      "name": "teachers",
      "outputs": [
        {
          "internalType": "bool",
          "name": "",
          "type": "bool"
        }
      ],
      "stateMutability": "view",
      "type": "function"
    },
    {
      "stateMutability": "payable",
      "type": "receive"
    },
    {
      "inputs": [],
      "name": "ex2a_getAnimalToCreateAttributes",
      "outputs": [],
      "stateMutability": "nonpayable",
      "type": "function"
    },
    {
      "inputs": [
        {
          "internalType": "uint256",
          "name": "parent1",
          "type": "uint256"
        },
        {
          "internalType": "uint256",
          "name": "parent2",
          "type": "uint256"
        }
      ],
      "name": "ex7a_breedAnimalWithParents",
      "outputs": [],
      "stateMutability": "nonpayable",
      "type": "function"
    },
    {
      "inputs": [],
      "name": "ex7b_offerAnimalForReproduction",
      "outputs": [],
      "stateMutability": "nonpayable",
      "type": "function"
    },
    {
      "inputs": [
        {
          "internalType": "uint256",
          "name": "animalAvailableForReproduction",
          "type": "uint256"
        }
      ],
      "name": "ex7c_payForReproduction",
      "outputs": [],
      "stateMutability": "nonpayable",
      "type": "function"
    },
    {
      "inputs": [
        {
          "internalType": "contract IExerciceSolution",
          "name": "studentExercice",
          "type": "address"
        }
      ],
      "name": "submitExercice",
      "outputs": [],
      "stateMutability": "nonpayable",
      "type": "function"
    },
    {
      "inputs": [
        {
          "internalType": "bytes32",
          "name": "_bytes32",
          "type": "bytes32"
        }
      ],
      "name": "bytes32ToString",
      "outputs": [
        {
          "internalType": "string",
          "name": "",
          "type": "string"
        }
      ],
      "stateMutability": "pure",
      "type": "function"
    },
    {
      "inputs": [
        {
          "internalType": "address",
          "name": "studentAddres",
          "type": "address"
        }
      ],
      "name": "readName",
      "outputs": [
        {
          "internalType": "string",
          "name": "",
          "type": "string"
        }
      ],
      "stateMutability": "view",
      "type": "function"
    },
    {
      "inputs": [
        {
          "internalType": "address",
          "name": "studentAddres",
          "type": "address"
        }
      ],
      "name": "readLegs",
      "outputs": [
        {
          "internalType": "uint256",
          "name": "",
          "type": "uint256"
        }
      ],
      "stateMutability": "view",
      "type": "function"
    },
    {
      "inputs": [
        {
          "internalType": "address",
          "name": "studentAddres",
          "type": "address"
        }
      ],
      "name": "readSex",
      "outputs": [
        {
          "internalType": "uint256",
          "name": "",
          "type": "uint256"
        }
      ],
      "stateMutability": "view",
      "type": "function"
    },
    {
      "inputs": [
        {
          "internalType": "address",
          "name": "studentAddres",
          "type": "address"
        }
      ],
      "name": "readWings",
      "outputs": [
        {
          "internalType": "bool",
          "name": "",
          "type": "bool"
        }
      ],
      "stateMutability": "view",
      "type": "function"
    },
    {
      "inputs": [
        {
          "internalType": "string[20]",
          "name": "_randomNames",
          "type": "string[20]"
        },
        {
          "internalType": "uint256[20]",
          "name": "_randomLegs",
          "type": "uint256[20]"
        },
        {
          "internalType": "uint256[20]",
          "name": "_randomSex",
          "type": "uint256[20]"
        },
        {
          "internalType": "bool[20]",
          "name": "_randomWings",
          "type": "bool[20]"
        }
      ],
      "name": "setRandomValuesStore",
      "outputs": [],
      "stateMutability": "nonpayable",
      "type": "function"
    }
  ],
  "bytecode": "0x60806040523480156200001157600080fd5b506040516200462b3803806200462b8339818101604052620000379190810190620000f1565b80600160006101000a81548173ffffffffffffffffffffffffffffffffffffffff021916908373ffffffffffffffffffffffffffffffffffffffff1602179055507f2915b3b4e0613c6b63dca39a375dd8c9f1de68d9e208a0713b7624260e2d0812600160009054906101000a900473ffffffffffffffffffffffffffffffffffffffff16604051620000cb91906200012e565b60405180910390a150620001ad565b600081519050620000eb8162000193565b92915050565b6000602082840312156200010457600080fd5b60006200011484828501620000da565b91505092915050565b62000128816200014b565b82525050565b60006020820190506200014560008301846200011d565b92915050565b6000620001588262000173565b9050919050565b60006200016c826200014b565b9050919050565b600073ffffffffffffffffffffffffffffffffffffffff82169050919050565b6200019e816200015f565b8114620001aa57600080fd5b50565b61446e80620001bd6000396000f3fe6080604052600436106101025760003560e01c8063721c51fb11610095578063df67f59d11610064578063df67f59d1461034d578063e50fb4271461038a578063e9847a75146103b3578063f0a47f78146103f0578063f4fdbb881461042d57610109565b8063721c51fb14610293578063806df959146102bc5780639201de55146102f95780639aa99dd61461033657610109565b806339119dce116100d157806339119dce146101c55780634466f62d146101f0578063469d2a831461022d578063614933ba1461026a57610109565b80630b9612541461010b5780632236d353146101485780632407dd58146101715780632e64c5001461018857610109565b3661010957005b005b34801561011757600080fd5b50610132600480360361012d9190810190613307565b61046a565b60405161013f9190613dec565b60405180910390f35b34801561015457600080fd5b5061016f600480360361016a9190810190613465565b61049d565b005b34801561017d57600080fd5b506101866105cd565b005b34801561019457600080fd5b506101af60048036036101aa9190810190613359565b610fed565b6040516101bc9190613dd1565b60405180910390f35b3480156101d157600080fd5b506101da61101c565b6040516101e791906140b5565b60405180910390f35b3480156101fc57600080fd5b5061021760048036036102129190810190613307565b611022565b60405161022491906140b5565b60405180910390f35b34801561023957600080fd5b50610254600480360361024f9190810190613307565b61103a565b60405161026191906140b5565b60405180910390f35b34801561027657600080fd5b50610291600480360361028c9190810190613395565b611091565b005b34801561029f57600080fd5b506102ba60048036036102b59190810190613509565b611235565b005b3480156102c857600080fd5b506102e360048036036102de9190810190613307565b611e88565b6040516102f09190613e07565b60405180910390f35b34801561030557600080fd5b50610320600480360361031b919081019061343c565b611f77565b60405161032d9190613e07565b60405180910390f35b34801561034257600080fd5b5061034b6120d4565b005b34801561035957600080fd5b50610374600480360361036f9190810190613307565b612140565b60405161038191906140b5565b60405180910390f35b34801561039657600080fd5b506103b160048036036103ac919081019061355b565b612197565b005b3480156103bf57600080fd5b506103da60048036036103d59190810190613307565b612cf1565b6040516103e79190613dd1565b60405180910390f35b3480156103fc57600080fd5b5061041760048036036104129190810190613307565b612d5c565b6040516104249190613dd1565b60405180910390f35b34801561043957600080fd5b50610454600480360361044f9190810190613307565b612d7c565b6040516104619190613dd1565b60405180910390f35b60036020528060005260406000206000915054906101000a900473ffffffffffffffffffffffffffffffffffffffff1681565b600460008273ffffffffffffffffffffffffffffffffffffffff1673ffffffffffffffffffffffffffffffffffffffff16815260200190815260200160002060009054906101000a900460ff16156104f457600080fd5b80600360003373ffffffffffffffffffffffffffffffffffffffff1673ffffffffffffffffffffffffffffffffffffffff16815260200190815260200160002060006101000a81548173ffffffffffffffffffffffffffffffffffffffff021916908373ffffffffffffffffffffffffffffffffffffffff1602179055506001600460008373ffffffffffffffffffffffffffffffffffffffff1673ffffffffffffffffffffffffffffffffffffffff16815260200190815260200160002060006101000a81548160ff02191690831515021790555050565b6000600360003373ffffffffffffffffffffffffffffffffffffffff1673ffffffffffffffffffffffffffffffffffffffff16815260200190815260200160002060009054906101000a900473ffffffffffffffffffffffffffffffffffffffff1673ffffffffffffffffffffffffffffffffffffffff16632f745c593060006040518363ffffffff1660e01b815260040161066a929190613d7f565b60206040518083038186803b15801561068257600080fd5b505afa158015610696573d6000803e3d6000fd5b505050506040513d601f19601f820116820180604052506106ba9190810190613532565b9050600360003373ffffffffffffffffffffffffffffffffffffffff1673ffffffffffffffffffffffffffffffffffffffff16815260200190815260200160002060009054906101000a900473ffffffffffffffffffffffffffffffffffffffff1673ffffffffffffffffffffffffffffffffffffffff16634abda8c8826040518263ffffffff1660e01b815260040161075491906140b5565b60206040518083038186803b15801561076c57600080fd5b505afa158015610780573d6000803e3d6000fd5b505050506040513d601f19601f820116820180604052506107a49190810190613413565b156107e4576040517f08c379a00000000000000000000000000000000000000000000000000000000081526004016107db90613e75565b60405180910390fd5b6000600360003373ffffffffffffffffffffffffffffffffffffffff1673ffffffffffffffffffffffffffffffffffffffff16815260200190815260200160002060009054906101000a900473ffffffffffffffffffffffffffffffffffffffff1673ffffffffffffffffffffffffffffffffffffffff16632a4672b2836040518263ffffffff1660e01b815260040161087e91906140b5565b60206040518083038186803b15801561089657600080fd5b505afa1580156108aa573d6000803e3d6000fd5b505050506040513d601f19601f820116820180604052506108ce9190810190613532565b1461090e576040517f08c379a000000000000000000000000000000000000000000000000000000000815260040161090590614055565b60405180910390fd5b600360003373ffffffffffffffffffffffffffffffffffffffff1673ffffffffffffffffffffffffffffffffffffffff16815260200190815260200160002060009054906101000a900473ffffffffffffffffffffffffffffffffffffffff1673ffffffffffffffffffffffffffffffffffffffff1663a0c32c8f82655af3107a40006040518363ffffffff1660e01b81526004016109ae9291906140d0565b602060405180830381600087803b1580156109c857600080fd5b505af11580156109dc573d6000803e3d6000fd5b505050506040513d601f19601f82011682018060405250610a009190810190613532565b50600360003373ffffffffffffffffffffffffffffffffffffffff1673ffffffffffffffffffffffffffffffffffffffff16815260200190815260200160002060009054906101000a900473ffffffffffffffffffffffffffffffffffffffff1673ffffffffffffffffffffffffffffffffffffffff16634abda8c8826040518263ffffffff1660e01b8152600401610a9991906140b5565b60206040518083038186803b158015610ab157600080fd5b505afa158015610ac5573d6000803e3d6000fd5b505050506040513d601f19601f82011682018060405250610ae99190810190613413565b610b28576040517f08c379a0000000000000000000000000000000000000000000000000000000008152600401610b1f90613eb5565b60405180910390fd5b655af3107a4000600360003373ffffffffffffffffffffffffffffffffffffffff1673ffffffffffffffffffffffffffffffffffffffff16815260200190815260200160002060009054906101000a900473ffffffffffffffffffffffffffffffffffffffff1673ffffffffffffffffffffffffffffffffffffffff16632a4672b2836040518263ffffffff1660e01b8152600401610bc791906140b5565b60206040518083038186803b158015610bdf57600080fd5b505afa158015610bf3573d6000803e3d6000fd5b505050506040513d601f19601f82011682018060405250610c179190810190613532565b14610c57576040517f08c379a0000000000000000000000000000000000000000000000000000000008152600401610c4e90613ed5565b60405180910390fd5b6000600360003373ffffffffffffffffffffffffffffffffffffffff1673ffffffffffffffffffffffffffffffffffffffff16815260200190815260200160002060009054906101000a900473ffffffffffffffffffffffffffffffffffffffff1673ffffffffffffffffffffffffffffffffffffffff16632f745c593360006040518363ffffffff1660e01b8152600401610cf4929190613d7f565b60206040518083038186803b158015610d0c57600080fd5b505afa158015610d20573d6000803e3d6000fd5b505050506040513d601f19601f82011682018060405250610d449190810190613532565b90506000809050600360003373ffffffffffffffffffffffffffffffffffffffff1673ffffffffffffffffffffffffffffffffffffffff16815260200190815260200160002060009054906101000a900473ffffffffffffffffffffffffffffffffffffffff1673ffffffffffffffffffffffffffffffffffffffff1663a0c32c8f83655af3107a40006040518363ffffffff1660e01b8152600401610deb9291906140d0565b602060405180830381600087803b158015610e0557600080fd5b505af1925050508015610e3657506040513d601f19601f82011682018060405250610e339190810190613532565b60015b610e435760009050610e49565b50600190505b8015610e8a576040517f08c379a0000000000000000000000000000000000000000000000000000000008152600401610e8190613ef5565b60405180910390fd5b600260003373ffffffffffffffffffffffffffffffffffffffff1673ffffffffffffffffffffffffffffffffffffffff16815260200190815260200160002060006048815260200190815260200160002060009054906101000a900460ff16610fe8576001600260003373ffffffffffffffffffffffffffffffffffffffff1673ffffffffffffffffffffffffffffffffffffffff16815260200190815260200160002060006048815260200190815260200160002060006101000a81548160ff021916908315150217905550600160009054906101000a900473ffffffffffffffffffffffffffffffffffffffff1673ffffffffffffffffffffffffffffffffffffffff1663158a49883360016040518363ffffffff1660e01b8152600401610fb5929190613da8565b600060405180830381600087803b158015610fcf57600080fd5b505af1158015610fe3573d6000803e3d6000fd5b505050505b505050565b60026020528160005260406000206020528060005260406000206000915091509054906101000a900460ff1681565b60435481565b60426020528060005260406000206000915090505481565b60006019604260008473ffffffffffffffffffffffffffffffffffffffff1673ffffffffffffffffffffffffffffffffffffffff168152602001908152602001600020546014811061108857fe5b01549050919050565b600160009054906101000a900473ffffffffffffffffffffffffffffffffffffffff1673ffffffffffffffffffffffffffffffffffffffff1663f0a47f78336040518263ffffffff1660e01b81526004016110ec9190613d64565b60206040518083038186803b15801561110457600080fd5b505afa158015611118573d6000803e3d6000fd5b505050506040513d601f19601f8201168201806040525061113c9190810190613413565b61114557600080fd5b836005906014611156929190612df5565b50826019906014611168929190612e48565b5081602d90601461117a929190612e48565b5080604190601461118c929190612e88565b50600060438190555060008090505b601481101561122e577ff2537ffa858a0d83d85a3f54f39afe79a3edb9141e3802a7bde0b3131b60b8148582601481106111d157fe5b60200201518583601481106111e257fe5b60200201518584601481106111f357fe5b602002015185856014811061120457fe5b60200201516040516112199493929190613e29565b60405180910390a1808060010191505061119b565b5050505050565b600360003373ffffffffffffffffffffffffffffffffffffffff1673ffffffffffffffffffffffffffffffffffffffff16815260200190815260200160002060009054906101000a900473ffffffffffffffffffffffffffffffffffffffff1673ffffffffffffffffffffffffffffffffffffffff16634abda8c8826040518263ffffffff1660e01b81526004016112cd91906140b5565b60206040518083038186803b1580156112e557600080fd5b505afa1580156112f9573d6000803e3d6000fd5b505050506040513d601f19601f8201168201806040525061131d9190810190613413565b61135c576040517f08c379a000000000000000000000000000000000000000000000000000000000815260040161135390613f15565b60405180910390fd5b3073ffffffffffffffffffffffffffffffffffffffff16600360003373ffffffffffffffffffffffffffffffffffffffff1673ffffffffffffffffffffffffffffffffffffffff16815260200190815260200160002060009054906101000a900473ffffffffffffffffffffffffffffffffffffffff1673ffffffffffffffffffffffffffffffffffffffff16636352211e836040518263ffffffff1660e01b815260040161140b91906140b5565b60206040518083038186803b15801561142357600080fd5b505afa158015611437573d6000803e3d6000fd5b505050506040513d601f19601f8201168201806040525061145b9190810190613330565b73ffffffffffffffffffffffffffffffffffffffff1614156114b2576040517f08c379a00000000000000000000000000000000000000000000000000000000081526004016114a990614035565b60405180910390fd5b6000600360003373ffffffffffffffffffffffffffffffffffffffff1673ffffffffffffffffffffffffffffffffffffffff16815260200190815260200160002060009054906101000a900473ffffffffffffffffffffffffffffffffffffffff1673ffffffffffffffffffffffffffffffffffffffff16632f745c593060006040518363ffffffff1660e01b815260040161154f929190613d7f565b60206040518083038186803b15801561156757600080fd5b505afa15801561157b573d6000803e3d6000fd5b505050506040513d601f19601f8201168201806040525061159f9190810190613532565b90503073ffffffffffffffffffffffffffffffffffffffff16600360003373ffffffffffffffffffffffffffffffffffffffff1673ffffffffffffffffffffffffffffffffffffffff16815260200190815260200160002060009054906101000a900473ffffffffffffffffffffffffffffffffffffffff1673ffffffffffffffffffffffffffffffffffffffff166327aa8f31846040518263ffffffff1660e01b815260040161165091906140b5565b60206040518083038186803b15801561166857600080fd5b505afa15801561167c573d6000803e3d6000fd5b505050506040513d601f19601f820116820180604052506116a09190810190613330565b73ffffffffffffffffffffffffffffffffffffffff1614156116f7576040517f08c379a00000000000000000000000000000000000000000000000000000000081526004016116ee90613fb5565b60405180910390fd5b6000600360003373ffffffffffffffffffffffffffffffffffffffff1673ffffffffffffffffffffffffffffffffffffffff16815260200190815260200160002060009054906101000a900473ffffffffffffffffffffffffffffffffffffffff1673ffffffffffffffffffffffffffffffffffffffff16632a4672b2846040518263ffffffff1660e01b815260040161179191906140b5565b60206040518083038186803b1580156117a957600080fd5b505afa1580156117bd573d6000803e3d6000fd5b505050506040513d601f19601f820116820180604052506117e19190810190613532565b905060606117ee33611e88565b905060006117fb33612cf1565b905060006118083361103a565b9050600061181533612140565b90506000809050600360003373ffffffffffffffffffffffffffffffffffffffff1673ffffffffffffffffffffffffffffffffffffffff16815260200190815260200160002060009054906101000a900473ffffffffffffffffffffffffffffffffffffffff1673ffffffffffffffffffffffffffffffffffffffff1663929c13e3838587898c8e6040518763ffffffff1660e01b81526004016118be969594939291906140f9565b602060405180830381600087803b1580156118d857600080fd5b505af192505050801561190957506040513d601f19601f820116820180604052506119069190810190613532565b60015b611916576000905061191c565b50600190505b801561195d576040517f08c379a000000000000000000000000000000000000000000000000000000000815260040161195490614015565b60405180910390fd5b854710156119a0576040517f08c379a000000000000000000000000000000000000000000000000000000000815260040161199790613f95565b60405180910390fd5b600360003373ffffffffffffffffffffffffffffffffffffffff1673ffffffffffffffffffffffffffffffffffffffff16815260200190815260200160002060009054906101000a900473ffffffffffffffffffffffffffffffffffffffff1673ffffffffffffffffffffffffffffffffffffffff1663ff36ed98878a6040518363ffffffff1660e01b8152600401611a3991906140b5565b6000604051808303818588803b158015611a5257600080fd5b505af1158015611a66573d6000803e3d6000fd5b50505050503073ffffffffffffffffffffffffffffffffffffffff16600360003373ffffffffffffffffffffffffffffffffffffffff1673ffffffffffffffffffffffffffffffffffffffff16815260200190815260200160002060009054906101000a900473ffffffffffffffffffffffffffffffffffffffff1673ffffffffffffffffffffffffffffffffffffffff166327aa8f318a6040518263ffffffff1660e01b8152600401611b1a91906140b5565b60206040518083038186803b158015611b3257600080fd5b505afa158015611b46573d6000803e3d6000fd5b505050506040513d601f19601f82011682018060405250611b6a9190810190613330565b73ffffffffffffffffffffffffffffffffffffffff1614611bc0576040517f08c379a0000000000000000000000000000000000000000000000000000000008152600401611bb790614075565b60405180910390fd5b611bca8789612197565b3073ffffffffffffffffffffffffffffffffffffffff16600360003373ffffffffffffffffffffffffffffffffffffffff1673ffffffffffffffffffffffffffffffffffffffff16815260200190815260200160002060009054906101000a900473ffffffffffffffffffffffffffffffffffffffff1673ffffffffffffffffffffffffffffffffffffffff166327aa8f318a6040518263ffffffff1660e01b8152600401611c7991906140b5565b60206040518083038186803b158015611c9157600080fd5b505afa158015611ca5573d6000803e3d6000fd5b505050506040513d601f19601f82011682018060405250611cc99190810190613330565b73ffffffffffffffffffffffffffffffffffffffff161415611d20576040517f08c379a0000000000000000000000000000000000000000000000000000000008152600401611d1790613e95565b60405180910390fd5b600260003373ffffffffffffffffffffffffffffffffffffffff1673ffffffffffffffffffffffffffffffffffffffff16815260200190815260200160002060006049815260200190815260200160002060009054906101000a900460ff16611e7e576001600260003373ffffffffffffffffffffffffffffffffffffffff1673ffffffffffffffffffffffffffffffffffffffff16815260200190815260200160002060006049815260200190815260200160002060006101000a81548160ff021916908315150217905550600160009054906101000a900473ffffffffffffffffffffffffffffffffffffffff1673ffffffffffffffffffffffffffffffffffffffff1663158a49883360016040518363ffffffff1660e01b8152600401611e4b929190613da8565b600060405180830381600087803b158015611e6557600080fd5b505af1158015611e79573d6000803e3d6000fd5b505050505b5050505050505050565b60606005604260008473ffffffffffffffffffffffffffffffffffffffff1673ffffffffffffffffffffffffffffffffffffffff1681526020019081526020016000205460148110611ed657fe5b018054600181600116156101000203166002900480601f016020809104026020016040519081016040528092919081815260200182805460018160011615610100020316600290048015611f6b5780601f10611f4057610100808354040283529160200191611f6b565b820191906000526020600020905b815481529060010190602001808311611f4e57829003601f168201915b50505050509050919050565b606060008090505b60208160ff16108015611fca5750600060f81b838260ff1660208110611fa157fe5b1a60f81b7effffffffffffffffffffffffffffffffffffffffffffffffffffffffffffff191614155b15611fdc578080600101915050611f7f565b60608160ff166040519080825280601f01601f1916602001820160405280156120145781602001600182028038833980820191505090505b509050600091505b60208260ff161080156120675750600060f81b848360ff166020811061203e57fe5b1a60f81b7effffffffffffffffffffffffffffffffffffffffffffffffffffffffffffff191614155b156120ca57838260ff166020811061207b57fe5b1a60f81b818360ff168151811061208e57fe5b60200101907effffffffffffffffffffffffffffffffffffffffffffffffffffffffffffff1916908160001a905350818060010192505061201c565b8092505050919050565b604354604260003373ffffffffffffffffffffffffffffffffffffffff1673ffffffffffffffffffffffffffffffffffffffff16815260200190815260200160002081905550600160436000828254019250508190555060146043541061213e5760006043819055505b565b6000602d604260008473ffffffffffffffffffffffffffffffffffffffff1673ffffffffffffffffffffffffffffffffffffffff168152602001908152602001600020546014811061218e57fe5b01549050919050565b6000600360003373ffffffffffffffffffffffffffffffffffffffff1673ffffffffffffffffffffffffffffffffffffffff16815260200190815260200160002060009054906101000a900473ffffffffffffffffffffffffffffffffffffffff1673ffffffffffffffffffffffffffffffffffffffff166370a08231306040518263ffffffff1660e01b81526004016122319190613d64565b60206040518083038186803b15801561224957600080fd5b505afa15801561225d573d6000803e3d6000fd5b505050506040513d601f19601f820116820180604052506122819190810190613532565b9050606061228e33611e88565b9050600061229b33612cf1565b905060006122a83361103a565b905060006122b533612140565b9050600073ffffffffffffffffffffffffffffffffffffffff16600360003373ffffffffffffffffffffffffffffffffffffffff1673ffffffffffffffffffffffffffffffffffffffff16815260200190815260200160002060009054906101000a900473ffffffffffffffffffffffffffffffffffffffff1673ffffffffffffffffffffffffffffffffffffffff16636352211e896040518263ffffffff1660e01b815260040161236791906140b5565b60206040518083038186803b15801561237f57600080fd5b505afa158015612393573d6000803e3d6000fd5b505050506040513d601f19601f820116820180604052506123b79190810190613330565b73ffffffffffffffffffffffffffffffffffffffff16141561240e576040517f08c379a000000000000000000000000000000000000000000000000000000000815260040161240590613f55565b60405180910390fd5b600073ffffffffffffffffffffffffffffffffffffffff16600360003373ffffffffffffffffffffffffffffffffffffffff1673ffffffffffffffffffffffffffffffffffffffff16815260200190815260200160002060009054906101000a900473ffffffffffffffffffffffffffffffffffffffff1673ffffffffffffffffffffffffffffffffffffffff16636352211e886040518263ffffffff1660e01b81526004016124be91906140b5565b60206040518083038186803b1580156124d657600080fd5b505afa1580156124ea573d6000803e3d6000fd5b505050506040513d601f19601f8201168201806040525061250e9190810190613330565b73ffffffffffffffffffffffffffffffffffffffff161415612565576040517f08c379a000000000000000000000000000000000000000000000000000000000815260040161255c90613f75565b60405180910390fd5b6000600360003373ffffffffffffffffffffffffffffffffffffffff1673ffffffffffffffffffffffffffffffffffffffff16815260200190815260200160002060009054906101000a900473ffffffffffffffffffffffffffffffffffffffff1673ffffffffffffffffffffffffffffffffffffffff1663929c13e3838587898d8d6040518763ffffffff1660e01b8152600401612609969594939291906140f9565b602060405180830381600087803b15801561262357600080fd5b505af1158015612637573d6000803e3d6000fd5b505050506040513d601f19601f8201168201806040525061265b9190810190613532565b90503073ffffffffffffffffffffffffffffffffffffffff16600360003373ffffffffffffffffffffffffffffffffffffffff1673ffffffffffffffffffffffffffffffffffffffff16815260200190815260200160002060009054906101000a900473ffffffffffffffffffffffffffffffffffffffff1673ffffffffffffffffffffffffffffffffffffffff16636352211e836040518263ffffffff1660e01b815260040161270c91906140b5565b60206040518083038186803b15801561272457600080fd5b505afa158015612738573d6000803e3d6000fd5b505050506040513d601f19601f8201168201806040525061275c9190810190613330565b73ffffffffffffffffffffffffffffffffffffffff16146127b2576040517f08c379a00000000000000000000000000000000000000000000000000000000081526004016127a990613fd5565b60405180910390fd5b60018601600360003373ffffffffffffffffffffffffffffffffffffffff1673ffffffffffffffffffffffffffffffffffffffff16815260200190815260200160002060009054906101000a900473ffffffffffffffffffffffffffffffffffffffff1673ffffffffffffffffffffffffffffffffffffffff166370a08231306040518263ffffffff1660e01b815260040161284e9190613d64565b60206040518083038186803b15801561286657600080fd5b505afa15801561287a573d6000803e3d6000fd5b505050506040513d601f19601f8201168201806040525061289e9190810190613532565b146128de576040517f08c379a00000000000000000000000000000000000000000000000000000000081526004016128d590614095565b60405180910390fd5b60606000806000600360003373ffffffffffffffffffffffffffffffffffffffff1673ffffffffffffffffffffffffffffffffffffffff16815260200190815260200160002060009054906101000a900473ffffffffffffffffffffffffffffffffffffffff1673ffffffffffffffffffffffffffffffffffffffff1663b75e0750866040518263ffffffff1660e01b815260040161297d91906140b5565b60006040518083038186803b15801561299557600080fd5b505afa1580156129a9573d6000803e3d6000fd5b505050506040513d6000823e3d601f19601f820116820180604052506129d2919081019061348e565b93509350935093506129e48985612d9c565b80156129f35750821515881515145b80156129fe57508187145b8015612a0957508086145b612a48576040517f08c379a0000000000000000000000000000000000000000000000000000000008152600401612a3f90613f35565b60405180910390fd5b600080600360003373ffffffffffffffffffffffffffffffffffffffff1673ffffffffffffffffffffffffffffffffffffffff16815260200190815260200160002060009054906101000a900473ffffffffffffffffffffffffffffffffffffffff1673ffffffffffffffffffffffffffffffffffffffff1663242a0087886040518263ffffffff1660e01b8152600401612ae391906140b5565b604080518083038186803b158015612afa57600080fd5b505afa158015612b0e573d6000803e3d6000fd5b505050506040513d601f19601f82011682018060405250612b329190810190613597565b915091508d82148015612b4457508c81145b612b83576040517f08c379a0000000000000000000000000000000000000000000000000000000008152600401612b7a90613ff5565b60405180910390fd5b600260003373ffffffffffffffffffffffffffffffffffffffff1673ffffffffffffffffffffffffffffffffffffffff16815260200190815260200160002060006047815260200190815260200160002060009054906101000a900460ff16612ce1576001600260003373ffffffffffffffffffffffffffffffffffffffff1673ffffffffffffffffffffffffffffffffffffffff16815260200190815260200160002060006047815260200190815260200160002060006101000a81548160ff021916908315150217905550600160009054906101000a900473ffffffffffffffffffffffffffffffffffffffff1673ffffffffffffffffffffffffffffffffffffffff1663158a49883360016040518363ffffffff1660e01b8152600401612cae929190613da8565b600060405180830381600087803b158015612cc857600080fd5b505af1158015612cdc573d6000803e3d6000fd5b505050505b5050505050505050505050505050565b60006041604260008473ffffffffffffffffffffffffffffffffffffffff1673ffffffffffffffffffffffffffffffffffffffff1681526020019081526020016000205460148110612d3f57fe5b602091828204019190069054906101000a900460ff169050919050565b60006020528060005260406000206000915054906101000a900460ff1681565b60046020528060005260406000206000915054906101000a900460ff1681565b600081604051602001612daf9190613d4d565b6040516020818303038152906040528051906020012083604051602001612dd69190613d4d565b6040516020818303038152906040528051906020012014905092915050565b8260148101928215612e37579160200282015b82811115612e36578251829080519060200190612e26929190612f21565b5091602001919060010190612e08565b5b509050612e449190612fa1565b5090565b8260148101928215612e77579160200282015b82811115612e76578251825591602001919060010190612e5b565b5b509050612e849190612fcd565b5090565b826014601f01602090048101928215612f105791602002820160005b83821115612ee157835183826101000a81548160ff0219169083151502179055509260200192600101602081600001049283019260010302612ea4565b8015612f0e5782816101000a81549060ff0219169055600101602081600001049283019260010302612ee1565b505b509050612f1d9190612ff2565b5090565b828054600181600116156101000203166002900490600052602060002090601f016020900481019282601f10612f6257805160ff1916838001178555612f90565b82800160010185558215612f90579182015b82811115612f8f578251825591602001919060010190612f74565b5b509050612f9d9190612fcd565b5090565b612fca91905b80821115612fc65760008181612fbd9190613022565b50600101612fa7565b5090565b90565b612fef91905b80821115612feb576000816000905550600101612fd3565b5090565b90565b61301f91905b8082111561301b57600081816101000a81549060ff021916905550600101612ff8565b5090565b90565b50805460018160011615610100020316600290046000825580601f106130485750613067565b601f0160209004906000526020600020908101906130669190612fcd565b5b50565b600081359050613079816143c5565b92915050565b60008151905061308e816143c5565b92915050565b600082601f8301126130a557600080fd5b60146130b86130b38261418e565b614161565b915081838560208402820111156130ce57600080fd5b60005b838110156130fe57816130e488826131e1565b8452602084019350602083019250506001810190506130d1565b5050505092915050565b600082601f83011261311957600080fd5b601461312c613127826141b0565b614161565b9150818360005b8381101561316357813586016131498882613235565b845260208401935060208301925050600181019050613133565b5050505092915050565b600082601f83011261317e57600080fd5b601461319161318c826141d2565b614161565b915081838560208402820111156131a757600080fd5b60005b838110156131d757816131bd88826132dd565b8452602084019350602083019250506001810190506131aa565b5050505092915050565b6000813590506131f0816143dc565b92915050565b600081519050613205816143dc565b92915050565b60008135905061321a816143f3565b92915050565b60008135905061322f8161440a565b92915050565b600082601f83011261324657600080fd5b8135613259613254826141f4565b614161565b9150808252602083016020830185838301111561327557600080fd5b613280838284614372565b50505092915050565b600082601f83011261329a57600080fd5b81516132ad6132a882614220565b614161565b915080825260208301602083018583830111156132c957600080fd5b6132d4838284614381565b50505092915050565b6000813590506132ec81614421565b92915050565b60008151905061330181614421565b92915050565b60006020828403121561331957600080fd5b60006133278482850161306a565b91505092915050565b60006020828403121561334257600080fd5b60006133508482850161307f565b91505092915050565b6000806040838503121561336c57600080fd5b600061337a8582860161306a565b925050602061338b858286016132dd565b9150509250929050565b6000806000806107a085870312156133ac57600080fd5b600085013567ffffffffffffffff8111156133c657600080fd5b6133d287828801613108565b94505060206133e38782880161316d565b9350506102a06133f58782880161316d565b92505061052061340787828801613094565b91505092959194509250565b60006020828403121561342557600080fd5b6000613433848285016131f6565b91505092915050565b60006020828403121561344e57600080fd5b600061345c8482850161320b565b91505092915050565b60006020828403121561347757600080fd5b600061348584828501613220565b91505092915050565b600080600080608085870312156134a457600080fd5b600085015167ffffffffffffffff8111156134be57600080fd5b6134ca87828801613289565b94505060206134db878288016131f6565b93505060406134ec878288016132f2565b92505060606134fd878288016132f2565b91505092959194509250565b60006020828403121561351b57600080fd5b6000613529848285016132dd565b91505092915050565b60006020828403121561354457600080fd5b6000613552848285016132f2565b91505092915050565b6000806040838503121561356e57600080fd5b600061357c858286016132dd565b925050602061358d858286016132dd565b9150509250929050565b600080604083850312156135aa57600080fd5b60006135b8858286016132f2565b92505060206135c9858286016132f2565b9150509250929050565b6135dc816142e2565b82525050565b6135eb81614290565b82525050565b6135fa816142f4565b82525050565b61360981614318565b82525050565b6136188161432a565b82525050565b6136278161433c565b82525050565b600061363882614257565b6136428185614262565b9350613652818560208601614381565b61365b816143b4565b840191505092915050565b600061367182614257565b61367b8185614273565b935061368b818560208601614381565b80840191505092915050565b60006136a28261424c565b6136ac8185614262565b93506136bc818560208601614381565b6136c5816143b4565b840191505092915050565b60006136dd602d83614262565b91507f416e696d616c206e6f7420666f7220617661696c61626c6520666f722072657060008301527f726f64756374696f6e20796574000000000000000000000000000000000000006020830152604082019050919050565b6000613743602183614262565b91507f492073686f756c64206e6f742062652061626c6520746f20726570726f64756360008301527f65000000000000000000000000000000000000000000000000000000000000006020830152604082019050919050565b60006137a9601f83614262565b91507f416e696d616c20726570726f64756374696f6e206e6f74206f666665726564006000830152602082019050919050565b60006137e9602683614262565b91507f416e696d616c20726570726f64756374696f6e20707269636520697320696e6360008301527f6f727265637400000000000000000000000000000000000000000000000000006020830152604082019050919050565b600061384f603983614262565b91507f49207761732061626c6520746f20736574206120707269636520666f7220616e60008301527f20616e696d616c207768696368206973206e6f74206d696e65000000000000006020830152604082019050919050565b60006138b5603183614262565b91507f4f66666572656420616e696d616c206e6f7420617661696c61626c6520666f7260008301527f20726570726f64756374696f6e207965740000000000000000000000000000006020830152604082019050919050565b600061391b603383614262565b91507f4372656174656420616e696d616c20646f65736e2774206861766520636f727260008301527f65637420636861726163746572697374696373000000000000000000000000006020830152604082019050919050565b6000613981601483614262565b91507f506172656e743120686173206e6f206f776e65720000000000000000000000006000830152602082019050919050565b60006139c1601483614262565b91507f506172656e743220686173206e6f206f776e65720000000000000000000000006000830152602082019050919050565b6000613a01602983614262565b91507f596f757220726570726f64756374696f6e20697320746f6f20657870656e736960008301527f766520666f72206d6500000000000000000000000000000000000000000000006020830152604082019050919050565b6000613a67602183614262565b91507f4920616d20616c726561647920616c6c6f77656420746f20726570726f64756360008301527f65000000000000000000000000000000000000000000000000000000000000006020830152604082019050919050565b6000613acd602a83614262565b91507f4372656174656420616e696d616c20646f65736e27742062656c6f6e6720746f60008301527f204576616c7561746f72000000000000000000000000000000000000000000006020830152604082019050919050565b6000613b33602383614262565b91507f506172656e747320617265206e6f742072657472696576656420636f7272656360008301527f746c7900000000000000000000000000000000000000000000000000000000006020830152604082019050919050565b6000613b99602d83614262565b91507f49207761732061626c6520746f20726570726f6475636520616e20756e61766160008301527f696c61626c6520616e696d616c000000000000000000000000000000000000006020830152604082019050919050565b6000613bff602c83614262565b91507f4f66666572656420616e696d616c2073686f756c646e27742062656c6f6e672060008301527f746f204576616c7561746f7200000000000000000000000000000000000000006020830152604082019050919050565b6000613c65601e83614262565b91507f416e696d616c206e6f742073656c6c696e6720686973206173732079657400006000830152602082019050919050565b6000613ca5601d83614262565b91507f4920616d206e6f7420616c6c6f77656420746f20726570726f647563650000006000830152602082019050919050565b6000613ce5602283614262565b91507f4576616c7561746f722062616c616e636520646964206e6f7420696e6372656160008301527f73650000000000000000000000000000000000000000000000000000000000006020830152604082019050919050565b613d47816142d8565b82525050565b6000613d598284613666565b915081905092915050565b6000602082019050613d7960008301846135d3565b92915050565b6000604082019050613d9460008301856135d3565b613da16020830184613600565b9392505050565b6000604082019050613dbd60008301856135d3565b613dca602083018461361e565b9392505050565b6000602082019050613de660008301846135e2565b92915050565b6000602082019050613e0160008301846135f1565b92915050565b60006020820190508181036000830152613e21818461362d565b905092915050565b60006080820190508181036000830152613e438187613697565b9050613e526020830186613d3e565b613e5f6040830185613d3e565b613e6c60608301846135e2565b95945050505050565b60006020820190508181036000830152613e8e816136d0565b9050919050565b60006020820190508181036000830152613eae81613736565b9050919050565b60006020820190508181036000830152613ece8161379c565b9050919050565b60006020820190508181036000830152613eee816137dc565b9050919050565b60006020820190508181036000830152613f0e81613842565b9050919050565b60006020820190508181036000830152613f2e816138a8565b9050919050565b60006020820190508181036000830152613f4e8161390e565b9050919050565b60006020820190508181036000830152613f6e81613974565b9050919050565b60006020820190508181036000830152613f8e816139b4565b9050919050565b60006020820190508181036000830152613fae816139f4565b9050919050565b60006020820190508181036000830152613fce81613a5a565b9050919050565b60006020820190508181036000830152613fee81613ac0565b9050919050565b6000602082019050818103600083015261400e81613b26565b9050919050565b6000602082019050818103600083015261402e81613b8c565b9050919050565b6000602082019050818103600083015261404e81613bf2565b9050919050565b6000602082019050818103600083015261406e81613c58565b9050919050565b6000602082019050818103600083015261408e81613c98565b9050919050565b600060208201905081810360008301526140ae81613cd8565b9050919050565b60006020820190506140ca6000830184613d3e565b92915050565b60006040820190506140e56000830185613d3e565b6140f2602083018461360f565b9392505050565b600060c08201905061410e6000830189613d3e565b61411b6020830188613d3e565b61412860408301876135e2565b818103606083015261413a818661362d565b90506141496080830185613d3e565b61415660a0830184613d3e565b979650505050505050565b6000604051905081810181811067ffffffffffffffff8211171561418457600080fd5b8060405250919050565b600067ffffffffffffffff8211156141a557600080fd5b602082029050919050565b600067ffffffffffffffff8211156141c757600080fd5b602082029050919050565b600067ffffffffffffffff8211156141e957600080fd5b602082029050919050565b600067ffffffffffffffff82111561420b57600080fd5b601f19601f8301169050602081019050919050565b600067ffffffffffffffff82111561423757600080fd5b601f19601f8301169050602081019050919050565b600081519050919050565b600081519050919050565b600082825260208201905092915050565b600081905092915050565b6000614289826142b8565b9050919050565b60008115159050919050565b6000819050919050565b60006142b18261427e565b9050919050565b600073ffffffffffffffffffffffffffffffffffffffff82169050919050565b6000819050919050565b60006142ed8261434e565b9050919050565b60006142ff82614306565b9050919050565b6000614311826142b8565b9050919050565b6000614323826142d8565b9050919050565b6000614335826142d8565b9050919050565b6000614347826142d8565b9050919050565b600061435982614360565b9050919050565b600061436b826142b8565b9050919050565b82818337600083830152505050565b60005b8381101561439f578082015181840152602081019050614384565b838111156143ae576000848401525b50505050565b6000601f19601f8301169050919050565b6143ce8161427e565b81146143d957600080fd5b50565b6143e581614290565b81146143f057600080fd5b50565b6143fc8161429c565b811461440757600080fd5b50565b614413816142a6565b811461441e57600080fd5b50565b61442a816142d8565b811461443557600080fd5b5056fea26469706673582212209059ff50208cbafe0f9f738fe21a0930e3f11668ccf77be2e7ecc2f47a67650564736f6c63430006020033",
  "source": "pragma solidity >=0.6.0;\r\npragma experimental ABIEncoderV2;\r\n\r\nimport \"./ERC20TD.sol\";\r\nimport \"./IExerciceSolution.sol\";\r\n\r\ncontract Evaluator2\r\n{\r\n\r\n\tmapping(address => bool) public teachers;\r\n\tERC20TD TDERC20;\r\n\r\n \tmapping(address => mapping(uint256 => bool)) public exerciceProgression;\r\n \tmapping(address => IExerciceSolution) public studentExerciceSolution;\r\n \tmapping(address => bool) public hasBeenPaired;\r\n \t\r\n\tstring[20] private randomNames;\r\n\tuint256[20] private randomLegs;\r\n\tuint256[20] private randomSex;\r\n\tbool[20] private randomWings;\r\n\tmapping(address => uint256) public assignedRank;\r\n\tuint public nextValueStoreRank;\r\n\r\n \tevent newRandomAnimalAttributes(string name, uint256 legs, uint256 sex, bool wings);\r\n \tevent constructedCorrectly(address erc20Address);\r\n\t\r\n\tconstructor(ERC20TD _TDERC20) \r\n\tpublic \r\n\t{\r\n\t\tTDERC20 = _TDERC20;\r\n\t\temit constructedCorrectly(address(TDERC20));\r\n\t}\r\n\r\n\tfallback () external payable \r\n\t{}\r\n\r\n\treceive () external payable \r\n\t{}\r\n\r\n\tfunction ex2a_getAnimalToCreateAttributes()\r\n\tpublic\r\n\t{\r\n\t\tassignedRank[msg.sender] = nextValueStoreRank;\r\n\t\tnextValueStoreRank += 1;\r\n\t\tif (nextValueStoreRank >= 20)\r\n\t\t{\r\n\t\t\tnextValueStoreRank = 0;\r\n\t\t}\r\n\t}\r\n\r\n\tfunction ex7a_breedAnimalWithParents(uint parent1, uint parent2)\r\n\tpublic\r\n\t{\r\n\t\t// Declare animal with parents\r\n\r\n\t\t// Verify that contract is a registeredBreeder \r\n\t\tuint256 initBalance = studentExerciceSolution[msg.sender].balanceOf(address(this));\r\n\t\tstring memory name = readName(msg.sender);\r\n\t\tbool wings = readWings(msg.sender);\r\n\t\tuint legs = readLegs(msg.sender);\r\n\t\tuint sex = readSex(msg.sender);\r\n\r\n\t\t// Check if parents exist\r\n\t\trequire(studentExerciceSolution[msg.sender].ownerOf(parent1) != address(0), \"Parent1 has no owner\");\r\n\t\trequire(studentExerciceSolution[msg.sender].ownerOf(parent2) != address(0), \"Parent2 has no owner\");\r\n\r\n\t\t// Declare an animal with parents\r\n\t\tuint animalNumber = studentExerciceSolution[msg.sender].declareAnimalWithParents(sex, legs, wings, name, parent1, parent2);\r\n\t\t\r\n\t\t// Check animal belongs to Evaluator\r\n\t\trequire(studentExerciceSolution[msg.sender].ownerOf(animalNumber) == address(this), \"Created animal doesn't belong to Evaluator\");\r\n\t\trequire(studentExerciceSolution[msg.sender].balanceOf(address(this)) == initBalance + 1, \"Evaluator balance did not increase\");\r\n\r\n\t\t// Check that properties are visible \r\n\t\t(string memory _name, bool _wings, uint _legs, uint _sex) = studentExerciceSolution[msg.sender].getAnimalCharacteristics(animalNumber);\r\n\t\trequire(_compareStrings(name,_name) && (wings == _wings) && (legs == _legs) && (sex == _sex), \"Created animal doesn't have correct characteristics\");\r\n\t\t(uint parent1_, uint parent2_) = studentExerciceSolution[msg.sender].getParents(animalNumber);\r\n\t\trequire((parent1_ == parent1) && (parent2_ == parent2), \"Parents are not retrieved correctly\");\r\n\r\n\t\t// Crediting points\r\n\t\tif (!exerciceProgression[msg.sender][71])\r\n\t\t{\r\n\t\t\texerciceProgression[msg.sender][71] = true;\r\n\t\t\tTDERC20.distributeTokens(msg.sender, 1);\r\n\t\t}\r\n\t}\r\n\r\n\tfunction ex7b_offerAnimalForReproduction()\r\n\tpublic\r\n\t{\r\n\t\t// Offer an animal for reproduction. Evaluator must hold at least one animal.\r\n\t\t// Getting an animal id of Evaluator\r\n\t\tuint animalNumber = studentExerciceSolution[msg.sender].tokenOfOwnerByIndex(address(this), 0);\r\n\r\n\t\t// Testing that animal is not for reproduction yet\r\n\t\trequire(!studentExerciceSolution[msg.sender].canReproduce(animalNumber), \"Animal not for available for reproduction yet\" );\r\n\t\trequire(studentExerciceSolution[msg.sender].reproductionPrice(animalNumber) == 0, \"Animal not selling his ass yet\");\r\n\r\n        // Offering animal for reproduction\r\n        studentExerciceSolution[msg.sender].offerForReproduction(animalNumber, 0.0001 ether);\r\n\r\n        // Checking it is for reproduction\r\n        require(studentExerciceSolution[msg.sender].canReproduce(animalNumber), \"Animal reproduction not offered\" );\r\n\t\trequire(studentExerciceSolution[msg.sender].reproductionPrice(animalNumber) == 0.0001 ether, \"Animal reproduction price is incorrect\");\r\n\r\n\t\t// Try to set a reproduction for animals that's not ours. Sender should have an animal\r\n\t\tuint animalNumber2 = studentExerciceSolution[msg.sender].tokenOfOwnerByIndex(msg.sender, 0);\r\n\r\n        bool wasFeinteAccepted = false;\r\n\t\ttry studentExerciceSolution[msg.sender].offerForReproduction(animalNumber2, 0.0001 ether)\r\n\t\t{\r\n\t\t\twasFeinteAccepted = true;\r\n        } \r\n        catch \r\n        {\r\n            // This is executed in case revert() was used.\r\n            wasFeinteAccepted = false;\r\n        }\r\n        require(!wasFeinteAccepted, \"I was able to set a price for an animal which is not mine\");\r\n\r\n\t\t// Crediting points\r\n\t\tif (!exerciceProgression[msg.sender][72])\r\n\t\t{\r\n\t\t\texerciceProgression[msg.sender][72] = true;\r\n\t\t\tTDERC20.distributeTokens(msg.sender, 1);\r\n\t\t}\r\n\t}\r\n\r\n\tfunction ex7c_payForReproduction(uint animalAvailableForReproduction)\r\n\tpublic\r\n\t{\r\n\t\t// Check animal is available for reproduction\r\n\t\trequire(studentExerciceSolution[msg.sender].canReproduce(animalAvailableForReproduction), \"Offered animal not available for reproduction yet\" );\r\n\t\t\r\n\t\t// Checking animal is not ours \r\n\t\trequire(studentExerciceSolution[msg.sender].ownerOf(animalAvailableForReproduction) != address(this), \"Offered animal shouldn't belong to Evaluator\");\r\n\r\n\t\t// Selecting one of our animal for reproduction\r\n\t\tuint animalNumber = studentExerciceSolution[msg.sender].tokenOfOwnerByIndex(address(this), 0);\r\n\r\n\t\t// Check we are not able to reproduce yet\r\n\t\trequire(studentExerciceSolution[msg.sender].authorizedBreederToReproduce(animalAvailableForReproduction) != address(this), \"I am already allowed to reproduce\");\r\n\t\tuint reproductionPrice = studentExerciceSolution[msg.sender].reproductionPrice(animalAvailableForReproduction);\r\n\r\n\t\t// Try to reproduce without paying\r\n\t\tstring memory name = readName(msg.sender);\r\n\t\tbool wings = readWings(msg.sender);\r\n\t\tuint legs = readLegs(msg.sender);\r\n\t\tuint sex = readSex(msg.sender);\r\n\r\n\t\tbool wasReproductionAccepted = false;\r\n\t\ttry studentExerciceSolution[msg.sender].declareAnimalWithParents(sex, legs, wings, name, animalNumber, animalAvailableForReproduction)\r\n\t\t{\r\n\t\t\twasReproductionAccepted = true;\r\n        } \r\n        catch \r\n        {\r\n            // This is executed in case revert() was used.\r\n            wasReproductionAccepted = false;\r\n        }\r\n        require(!wasReproductionAccepted, \"I was able to reproduce an unavailable animal\");\r\n\r\n        \r\n\t\t// Pay for reproduction\r\n\t\trequire(address(this).balance >= reproductionPrice, \"Your reproduction is too expensive for me\");\r\n\t\tstudentExerciceSolution[msg.sender].payForReproduction.value(reproductionPrice)(animalAvailableForReproduction);\t\t\r\n\t\trequire(studentExerciceSolution[msg.sender].authorizedBreederToReproduce(animalAvailableForReproduction) == address(this), \"I am not allowed to reproduce\");\r\n\r\n\t\t// Reproduce\r\n\t\tex7a_breedAnimalWithParents(animalNumber, animalAvailableForReproduction);\r\n\t\trequire(studentExerciceSolution[msg.sender].authorizedBreederToReproduce(animalAvailableForReproduction) != address(this), \"I should not be able to reproduce\");\r\n\r\n\t\t// Crediting points\r\n\t\tif (!exerciceProgression[msg.sender][73])\r\n\t\t{\r\n\t\t\texerciceProgression[msg.sender][73] = true;\r\n\t\t\tTDERC20.distributeTokens(msg.sender, 1);\r\n\t\t}\r\n\r\n\t}\r\n\r\n\t/* Internal functions and modifiers */\r\n\tfunction submitExercice(IExerciceSolution studentExercice)\r\n\tpublic\r\n\t{\r\n\t\t// Checking this contract was not used by another group before\r\n\t\trequire(!hasBeenPaired[address(studentExercice)]);\r\n\r\n\t\t// Assigning passed ERC20 as student ERC20\r\n\t\tstudentExerciceSolution[msg.sender] = studentExercice;\r\n\t\thasBeenPaired[address(studentExercice)] = true;\r\n\t}\r\n\r\n\tmodifier onlyTeachers() \r\n\t{\r\n\r\n\t    require(TDERC20.teachers(msg.sender));\r\n\t    _;\r\n\t}\r\n\r\n\tfunction _compareStrings(string memory a, string memory b) \r\n\tinternal \r\n\tpure \r\n\treturns (bool) \r\n\t{\r\n    \treturn (keccak256(abi.encodePacked((a))) == keccak256(abi.encodePacked((b))));\r\n\t}\r\n\r\n\tfunction bytes32ToString(bytes32 _bytes32) \r\n\tpublic \r\n\tpure returns (string memory) \r\n\t{\r\n        uint8 i = 0;\r\n        while(i < 32 && _bytes32[i] != 0) {\r\n            i++;\r\n        }\r\n        bytes memory bytesArray = new bytes(i);\r\n        for (i = 0; i < 32 && _bytes32[i] != 0; i++) {\r\n            bytesArray[i] = _bytes32[i];\r\n        }\r\n        return string(bytesArray);\r\n    }\r\n\r\n    function readName(address studentAddres)\r\n\tpublic\r\n\tview\r\n\treturns(string memory)\r\n\t{\r\n\t\treturn randomNames[assignedRank[studentAddres]];\r\n\t}\r\n\r\n\tfunction readLegs(address studentAddres)\r\n\tpublic\r\n\tview\r\n\treturns(uint256)\r\n\t{\r\n\t\treturn randomLegs[assignedRank[studentAddres]];\r\n\t}\r\n\r\n\tfunction readSex(address studentAddres)\r\n\tpublic\r\n\tview\r\n\treturns(uint256)\r\n\t{\r\n\t\treturn randomSex[assignedRank[studentAddres]];\r\n\t}\r\n\r\n\tfunction readWings(address studentAddres)\r\n\tpublic\r\n\tview\r\n\treturns(bool)\r\n\t{\r\n\t\treturn randomWings[assignedRank[studentAddres]];\r\n\t}\r\n\r\n\tfunction setRandomValuesStore(string[20] memory _randomNames, uint256[20] memory _randomLegs, uint256[20] memory _randomSex, bool[20] memory _randomWings) \r\n\tpublic \r\n\tonlyTeachers\r\n\t{\r\n\t\trandomNames = _randomNames;\r\n\t\trandomLegs = _randomLegs;\r\n\t\trandomSex = _randomSex;\r\n\t\trandomWings = _randomWings;\r\n\t\tnextValueStoreRank = 0;\r\n\t\tfor (uint i = 0; i < 20; i++)\r\n\t\t{\r\n\t\t\temit newRandomAnimalAttributes(_randomNames[i], _randomLegs[i], _randomSex[i], _randomWings[i]);\r\n\t\t}\r\n\t}\r\n\r\n}",
  "sourcePath": "C:\\Users\\lenovo\\Desktop\\ESILV\\Blockchain Programming\\td\\erc721-101\\contracts\\Evaluator2.sol",
  "compiler": {
    "name": "solc",
    "version": "0.6.2+commit.bacdbe57.Emscripten.clang"
  },
  "schemaVersion": "3.4.3",
  "updatedAt": "2021-12-14T12:24:05.815Z",
  "devdoc": {
    "methods": {}
  },
  "userdoc": {
    "methods": {}
  }
}