{
  "contractName": "IExerciceSolution",
  "abi": [
    {
      "inputs": [
        {
          "internalType": "string",
          "name": "name_",
          "type": "string"
        },
        {
          "internalType": "string",
          "name": "symbol_",
          "type": "string"
        },
        {
          "internalType": "uint256",
          "name": "_price",
          "type": "uint256"
        }
      ],
      "stateMutability": "nonpayable",
      "type": "constructor"
    },
    {
      "anonymous": false,
      "inputs": [
        {
          "indexed": true,
          "internalType": "address",
          "name": "owner",
          "type": "address"
        },
        {
          "indexed": true,
          "internalType": "address",
          "name": "approved",
          "type": "address"
        },
        {
          "indexed": true,
          "internalType": "uint256",
          "name": "tokenId",
          "type": "uint256"
        }
      ],
      "name": "Approval",
      "type": "event"
    },
    {
      "anonymous": false,
      "inputs": [
        {
          "indexed": true,
          "internalType": "address",
          "name": "owner",
          "type": "address"
        },
        {
          "indexed": true,
          "internalType": "address",
          "name": "operator",
          "type": "address"
        },
        {
          "indexed": false,
          "internalType": "bool",
          "name": "approved",
          "type": "bool"
        }
      ],
      "name": "ApprovalForAll",
      "type": "event"
    },
    {
      "anonymous": false,
      "inputs": [
        {
          "indexed": true,
          "internalType": "address",
          "name": "from",
          "type": "address"
        },
        {
          "indexed": true,
          "internalType": "address",
          "name": "to",
          "type": "address"
        },
        {
          "indexed": true,
          "internalType": "uint256",
          "name": "tokenId",
          "type": "uint256"
        }
      ],
      "name": "Transfer",
      "type": "event"
    },
    {
      "inputs": [
        {
          "internalType": "uint256",
          "name": "",
          "type": "uint256"
        }
      ],
      "name": "animals",
      "outputs": [
        {
          "internalType": "string",
          "name": "_name",
          "type": "string"
        },
        {
          "internalType": "uint256",
          "name": "_legs",
          "type": "uint256"
        },
        {
          "internalType": "uint256",
          "name": "_sex",
          "type": "uint256"
        },
        {
          "internalType": "bool",
          "name": "_wings",
          "type": "bool"
        }
      ],
      "stateMutability": "view",
      "type": "function"
    },
    {
      "inputs": [
        {
          "internalType": "uint256",
          "name": "",
          "type": "uint256"
        }
      ],
      "name": "animalsOnSale",
      "outputs": [
        {
          "internalType": "uint256",
          "name": "",
          "type": "uint256"
        }
      ],
      "stateMutability": "view",
      "type": "function"
    },
    {
      "inputs": [
        {
          "internalType": "address",
          "name": "to",
          "type": "address"
        },
        {
          "internalType": "uint256",
          "name": "tokenId",
          "type": "uint256"
        }
      ],
      "name": "approve",
      "outputs": [],
      "stateMutability": "nonpayable",
      "type": "function"
    },
    {
      "inputs": [
        {
          "internalType": "address",
          "name": "owner",
          "type": "address"
        }
      ],
      "name": "balanceOf",
      "outputs": [
        {
          "internalType": "uint256",
          "name": "",
          "type": "uint256"
        }
      ],
      "stateMutability": "view",
      "type": "function"
    },
    {
      "inputs": [],
      "name": "baseURI",
      "outputs": [
        {
          "internalType": "string",
          "name": "",
          "type": "string"
        }
      ],
      "stateMutability": "view",
      "type": "function"
    },
    {
      "inputs": [
        {
          "internalType": "address",
          "name": "",
          "type": "address"
        }
      ],
      "name": "breeders",
      "outputs": [
        {
          "internalType": "bool",
          "name": "",
          "type": "bool"
        }
      ],
      "stateMutability": "view",
      "type": "function"
    },
    {
      "inputs": [
        {
          "internalType": "uint256",
          "name": "",
          "type": "uint256"
        }
      ],
      "name": "childToParents",
      "outputs": [
        {
          "internalType": "uint256",
          "name": "_parent1",
          "type": "uint256"
        },
        {
          "internalType": "uint256",
          "name": "_parent2",
          "type": "uint256"
        }
      ],
      "stateMutability": "view",
      "type": "function"
    },
    {
      "inputs": [
        {
          "internalType": "uint256",
          "name": "tokenId",
          "type": "uint256"
        }
      ],
      "name": "getApproved",
      "outputs": [
        {
          "internalType": "address",
          "name": "",
          "type": "address"
        }
      ],
      "stateMutability": "view",
      "type": "function"
    },
    {
      "inputs": [
        {
          "internalType": "address",
          "name": "owner",
          "type": "address"
        },
        {
          "internalType": "address",
          "name": "operator",
          "type": "address"
        }
      ],
      "name": "isApprovedForAll",
      "outputs": [
        {
          "internalType": "bool",
          "name": "",
          "type": "bool"
        }
      ],
      "stateMutability": "view",
      "type": "function"
    },
    {
      "inputs": [],
      "name": "name",
      "outputs": [
        {
          "internalType": "string",
          "name": "",
          "type": "string"
        }
      ],
      "stateMutability": "view",
      "type": "function"
    },
    {
      "inputs": [],
      "name": "owner",
      "outputs": [
        {
          "internalType": "address",
          "name": "",
          "type": "address"
        }
      ],
      "stateMutability": "view",
      "type": "function"
    },
    {
      "inputs": [
        {
          "internalType": "uint256",
          "name": "tokenId",
          "type": "uint256"
        }
      ],
      "name": "ownerOf",
      "outputs": [
        {
          "internalType": "address",
          "name": "",
          "type": "address"
        }
      ],
      "stateMutability": "view",
      "type": "function"
    },
    {
      "inputs": [],
      "name": "priceBreeder",
      "outputs": [
        {
          "internalType": "uint256",
          "name": "",
          "type": "uint256"
        }
      ],
      "stateMutability": "view",
      "type": "function"
    },
    {
      "inputs": [
        {
          "internalType": "address",
          "name": "from",
          "type": "address"
        },
        {
          "internalType": "address",
          "name": "to",
          "type": "address"
        },
        {
          "internalType": "uint256",
          "name": "tokenId",
          "type": "uint256"
        }
      ],
      "name": "safeTransferFrom",
      "outputs": [],
      "stateMutability": "nonpayable",
      "type": "function"
    },
    {
      "inputs": [
        {
          "internalType": "address",
          "name": "from",
          "type": "address"
        },
        {
          "internalType": "address",
          "name": "to",
          "type": "address"
        },
        {
          "internalType": "uint256",
          "name": "tokenId",
          "type": "uint256"
        },
        {
          "internalType": "bytes",
          "name": "_data",
          "type": "bytes"
        }
      ],
      "name": "safeTransferFrom",
      "outputs": [],
      "stateMutability": "nonpayable",
      "type": "function"
    },
    {
      "inputs": [
        {
          "internalType": "address",
          "name": "operator",
          "type": "address"
        },
        {
          "internalType": "bool",
          "name": "approved",
          "type": "bool"
        }
      ],
      "name": "setApprovalForAll",
      "outputs": [],
      "stateMutability": "nonpayable",
      "type": "function"
    },
    {
      "inputs": [
        {
          "internalType": "bytes4",
          "name": "interfaceId",
          "type": "bytes4"
        }
      ],
      "name": "supportsInterface",
      "outputs": [
        {
          "internalType": "bool",
          "name": "",
          "type": "bool"
        }
      ],
      "stateMutability": "view",
      "type": "function"
    },
    {
      "inputs": [],
      "name": "symbol",
      "outputs": [
        {
          "internalType": "string",
          "name": "",
          "type": "string"
        }
      ],
      "stateMutability": "view",
      "type": "function"
    },
    {
      "inputs": [
        {
          "internalType": "uint256",
          "name": "index",
          "type": "uint256"
        }
      ],
      "name": "tokenByIndex",
      "outputs": [
        {
          "internalType": "uint256",
          "name": "",
          "type": "uint256"
        }
      ],
      "stateMutability": "view",
      "type": "function"
    },
    {
      "inputs": [
        {
          "internalType": "address",
          "name": "owner",
          "type": "address"
        },
        {
          "internalType": "uint256",
          "name": "index",
          "type": "uint256"
        }
      ],
      "name": "tokenOfOwnerByIndex",
      "outputs": [
        {
          "internalType": "uint256",
          "name": "",
          "type": "uint256"
        }
      ],
      "stateMutability": "view",
      "type": "function"
    },
    {
      "inputs": [
        {
          "internalType": "uint256",
          "name": "tokenId",
          "type": "uint256"
        }
      ],
      "name": "tokenURI",
      "outputs": [
        {
          "internalType": "string",
          "name": "",
          "type": "string"
        }
      ],
      "stateMutability": "view",
      "type": "function"
    },
    {
      "inputs": [],
      "name": "totalSupply",
      "outputs": [
        {
          "internalType": "uint256",
          "name": "",
          "type": "uint256"
        }
      ],
      "stateMutability": "view",
      "type": "function"
    },
    {
      "inputs": [
        {
          "internalType": "address",
          "name": "from",
          "type": "address"
        },
        {
          "internalType": "address",
          "name": "to",
          "type": "address"
        },
        {
          "internalType": "uint256",
          "name": "tokenId",
          "type": "uint256"
        }
      ],
      "name": "transferFrom",
      "outputs": [],
      "stateMutability": "nonpayable",
      "type": "function"
    },
    {
      "inputs": [],
      "name": "getCurrentId",
      "outputs": [
        {
          "internalType": "uint256",
          "name": "",
          "type": "uint256"
        }
      ],
      "stateMutability": "view",
      "type": "function"
    },
    {
      "inputs": [
        {
          "internalType": "address",
          "name": "_to",
          "type": "address"
        }
      ],
      "name": "mint",
      "outputs": [],
      "stateMutability": "nonpayable",
      "type": "function"
    },
    {
      "inputs": [
        {
          "internalType": "uint256",
          "name": "id",
          "type": "uint256"
        },
        {
          "internalType": "string",
          "name": "_name",
          "type": "string"
        },
        {
          "internalType": "uint256",
          "name": "_legs",
          "type": "uint256"
        },
        {
          "internalType": "uint256",
          "name": "_sex",
          "type": "uint256"
        },
        {
          "internalType": "bool",
          "name": "_wings",
          "type": "bool"
        }
      ],
      "name": "setAttribute",
      "outputs": [],
      "stateMutability": "nonpayable",
      "type": "function"
    },
    {
      "inputs": [
        {
          "internalType": "address",
          "name": "account",
          "type": "address"
        }
      ],
      "name": "isBreeder",
      "outputs": [
        {
          "internalType": "bool",
          "name": "",
          "type": "bool"
        }
      ],
      "stateMutability": "view",
      "type": "function"
    },
    {
      "inputs": [],
      "name": "registrationPrice",
      "outputs": [
        {
          "internalType": "uint256",
          "name": "",
          "type": "uint256"
        }
      ],
      "stateMutability": "view",
      "type": "function"
    },
    {
      "inputs": [],
      "name": "registerMeAsBreeder",
      "outputs": [],
      "stateMutability": "payable",
      "type": "function"
    },
    {
      "inputs": [
        {
          "internalType": "address",
          "name": "futureBreeder",
          "type": "address"
        }
      ],
      "name": "declareAsBreeder",
      "outputs": [],
      "stateMutability": "nonpayable",
      "type": "function"
    },
    {
      "inputs": [
        {
          "internalType": "uint256",
          "name": "animalNumber",
          "type": "uint256"
        }
      ],
      "name": "getAnimalCharacteristics",
      "outputs": [
        {
          "internalType": "string",
          "name": "_name",
          "type": "string"
        },
        {
          "internalType": "bool",
          "name": "_wings",
          "type": "bool"
        },
        {
          "internalType": "uint256",
          "name": "_legs",
          "type": "uint256"
        },
        {
          "internalType": "uint256",
          "name": "_sex",
          "type": "uint256"
        }
      ],
      "stateMutability": "view",
      "type": "function"
    },
    {
      "inputs": [
        {
          "internalType": "uint256",
          "name": "sex",
          "type": "uint256"
        },
        {
          "internalType": "uint256",
          "name": "legs",
          "type": "uint256"
        },
        {
          "internalType": "bool",
          "name": "wings",
          "type": "bool"
        },
        {
          "internalType": "string",
          "name": "name",
          "type": "string"
        }
      ],
      "name": "declareAnimal",
      "outputs": [
        {
          "internalType": "uint256",
          "name": "",
          "type": "uint256"
        }
      ],
      "stateMutability": "nonpayable",
      "type": "function"
    },
    {
      "inputs": [
        {
          "internalType": "uint256",
          "name": "sex",
          "type": "uint256"
        },
        {
          "internalType": "uint256",
          "name": "legs",
          "type": "uint256"
        },
        {
          "internalType": "bool",
          "name": "wings",
          "type": "bool"
        },
        {
          "internalType": "string",
          "name": "name",
          "type": "string"
        },
        {
          "internalType": "address",
          "name": "_to",
          "type": "address"
        }
      ],
      "name": "declareAnimalToSomeone",
      "outputs": [
        {
          "internalType": "uint256",
          "name": "",
          "type": "uint256"
        }
      ],
      "stateMutability": "nonpayable",
      "type": "function"
    },
    {
      "inputs": [
        {
          "internalType": "uint256",
          "name": "animalNumber",
          "type": "uint256"
        }
      ],
      "name": "declareDeadAnimal",
      "outputs": [],
      "stateMutability": "nonpayable",
      "type": "function"
    },
    {
      "inputs": [
        {
          "internalType": "uint256",
          "name": "animalNumber",
          "type": "uint256"
        }
      ],
      "name": "isAnimalForSale",
      "outputs": [
        {
          "internalType": "bool",
          "name": "",
          "type": "bool"
        }
      ],
      "stateMutability": "view",
      "type": "function"
    },
    {
      "inputs": [
        {
          "internalType": "uint256",
          "name": "animalNumber",
          "type": "uint256"
        }
      ],
      "name": "animalPrice",
      "outputs": [
        {
          "internalType": "uint256",
          "name": "",
          "type": "uint256"
        }
      ],
      "stateMutability": "view",
      "type": "function"
    },
    {
      "inputs": [
        {
          "internalType": "uint256",
          "name": "animalNumber",
          "type": "uint256"
        }
      ],
      "name": "buyAnimal",
      "outputs": [],
      "stateMutability": "payable",
      "type": "function"
    },
    {
      "inputs": [
        {
          "internalType": "uint256",
          "name": "animalNumber",
          "type": "uint256"
        },
        {
          "internalType": "uint256",
          "name": "price",
          "type": "uint256"
        }
      ],
      "name": "offerForSale",
      "outputs": [],
      "stateMutability": "nonpayable",
      "type": "function"
    },
    {
      "inputs": [
        {
          "internalType": "uint256",
          "name": "sex",
          "type": "uint256"
        },
        {
          "internalType": "uint256",
          "name": "legs",
          "type": "uint256"
        },
        {
          "internalType": "bool",
          "name": "wings",
          "type": "bool"
        },
        {
          "internalType": "string",
          "name": "name",
          "type": "string"
        },
        {
          "internalType": "uint256",
          "name": "parent1",
          "type": "uint256"
        },
        {
          "internalType": "uint256",
          "name": "parent2",
          "type": "uint256"
        }
      ],
      "name": "declareAnimalWithParents",
      "outputs": [
        {
          "internalType": "uint256",
          "name": "",
          "type": "uint256"
        }
      ],
      "stateMutability": "nonpayable",
      "type": "function"
    },
    {
      "inputs": [
        {
          "internalType": "uint256",
          "name": "animalNumber",
          "type": "uint256"
        }
      ],
      "name": "getParents",
      "outputs": [
        {
          "internalType": "uint256",
          "name": "",
          "type": "uint256"
        },
        {
          "internalType": "uint256",
          "name": "",
          "type": "uint256"
        }
      ],
      "stateMutability": "view",
      "type": "function"
    },
    {
      "inputs": [
        {
          "internalType": "uint256",
          "name": "animalNumber",
          "type": "uint256"
        }
      ],
      "name": "canReproduce",
      "outputs": [
        {
          "internalType": "bool",
          "name": "",
          "type": "bool"
        }
      ],
      "stateMutability": "view",
      "type": "function"
    },
    {
      "inputs": [
        {
          "internalType": "uint256",
          "name": "animalNumber",
          "type": "uint256"
        }
      ],
      "name": "reproductionPrice",
      "outputs": [
        {
          "internalType": "uint256",
          "name": "",
          "type": "uint256"
        }
      ],
      "stateMutability": "view",
      "type": "function"
    },
    {
      "inputs": [
        {
          "internalType": "uint256",
          "name": "animalNumber",
          "type": "uint256"
        },
        {
          "internalType": "uint256",
          "name": "priceOfReproduction",
          "type": "uint256"
        }
      ],
      "name": "offerForReproduction",
      "outputs": [
        {
          "internalType": "uint256",
          "name": "",
          "type": "uint256"
        }
      ],
      "stateMutability": "nonpayable",
      "type": "function"
    },
    {
      "inputs": [
        {
          "internalType": "uint256",
          "name": "animalNumber",
          "type": "uint256"
        }
      ],
      "name": "authorizedBreederToReproduce",
      "outputs": [
        {
          "internalType": "address",
          "name": "",
          "type": "address"
        }
      ],
      "stateMutability": "view",
      "type": "function"
    },
    {
      "inputs": [
        {
          "internalType": "uint256",
          "name": "animalNumber",
          "type": "uint256"
        }
      ],
      "name": "payForReproduction",
      "outputs": [],
      "stateMutability": "payable",
      "type": "function"
    }
  ],
  "bytecode": "0x60806040523480156200001157600080fd5b5060405162004eac38038062004eac833981810160405260608110156200003757600080fd5b81019080805160405193929190846401000000008211156200005857600080fd5b838201915060208201858111156200006f57600080fd5b82518660018202830111640100000000821117156200008d57600080fd5b8083526020830192505050908051906020019080838360005b83811015620000c3578082015181840152602081019050620000a6565b50505050905090810190601f168015620000f15780820380516001836020036101000a031916815260200191505b50604052602001805160405193929190846401000000008211156200011557600080fd5b838201915060208201858111156200012c57600080fd5b82518660018202830111640100000000821117156200014a57600080fd5b8083526020830192505050908051906020019080838360005b838110156200018057808201518184015260208101905062000163565b50505050905090810190601f168015620001ae5780820380516001836020036101000a031916815260200191505b50604052602001805190602001909291905050508282620001dc6301ffc9a760e01b6200030960201b60201c565b8160069080519060200190620001f492919062000412565b5080600790805190602001906200020d92919062000412565b50620002266380ac58cd60e01b6200030960201b60201c565b6200023e635b5e139f60e01b6200030960201b60201c565b6200025663780e9d6360e01b6200030960201b60201c565b505033600a60006101000a81548173ffffffffffffffffffffffffffffffffffffffff021916908373ffffffffffffffffffffffffffffffffffffffff1602179055506001600e60003373ffffffffffffffffffffffffffffffffffffffff1673ffffffffffffffffffffffffffffffffffffffff16815260200190815260200160002060006101000a81548160ff02191690831515021790555080600b819055506000600c81905550505050620004c1565b63ffffffff60e01b817bffffffffffffffffffffffffffffffffffffffffffffffffffffffff19161415620003a6576040517f08c379a000000000000000000000000000000000000000000000000000000000815260040180806020018281038252601c8152602001807f4552433136353a20696e76616c696420696e746572666163652069640000000081525060200191505060405180910390fd5b6001600080837bffffffffffffffffffffffffffffffffffffffffffffffffffffffff19167bffffffffffffffffffffffffffffffffffffffffffffffffffffffff1916815260200190815260200160002060006101000a81548160ff02191690831515021790555050565b828054600181600116156101000203166002900490600052602060002090601f016020900481019282601f106200045557805160ff191683800117855562000486565b8280016001018555821562000486579182015b828111156200048557825182559160200191906001019062000468565b5b50905062000495919062000499565b5090565b620004be91905b80821115620004ba576000816000905550600101620004a0565b5090565b90565b6149db80620004d16000396000f3fe6080604052600436106102725760003560e01c80636c0360eb1161014f578063a0c32c8f116100c1578063c7b9cb0b1161007a578063c7b9cb0b1461142c578063c87b56dd14611495578063e985e9c514611549578063ec897772146115d2578063eff3cb591461160d578063ff36ed981461166357610272565b8063a0c32c8f14611028578063a22cb46514611081578063b75e0750146110de578063b88d4fde146111ab578063c5f51f73146112bd578063c6dfa40c1461131057610272565b80638631cf8b116101135780638631cf8b14610c895780638b18385014610cb45780638da5cb5b14610da6578063929c13e314610dfd57806395d89b4114610ecb578063998dd3ca14610f5b57610272565b80636c0360eb14610ad55780636c14386214610b6557806370a0823114610b9057806377386df314610bf55780637cdf250b14610c3a57610272565b806327aa8f31116101e857806341d30bae116101ac57806341d30bae146108e257806342842e0e146108ec5780634abda8c8146109675780634f6ccce7146109ba5780636352211e14610a095780636a62784214610a8457610272565b806327aa8f311461065e5780632a4672b2146106d95780632f745c591461072857806332b0f376146107975780633573dbd11461089357610272565b80631a14e94a1161023a5780631a14e94a1461047a578063214e7f32146104a857806321658658146104f9578063229fbb561461052457806323b872dd1461058d578063242a00871461060857610272565b806301ffc9a71461027757806306fdde03146102e9578063081812fc14610379578063095ea7b3146103f457806318160ddd1461044f575b600080fd5b34801561028357600080fd5b506102cf6004803603602081101561029a57600080fd5b8101908080357bffffffffffffffffffffffffffffffffffffffffffffffffffffffff19169060200190929190505050611691565b604051808215151515815260200191505060405180910390f35b3480156102f557600080fd5b506102fe6116f8565b6040518080602001828103825283818151815260200191508051906020019080838360005b8381101561033e578082015181840152602081019050610323565b50505050905090810190601f16801561036b5780820380516001836020036101000a031916815260200191505b509250505060405180910390f35b34801561038557600080fd5b506103b26004803603602081101561039c57600080fd5b810190808035906020019092919050505061179a565b604051808273ffffffffffffffffffffffffffffffffffffffff1673ffffffffffffffffffffffffffffffffffffffff16815260200191505060405180910390f35b34801561040057600080fd5b5061044d6004803603604081101561041757600080fd5b81019080803573ffffffffffffffffffffffffffffffffffffffff16906020019092919080359060200190929190505050611835565b005b34801561045b57600080fd5b50610464611979565b6040518082815260200191505060405180910390f35b6104a66004803603602081101561049057600080fd5b810190808035906020019092919050505061198a565b005b3480156104b457600080fd5b506104f7600480360360208110156104cb57600080fd5b81019080803573ffffffffffffffffffffffffffffffffffffffff1690602001909291905050506119f7565b005b34801561050557600080fd5b5061050e611aac565b6040518082815260200191505060405180910390f35b34801561053057600080fd5b506105736004803603602081101561054757600080fd5b81019080803573ffffffffffffffffffffffffffffffffffffffff169060200190929190505050611ab6565b604051808215151515815260200191505060405180910390f35b34801561059957600080fd5b50610606600480360360608110156105b057600080fd5b81019080803573ffffffffffffffffffffffffffffffffffffffff169060200190929190803573ffffffffffffffffffffffffffffffffffffffff16906020019092919080359060200190929190505050611ad6565b005b34801561061457600080fd5b506106416004803603602081101561062b57600080fd5b8101908080359060200190929190505050611b4c565b604051808381526020018281526020019250505060405180910390f35b34801561066a57600080fd5b506106976004803603602081101561068157600080fd5b8101908080359060200190929190505050611b9f565b604051808273ffffffffffffffffffffffffffffffffffffffff1673ffffffffffffffffffffffffffffffffffffffff16815260200191505060405180910390f35b3480156106e557600080fd5b50610712600480360360208110156106fc57600080fd5b8101908080359060200190929190505050611bdf565b6040518082815260200191505060405180910390f35b34801561073457600080fd5b506107816004803603604081101561074b57600080fd5b81019080803573ffffffffffffffffffffffffffffffffffffffff16906020019092919080359060200190929190505050611bff565b6040518082815260200191505060405180910390f35b3480156107a357600080fd5b5061087d600480360360808110156107ba57600080fd5b810190808035906020019092919080359060200190929190803515159060200190929190803590602001906401000000008111156107f757600080fd5b82018360208201111561080957600080fd5b8035906020019184600183028401116401000000008311171561082b57600080fd5b91908080601f016020809104026020016040519081016040528093929190818152602001838380828437600081840152601f19601f820116905080830192505050505050509192919290505050611c5a565b6040518082815260200191505060405180910390f35b34801561089f57600080fd5b506108cc600480360360208110156108b657600080fd5b8101908080359060200190929190505050611c73565b6040518082815260200191505060405180910390f35b6108ea611c90565b005b3480156108f857600080fd5b506109656004803603606081101561090f57600080fd5b81019080803573ffffffffffffffffffffffffffffffffffffffff169060200190929190803573ffffffffffffffffffffffffffffffffffffffff16906020019092919080359060200190929190505050611cf8565b005b34801561097357600080fd5b506109a06004803603602081101561098a57600080fd5b8101908080359060200190929190505050611d18565b604051808215151515815260200191505060405180910390f35b3480156109c657600080fd5b506109f3600480360360208110156109dd57600080fd5b8101908080359060200190929190505050611d3b565b6040518082815260200191505060405180910390f35b348015610a1557600080fd5b50610a4260048036036020811015610a2c57600080fd5b8101908080359060200190929190505050611d5e565b604051808273ffffffffffffffffffffffffffffffffffffffff1673ffffffffffffffffffffffffffffffffffffffff16815260200191505060405180910390f35b348015610a9057600080fd5b50610ad360048036036020811015610aa757600080fd5b81019080803573ffffffffffffffffffffffffffffffffffffffff169060200190929190505050611d95565b005b348015610ae157600080fd5b50610aea611e03565b6040518080602001828103825283818151815260200191508051906020019080838360005b83811015610b2a578082015181840152602081019050610b0f565b50505050905090810190601f168015610b575780820380516001836020036101000a031916815260200191505b509250505060405180910390f35b348015610b7157600080fd5b50610b7a611ea5565b6040518082815260200191505060405180910390f35b348015610b9c57600080fd5b50610bdf60048036036020811015610bb357600080fd5b81019080803573ffffffffffffffffffffffffffffffffffffffff169060200190929190505050611eaf565b6040518082815260200191505060405180910390f35b348015610c0157600080fd5b50610c3860048036036040811015610c1857600080fd5b810190808035906020019092919080359060200190929190505050611f84565b005b348015610c4657600080fd5b50610c7360048036036020811015610c5d57600080fd5b8101908080359060200190929190505050611fed565b6040518082815260200191505060405180910390f35b348015610c9557600080fd5b50610c9e612005565b6040518082815260200191505060405180910390f35b348015610cc057600080fd5b50610da4600480360360a0811015610cd757600080fd5b810190808035906020019092919080359060200190640100000000811115610cfe57600080fd5b820183602082011115610d1057600080fd5b80359060200191846001830284011164010000000083111715610d3257600080fd5b91908080601f016020809104026020016040519081016040528093929190818152602001838380828437600081840152601f19601f820116905080830192505050505050509192919290803590602001909291908035906020019092919080351515906020019092919050505061200b565b005b348015610db257600080fd5b50610dbb6120f6565b604051808273ffffffffffffffffffffffffffffffffffffffff1673ffffffffffffffffffffffffffffffffffffffff16815260200191505060405180910390f35b348015610e0957600080fd5b50610eb5600480360360c0811015610e2057600080fd5b81019080803590602001909291908035906020019092919080351515906020019092919080359060200190640100000000811115610e5d57600080fd5b820183602082011115610e6f57600080fd5b80359060200191846001830284011164010000000083111715610e9157600080fd5b9091929391929390803590602001909291908035906020019092919050505061211c565b6040518082815260200191505060405180910390f35b348015610ed757600080fd5b50610ee061233a565b6040518080602001828103825283818151815260200191508051906020019080838360005b83811015610f20578082015181840152602081019050610f05565b50505050905090810190601f168015610f4d5780820380516001836020036101000a031916815260200191505b509250505060405180910390f35b348015610f6757600080fd5b50610f9460048036036020811015610f7e57600080fd5b81019080803590602001909291905050506123dc565b604051808060200185815260200184815260200183151515158152602001828103825286818151815260200191508051906020019080838360005b83811015610fea578082015181840152602081019050610fcf565b50505050905090810190601f1680156110175780820380516001836020036101000a031916815260200191505b509550505050505060405180910390f35b34801561103457600080fd5b5061106b6004803603604081101561104b57600080fd5b8101908080359060200190929190803590602001909291905050506124b1565b6040518082815260200191505060405180910390f35b34801561108d57600080fd5b506110dc600480360360408110156110a457600080fd5b81019080803573ffffffffffffffffffffffffffffffffffffffff16906020019092919080351515906020019092919050505061261e565b005b3480156110ea57600080fd5b506111176004803603602081101561110157600080fd5b81019080803590602001909291905050506127d6565b604051808060200185151515158152602001848152602001838152602001828103825286818151815260200191508051906020019080838360005b8381101561116d578082015181840152602081019050611152565b50505050905090810190601f16801561119a5780820380516001836020036101000a031916815260200191505b509550505050505060405180910390f35b3480156111b757600080fd5b506112bb600480360360808110156111ce57600080fd5b81019080803573ffffffffffffffffffffffffffffffffffffffff169060200190929190803573ffffffffffffffffffffffffffffffffffffffff169060200190929190803590602001909291908035906020019064010000000081111561123557600080fd5b82018360208201111561124757600080fd5b8035906020019184600183028401116401000000008311171561126957600080fd5b91908080601f016020809104026020016040519081016040528093929190818152602001838380828437600081840152601f19601f8201169050808301925050505050505091929192905050506128fd565b005b3480156112c957600080fd5b506112f6600480360360208110156112e057600080fd5b8101908080359060200190929190505050612975565b604051808215151515815260200191505060405180910390f35b34801561131c57600080fd5b50611416600480360360a081101561133357600080fd5b8101908080359060200190929190803590602001909291908035151590602001909291908035906020019064010000000081111561137057600080fd5b82018360208201111561138257600080fd5b803590602001918460018302840111640100000000831117156113a457600080fd5b91908080601f016020809104026020016040519081016040528093929190818152602001838380828437600081840152601f19601f820116905080830192505050505050509192919290803573ffffffffffffffffffffffffffffffffffffffff169060200190929190505050612995565b6040518082815260200191505060405180910390f35b34801561143857600080fd5b5061147b6004803603602081101561144f57600080fd5b81019080803573ffffffffffffffffffffffffffffffffffffffff169060200190929190505050612a9a565b604051808215151515815260200191505060405180910390f35b3480156114a157600080fd5b506114ce600480360360208110156114b857600080fd5b8101908080359060200190929190505050612af0565b6040518080602001828103825283818151815260200191508051906020019080838360005b8381101561150e5780820151818401526020810190506114f3565b50505050905090810190601f16801561153b5780820380516001836020036101000a031916815260200191505b509250505060405180910390f35b34801561155557600080fd5b506115b86004803603604081101561156c57600080fd5b81019080803573ffffffffffffffffffffffffffffffffffffffff169060200190929190803573ffffffffffffffffffffffffffffffffffffffff169060200190929190505050612dc1565b604051808215151515815260200191505060405180910390f35b3480156115de57600080fd5b5061160b600480360360208110156115f557600080fd5b8101908080359060200190929190505050612e55565b005b34801561161957600080fd5b506116466004803603602081101561163057600080fd5b8101908080359060200190929190505050612eeb565b604051808381526020018281526020019250505060405180910390f35b61168f6004803603602081101561167957600080fd5b8101908080359060200190929190505050612f0f565b005b6000806000837bffffffffffffffffffffffffffffffffffffffffffffffffffffffff19167bffffffffffffffffffffffffffffffffffffffffffffffffffffffff1916815260200190815260200160002060009054906101000a900460ff169050919050565b606060068054600181600116156101000203166002900480601f0160208091040260200160405190810160405280929190818152602001828054600181600116156101000203166002900480156117905780601f1061176557610100808354040283529160200191611790565b820191906000526020600020905b81548152906001019060200180831161177357829003601f168201915b5050505050905090565b60006117a582613021565b6117fa576040517f08c379a000000000000000000000000000000000000000000000000000000000815260040180806020018281038252602c815260200180614883602c913960400191505060405180910390fd5b6004600083815260200190815260200160002060009054906101000a900473ffffffffffffffffffffffffffffffffffffffff169050919050565b600061184082611d5e565b90508073ffffffffffffffffffffffffffffffffffffffff168373ffffffffffffffffffffffffffffffffffffffff1614156118c7576040517f08c379a00000000000000000000000000000000000000000000000000000000081526004018080602001828103825260218152602001806149076021913960400191505060405180910390fd5b8073ffffffffffffffffffffffffffffffffffffffff166118e661303e565b73ffffffffffffffffffffffffffffffffffffffff16148061191557506119148161190f61303e565b612dc1565b5b61196a576040517f08c379a00000000000000000000000000000000000000000000000000000000081526004018080602001828103825260388152602001806147d66038913960400191505060405180910390fd5b6119748383613046565b505050565b600061198560026130ff565b905090565b6000600f60008381526020019081526020016000205414156119ab57600080fd5b600f60008281526020019081526020016000205434146119ca57600080fd5b6119dd6119d682611d5e565b3383613114565b600f60008281526020019081526020016000206000905550565b600a60009054906101000a900473ffffffffffffffffffffffffffffffffffffffff1673ffffffffffffffffffffffffffffffffffffffff163373ffffffffffffffffffffffffffffffffffffffff1614611a5157600080fd5b6001600e60008373ffffffffffffffffffffffffffffffffffffffff1673ffffffffffffffffffffffffffffffffffffffff16815260200190815260200160002060006101000a81548160ff02191690831515021790555050565b6000600b54905090565b600e6020528060005260406000206000915054906101000a900460ff1681565b611ae7611ae161303e565b82613357565b611b3c576040517f08c379a00000000000000000000000000000000000000000000000000000000081526004018080602001828103825260318152602001806149286031913960400191505060405180910390fd5b611b47838383613114565b505050565b600080611b576145da565b60106000858152602001908152602001600020604051806040016040529081600082015481526020016001820154815250509050806000015181602001519250925050915091565b60006011600083815260200190815260200160002060010160009054906101000a900473ffffffffffffffffffffffffffffffffffffffff169050919050565b600060116000838152602001908152602001600020600001549050919050565b6000611c5282600160008673ffffffffffffffffffffffffffffffffffffffff1673ffffffffffffffffffffffffffffffffffffffff16815260200190815260200160002061344b90919063ffffffff16565b905092915050565b6000611c698585858533612995565b9050949350505050565b6000600f6000838152602001908152602001600020549050919050565b600b543414611c9e57600080fd5b6001600e60003373ffffffffffffffffffffffffffffffffffffffff1673ffffffffffffffffffffffffffffffffffffffff16815260200190815260200160002060006101000a81548160ff021916908315150217905550565b611d13838383604051806020016040528060008152506128fd565b505050565b600080601160008481526020019081526020016000206000015414159050919050565b600080611d5283600261346590919063ffffffff16565b50905080915050919050565b6000611d8e826040518060600160405280602981526020016148386029913960026134949092919063ffffffff16565b9050919050565b600a60009054906101000a900473ffffffffffffffffffffffffffffffffffffffff1673ffffffffffffffffffffffffffffffffffffffff163373ffffffffffffffffffffffffffffffffffffffff1614611def57600080fd5b611e0081611dfb6134b3565b6134cf565b50565b606060098054600181600116156101000203166002900480601f016020809104026020016040519081016040528092919081815260200182805460018160011615610100020316600290048015611e9b5780601f10611e7057610100808354040283529160200191611e9b565b820191906000526020600020905b815481529060010190602001808311611e7e57829003601f168201915b5050505050905090565b6000600c54905090565b60008073ffffffffffffffffffffffffffffffffffffffff168273ffffffffffffffffffffffffffffffffffffffff161415611f36576040517f08c379a000000000000000000000000000000000000000000000000000000000815260040180806020018281038252602a81526020018061480e602a913960400191505060405180910390fd5b611f7d600160008473ffffffffffffffffffffffffffffffffffffffff1673ffffffffffffffffffffffffffffffffffffffff1681526020019081526020016000206136c3565b9050919050565b3373ffffffffffffffffffffffffffffffffffffffff16611fa483611d5e565b73ffffffffffffffffffffffffffffffffffffffff1614611fc457600080fd5b60008111611fd157600080fd5b80600f6000848152602001908152602001600020819055505050565b600f6020528060005260406000206000915090505481565b600b5481565b600a60009054906101000a900473ffffffffffffffffffffffffffffffffffffffff1673ffffffffffffffffffffffffffffffffffffffff163373ffffffffffffffffffffffffffffffffffffffff161461206557600080fd5b6040518060800160405280858152602001848152602001838152602001821515815250600d600087815260200190815260200160002060008201518160000190805190602001906120b79291906145f4565b50602082015181600101556040820151816002015560608201518160030160006101000a81548160ff0219169083151502179055509050505050505050565b600a60009054906101000a900473ffffffffffffffffffffffffffffffffffffffff1681565b600081831415612177576040517f08c379a00000000000000000000000000000000000000000000000000000000081526004018080602001828103825260248152602001806149596024913960400191505060405180910390fd5b612180836136d8565b80156121915750612190826136d8565b5b6121e6576040517f08c379a000000000000000000000000000000000000000000000000000000000815260040180806020018281038252602981526020018061497d6029913960400191505060405180910390fd5b600061223889898989898080601f016020809104026020016040519081016040528093929190818152602001838380828437600081840152601f19601f82011690508083019250505050505050611c5a565b9050604051806040016040528085815260200184815250601060008381526020019081526020016000206000820151816000015560208201518160010155905050601160008581526020019081526020016000206000808201600090556001820160006101000a81549073ffffffffffffffffffffffffffffffffffffffff02191690556001820160146101000a81549060ff02191690555050601160008481526020019081526020016000206000808201600090556001820160006101000a81549073ffffffffffffffffffffffffffffffffffffffff02191690556001820160146101000a81549060ff0219169055505080915050979650505050505050565b606060078054600181600116156101000203166002900480601f0160208091040260200160405190810160405280929190818152602001828054600181600116156101000203166002900480156123d25780601f106123a7576101008083540402835291602001916123d2565b820191906000526020600020905b8154815290600101906020018083116123b557829003601f168201915b5050505050905090565b600d602052806000526040600020600091509050806000018054600181600116156101000203166002900480601f0160208091040260200160405190810160405280929190818152602001828054600181600116156101000203166002900480156124885780601f1061245d57610100808354040283529160200191612488565b820191906000526020600020905b81548152906001019060200180831161246b57829003601f168201915b5050505050908060010154908060020154908060030160009054906101000a900460ff16905084565b60006124bc83611d5e565b73ffffffffffffffffffffffffffffffffffffffff163373ffffffffffffffffffffffffffffffffffffffff161461255c576040517f08c379a00000000000000000000000000000000000000000000000000000000081526004018080602001828103825260158152602001807f596f7520617265206e6f7420746865206f776e6572000000000000000000000081525060200191505060405180910390fd5b6040518060600160405280838152602001600073ffffffffffffffffffffffffffffffffffffffff16815260200160001515815250601160008581526020019081526020016000206000820151816000015560208201518160010160006101000a81548173ffffffffffffffffffffffffffffffffffffffff021916908373ffffffffffffffffffffffffffffffffffffffff16021790555060408201518160010160146101000a81548160ff02191690831515021790555090505092915050565b61262661303e565b73ffffffffffffffffffffffffffffffffffffffff168273ffffffffffffffffffffffffffffffffffffffff1614156126c7576040517f08c379a00000000000000000000000000000000000000000000000000000000081526004018080602001828103825260198152602001807f4552433732313a20617070726f766520746f2063616c6c65720000000000000081525060200191505060405180910390fd5b80600560006126d461303e565b73ffffffffffffffffffffffffffffffffffffffff1673ffffffffffffffffffffffffffffffffffffffff16815260200190815260200160002060008473ffffffffffffffffffffffffffffffffffffffff1673ffffffffffffffffffffffffffffffffffffffff16815260200190815260200160002060006101000a81548160ff0219169083151502179055508173ffffffffffffffffffffffffffffffffffffffff1661278161303e565b73ffffffffffffffffffffffffffffffffffffffff167f17307eab39ab6107e8899845ad3d59bd9653f200f220920489ca2b5937696c3183604051808215151515815260200191505060405180910390a35050565b606060008060006127e5614674565b600d6000878152602001908152602001600020604051806080016040529081600082018054600181600116156101000203166002900480601f01602080910402602001604051908101604052809291908181526020018280546001816001161561010002031660029004801561289c5780601f106128715761010080835404028352916020019161289c565b820191906000526020600020905b81548152906001019060200180831161287f57829003601f168201915b5050505050815260200160018201548152602001600282015481526020016003820160009054906101000a900460ff161515151581525050905080600001518160600151826020015183604001518393509450945094509450509193509193565b61290e61290861303e565b83613357565b612963576040517f08c379a00000000000000000000000000000000000000000000000000000000081526004018080602001828103825260318152602001806149286031913960400191505060405180910390fd5b61296f848484846137b0565b50505050565b600080600f60008481526020019081526020016000205414159050919050565b6000600e60003373ffffffffffffffffffffffffffffffffffffffff1673ffffffffffffffffffffffffffffffffffffffff16815260200190815260200160002060009054906101000a900460ff166129ed57600080fd5b60006129f76134b3565b9050612a0383826134cf565b6040518060800160405280858152602001878152602001888152602001861515815250600d60008381526020019081526020016000206000820151816000019080519060200190612a559291906145f4565b50602082015181600101556040820151816002015560608201518160030160006101000a81548160ff0219169083151502179055509050508091505095945050505050565b6000600e60008373ffffffffffffffffffffffffffffffffffffffff1673ffffffffffffffffffffffffffffffffffffffff16815260200190815260200160002060009054906101000a900460ff169050919050565b6060612afb82613021565b612b50576040517f08c379a000000000000000000000000000000000000000000000000000000000815260040180806020018281038252602f8152602001806148d8602f913960400191505060405180910390fd5b6060600860008481526020019081526020016000208054600181600116156101000203166002900480601f016020809104026020016040519081016040528092919081815260200182805460018160011615610100020316600290048015612bf95780601f10612bce57610100808354040283529160200191612bf9565b820191906000526020600020905b815481529060010190602001808311612bdc57829003601f168201915b505050505090506060612c0a611e03565b9050600081511415612c20578192505050612dbc565b600082511115612cf15780826040516020018083805190602001908083835b60208310612c625780518252602082019150602081019050602083039250612c3f565b6001836020036101000a03801982511681845116808217855250505050505090500182805190602001908083835b60208310612cb35780518252602082019150602081019050602083039250612c90565b6001836020036101000a0380198251168184511680821785525050505050509050019250505060405160208183030381529060405292505050612dbc565b80612cfb85613822565b6040516020018083805190602001908083835b60208310612d315780518252602082019150602081019050602083039250612d0e565b6001836020036101000a03801982511681845116808217855250505050505090500182805190602001908083835b60208310612d825780518252602082019150602081019050602083039250612d5f565b6001836020036101000a03801982511681845116808217855250505050505090500192505050604051602081830303815290604052925050505b919050565b6000600560008473ffffffffffffffffffffffffffffffffffffffff1673ffffffffffffffffffffffffffffffffffffffff16815260200190815260200160002060008373ffffffffffffffffffffffffffffffffffffffff1673ffffffffffffffffffffffffffffffffffffffff16815260200190815260200160002060009054906101000a900460ff16905092915050565b3373ffffffffffffffffffffffffffffffffffffffff16612e7582611d5e565b73ffffffffffffffffffffffffffffffffffffffff1614612e9557600080fd5b612e9e81613952565b600d600082815260200190815260200160002060008082016000612ec2919061469e565b600182016000905560028201600090556003820160006101000a81549060ff0219169055505050565b60106020528060005260406000206000915090508060000154908060010154905082565b60116000828152602001908152602001600020600001543414612f9a576040517f08c379a000000000000000000000000000000000000000000000000000000000815260040180806020018281038252600d8152602001807f57726f6e672070726963696e670000000000000000000000000000000000000081525060200191505060405180910390fd5b60016011600083815260200190815260200160002060010160146101000a81548160ff021916908315150217905550336011600083815260200190815260200160002060010160006101000a81548173ffffffffffffffffffffffffffffffffffffffff021916908373ffffffffffffffffffffffffffffffffffffffff16021790555050565b6000613037826002613a8c90919063ffffffff16565b9050919050565b600033905090565b816004600083815260200190815260200160002060006101000a81548173ffffffffffffffffffffffffffffffffffffffff021916908373ffffffffffffffffffffffffffffffffffffffff160217905550808273ffffffffffffffffffffffffffffffffffffffff166130b983611d5e565b73ffffffffffffffffffffffffffffffffffffffff167f8c5be1e5ebec7d5bd14f71427d1e84f3dd0314c0f7b2291e5b200ac8c7c3b92560405160405180910390a45050565b600061310d82600001613aa6565b9050919050565b8273ffffffffffffffffffffffffffffffffffffffff1661313482611d5e565b73ffffffffffffffffffffffffffffffffffffffff16146131a0576040517f08c379a00000000000000000000000000000000000000000000000000000000081526004018080602001828103825260298152602001806148af6029913960400191505060405180910390fd5b600073ffffffffffffffffffffffffffffffffffffffff168273ffffffffffffffffffffffffffffffffffffffff161415613226576040517f08c379a00000000000000000000000000000000000000000000000000000000081526004018080602001828103825260248152602001806147606024913960400191505060405180910390fd5b613231838383613ab7565b61323c600082613046565b61328d81600160008673ffffffffffffffffffffffffffffffffffffffff1673ffffffffffffffffffffffffffffffffffffffff168152602001908152602001600020613abc90919063ffffffff16565b506132df81600160008573ffffffffffffffffffffffffffffffffffffffff1673ffffffffffffffffffffffffffffffffffffffff168152602001908152602001600020613ad690919063ffffffff16565b506132f681836002613af09092919063ffffffff16565b50808273ffffffffffffffffffffffffffffffffffffffff168473ffffffffffffffffffffffffffffffffffffffff167fddf252ad1be2c89b69c2b068fc378daa952ba7f163c4a11628f55a4df523b3ef60405160405180910390a4505050565b600061336282613021565b6133b7576040517f08c379a000000000000000000000000000000000000000000000000000000000815260040180806020018281038252602c8152602001806147aa602c913960400191505060405180910390fd5b60006133c283611d5e565b90508073ffffffffffffffffffffffffffffffffffffffff168473ffffffffffffffffffffffffffffffffffffffff16148061343157508373ffffffffffffffffffffffffffffffffffffffff166134198461179a565b73ffffffffffffffffffffffffffffffffffffffff16145b8061344257506134418185612dc1565b5b91505092915050565b600061345a8360000183613b25565b60001c905092915050565b6000806000806134788660000186613ba8565b915091508160001c8160001c8090509350935050509250929050565b60006134a7846000018460001b84613c41565b60001c90509392505050565b6000600c60008154809291906001019190505550600c54905090565b600073ffffffffffffffffffffffffffffffffffffffff168273ffffffffffffffffffffffffffffffffffffffff161415613572576040517f08c379a00000000000000000000000000000000000000000000000000000000081526004018080602001828103825260208152602001807f4552433732313a206d696e7420746f20746865207a65726f206164647265737381525060200191505060405180910390fd5b61357b81613021565b156135ee576040517f08c379a000000000000000000000000000000000000000000000000000000000815260040180806020018281038252601c8152602001807f4552433732313a20746f6b656e20616c7265616479206d696e7465640000000081525060200191505060405180910390fd5b6135fa60008383613ab7565b61364b81600160008573ffffffffffffffffffffffffffffffffffffffff1673ffffffffffffffffffffffffffffffffffffffff168152602001908152602001600020613ad690919063ffffffff16565b5061366281836002613af09092919063ffffffff16565b50808273ffffffffffffffffffffffffffffffffffffffff16600073ffffffffffffffffffffffffffffffffffffffff167fddf252ad1be2c89b69c2b068fc378daa952ba7f163c4a11628f55a4df523b3ef60405160405180910390a45050565b60006136d182600001613d37565b9050919050565b60003373ffffffffffffffffffffffffffffffffffffffff166136fa83611d5e565b73ffffffffffffffffffffffffffffffffffffffff1614806137a957503373ffffffffffffffffffffffffffffffffffffffff166011600084815260200190815260200160002060010160009054906101000a900473ffffffffffffffffffffffffffffffffffffffff1673ffffffffffffffffffffffffffffffffffffffff161480156137a857506011600083815260200190815260200160002060010160149054906101000a900460ff165b5b9050919050565b6137bb848484613114565b6137c784848484613d48565b61381c576040517f08c379a000000000000000000000000000000000000000000000000000000000815260040180806020018281038252603281526020018061472e6032913960400191505060405180910390fd5b50505050565b6060600082141561386a576040518060400160405280600181526020017f3000000000000000000000000000000000000000000000000000000000000000815250905061394d565b600082905060005b60008214613894578080600101915050600a828161388c57fe5b049150613872565b6060816040519080825280601f01601f1916602001820160405280156138c95781602001600182028038833980820191505090505b50905060006001830390508593505b6000841461394557600a84816138ea57fe5b0660300160f81b8282806001900393508151811061390457fe5b60200101907effffffffffffffffffffffffffffffffffffffffffffffffffffffffffffff1916908160001a905350600a848161393d57fe5b0493506138d8565b819450505050505b919050565b600061395d82611d5e565b905061396b81600084613ab7565b613976600083613046565b600060086000848152602001908152602001600020805460018160011615610100020316600290049050146139c5576008600083815260200190815260200160002060006139c4919061469e565b5b613a1682600160008473ffffffffffffffffffffffffffffffffffffffff1673ffffffffffffffffffffffffffffffffffffffff168152602001908152602001600020613abc90919063ffffffff16565b50613a2b826002613f8d90919063ffffffff16565b5081600073ffffffffffffffffffffffffffffffffffffffff168273ffffffffffffffffffffffffffffffffffffffff167fddf252ad1be2c89b69c2b068fc378daa952ba7f163c4a11628f55a4df523b3ef60405160405180910390a45050565b6000613a9e836000018360001b613fa7565b905092915050565b600081600001805490509050919050565b505050565b6000613ace836000018360001b613fca565b905092915050565b6000613ae8836000018360001b6140b2565b905092915050565b6000613b1c846000018460001b8473ffffffffffffffffffffffffffffffffffffffff1660001b614122565b90509392505050565b600081836000018054905011613b86576040517f08c379a000000000000000000000000000000000000000000000000000000000815260040180806020018281038252602281526020018061470c6022913960400191505060405180910390fd5b826000018281548110613b9557fe5b9060005260206000200154905092915050565b60008082846000018054905011613c0a576040517f08c379a00000000000000000000000000000000000000000000000000000000081526004018080602001828103825260228152602001806148616022913960400191505060405180910390fd5b6000846000018481548110613c1b57fe5b906000526020600020906002020190508060000154816001015492509250509250929050565b60008084600101600085815260200190815260200160002054905060008114158390613d08576040517f08c379a00000000000000000000000000000000000000000000000000000000081526004018080602001828103825283818151815260200191508051906020019080838360005b83811015613ccd578082015181840152602081019050613cb2565b50505050905090810190601f168015613cfa5780820380516001836020036101000a031916815260200191505b509250505060405180910390fd5b50846000016001820381548110613d1b57fe5b9060005260206000209060020201600101549150509392505050565b600081600001805490509050919050565b6000613d698473ffffffffffffffffffffffffffffffffffffffff166141fe565b613d765760019050613f85565b6060613f0c63150b7a0260e01b613d8b61303e565b888787604051602401808573ffffffffffffffffffffffffffffffffffffffff1673ffffffffffffffffffffffffffffffffffffffff1681526020018473ffffffffffffffffffffffffffffffffffffffff1673ffffffffffffffffffffffffffffffffffffffff16815260200183815260200180602001828103825283818151815260200191508051906020019080838360005b83811015613e3b578082015181840152602081019050613e20565b50505050905090810190601f168015613e685780820380516001836020036101000a031916815260200191505b5095505050505050604051602081830303815290604052907bffffffffffffffffffffffffffffffffffffffffffffffffffffffff19166020820180517bffffffffffffffffffffffffffffffffffffffffffffffffffffffff838183161783525050505060405180606001604052806032815260200161472e603291398773ffffffffffffffffffffffffffffffffffffffff166142119092919063ffffffff16565b90506000818060200190516020811015613f2557600080fd5b8101908080519060200190929190505050905063150b7a0260e01b7bffffffffffffffffffffffffffffffffffffffffffffffffffffffff1916817bffffffffffffffffffffffffffffffffffffffffffffffffffffffff191614925050505b949350505050565b6000613f9f836000018360001b614229565b905092915050565b600080836001016000848152602001908152602001600020541415905092915050565b600080836001016000848152602001908152602001600020549050600081146140a6576000600182039050600060018660000180549050039050600086600001828154811061401557fe5b906000526020600020015490508087600001848154811061403257fe5b906000526020600020018190555060018301876001016000838152602001908152602001600020819055508660000180548061406a57fe5b600190038181906000526020600020016000905590558660010160008781526020019081526020016000206000905560019450505050506140ac565b60009150505b92915050565b60006140be8383614342565b61411757826000018290806001815401808255809150506001900390600052602060002001600090919091909150558260000180549050836001016000848152602001908152602001600020819055506001905061411c565b600090505b92915050565b60008084600101600085815260200190815260200160002054905060008114156141c9578460000160405180604001604052808681526020018581525090806001815401808255809150506001900390600052602060002090600202016000909190919091506000820151816000015560208201518160010155505084600001805490508560010160008681526020019081526020016000208190555060019150506141f7565b828560000160018303815481106141dc57fe5b90600052602060002090600202016001018190555060009150505b9392505050565b600080823b905060008111915050919050565b60606142208484600085614365565b90509392505050565b60008083600101600084815260200190815260200160002054905060008114614336576000600182039050600060018660000180549050039050600086600001828154811061427457fe5b906000526020600020906002020190508087600001848154811061429457fe5b90600052602060002090600202016000820154816000015560018201548160010155905050600183018760010160008360000154815260200190815260200160002081905550866000018054806142e757fe5b600190038181906000526020600020906002020160008082016000905560018201600090555050905586600101600087815260200190815260200160002060009055600194505050505061433c565b60009150505b92915050565b600080836001016000848152602001908152602001600020541415905092915050565b6060824710156143c0576040517f08c379a00000000000000000000000000000000000000000000000000000000081526004018080602001828103825260268152602001806147846026913960400191505060405180910390fd5b6143c9856141fe565b61443b576040517f08c379a000000000000000000000000000000000000000000000000000000000815260040180806020018281038252601d8152602001807f416464726573733a2063616c6c20746f206e6f6e2d636f6e747261637400000081525060200191505060405180910390fd5b600060608673ffffffffffffffffffffffffffffffffffffffff1685876040518082805190602001908083835b6020831061448b5780518252602082019150602081019050602083039250614468565b6001836020036101000a03801982511681845116808217855250505050505090500191505060006040518083038185875af1925050503d80600081146144ed576040519150601f19603f3d011682016040523d82523d6000602084013e6144f2565b606091505b509150915061450282828661450e565b92505050949350505050565b6060831561451e578290506145d3565b6000835111156145315782518084602001fd5b816040517f08c379a00000000000000000000000000000000000000000000000000000000081526004018080602001828103825283818151815260200191508051906020019080838360005b8381101561459857808201518184015260208101905061457d565b50505050905090810190601f1680156145c55780820380516001836020036101000a031916815260200191505b509250505060405180910390fd5b9392505050565b604051806040016040528060008152602001600081525090565b828054600181600116156101000203166002900490600052602060002090601f016020900481019282601f1061463557805160ff1916838001178555614663565b82800160010185558215614663579182015b82811115614662578251825591602001919060010190614647565b5b50905061467091906146e6565b5090565b60405180608001604052806060815260200160008152602001600081526020016000151581525090565b50805460018160011615610100020316600290046000825580601f106146c457506146e3565b601f0160209004906000526020600020908101906146e291906146e6565b5b50565b61470891905b808211156147045760008160009055506001016146ec565b5090565b9056fe456e756d657261626c655365743a20696e646578206f7574206f6620626f756e64734552433732313a207472616e7366657220746f206e6f6e20455243373231526563656976657220696d706c656d656e7465724552433732313a207472616e7366657220746f20746865207a65726f2061646472657373416464726573733a20696e73756666696369656e742062616c616e636520666f722063616c6c4552433732313a206f70657261746f7220717565727920666f72206e6f6e6578697374656e7420746f6b656e4552433732313a20617070726f76652063616c6c6572206973206e6f74206f776e6572206e6f7220617070726f76656420666f7220616c6c4552433732313a2062616c616e636520717565727920666f7220746865207a65726f20616464726573734552433732313a206f776e657220717565727920666f72206e6f6e6578697374656e7420746f6b656e456e756d657261626c654d61703a20696e646578206f7574206f6620626f756e64734552433732313a20617070726f76656420717565727920666f72206e6f6e6578697374656e7420746f6b656e4552433732313a207472616e73666572206f6620746f6b656e2074686174206973206e6f74206f776e4552433732314d657461646174613a2055524920717565727920666f72206e6f6e6578697374656e7420746f6b656e4552433732313a20617070726f76616c20746f2063757272656e74206f776e65724552433732313a207472616e736665722063616c6c6572206973206e6f74206f776e6572206e6f7220617070726f76656443616e277420726570726f647563652077697468206f6e6c79206f6e6520616e696d616c43616e6e6f742075736520746865736520616e696d616c7320666f7220726570726f64756374696f6ea26469706673582212203cd626988ca02b6dde17c0e4aa04625234fc0966c2d2ea02a5eb2e99a4b3e45d64736f6c63430006020033",
  "source": "pragma solidity ^0.6.0;\r\nimport \"@openzeppelin/contracts/token/ERC721/ERC721.sol\";\r\n\r\ncontract IExerciceSolution is ERC721\r\n{\r\n\r\n    address public owner;\r\n    uint256 public priceBreeder;\r\n    uint256 internal currentId;\r\n\r\n    struct Animal {\r\n        string _name;\r\n        uint256 _legs;\r\n        uint256 _sex;\r\n        bool _wings;\r\n    }\r\n\r\n    struct Parents {\r\n        uint256 _parent1;\r\n        uint256 _parent2;\r\n    }\r\n\r\n    struct ReproductionInformations {\r\n        uint256 price;\r\n        address authorizedBreeder;\r\n        bool hasPayed;\r\n    }\r\n\r\n    mapping(uint256 => Animal) public animals;\r\n    mapping(address => bool) public breeders;\r\n    mapping(uint256 => uint) public animalsOnSale;\r\n    mapping(uint256 => Parents) public childToParents;\r\n    mapping(uint256 => ReproductionInformations) animalForReproduction;\r\n\r\n    constructor (string memory name_, string memory symbol_, uint256 _price) public ERC721(name_, symbol_) {\r\n        owner = msg.sender;\r\n        breeders[msg.sender] = true;\r\n        priceBreeder = _price;\r\n        currentId = 0;\r\n    }\r\n\r\n    function getCurrentId() external view returns (uint256) {\r\n        return currentId;\r\n    }\r\n\r\n    function getNextId() private returns (uint256) {\r\n        currentId++;\r\n        return currentId;\r\n    }\r\n\r\n    function mint(address _to) public {\r\n        require(msg.sender == owner);\r\n        ERC721._mint(_to, getNextId());\r\n    }\r\n\r\n    function setAttribute(uint256 id, string memory _name, uint256 _legs, uint256 _sex, bool _wings) public {\r\n        require(msg.sender == owner);\r\n        animals[id] = Animal(_name, _legs, _sex, _wings);\r\n    }\r\n\r\n\tfunction isBreeder(address account) external view returns (bool) {\r\n        return breeders[account];\r\n    }\r\n\r\n\tfunction registrationPrice() external view returns (uint256) {\r\n        return priceBreeder;\r\n    }\r\n\r\n\tfunction registerMeAsBreeder() external payable {\r\n        require(msg.value == priceBreeder);\r\n        breeders[msg.sender] = true;\r\n    }\r\n\r\n    function declareAsBreeder(address futureBreeder) external {\r\n        require(msg.sender == owner);\r\n        breeders[futureBreeder] = true;\r\n    }\r\n\r\n\tfunction getAnimalCharacteristics(uint animalNumber) external view returns (string memory _name, bool _wings, uint _legs, uint _sex) {\r\n        Animal memory _animal = animals[animalNumber];\r\n        return (_animal._name, _animal._wings, _animal._legs, _animal._sex);\r\n    }\r\n\r\n    function declareAnimal(uint sex, uint legs, bool wings, string memory name) public returns (uint256) {\r\n        return declareAnimalToSomeone(sex, legs, wings, name, msg.sender);\r\n    }\r\n\r\n    function declareAnimalToSomeone(uint sex, uint legs, bool wings, string memory name, address _to) public returns (uint256) {\r\n        require(breeders[msg.sender]);\r\n        uint256 id = getNextId();\r\n        ERC721._mint(_to, id);\r\n        animals[id] = Animal(name, legs, sex, wings);\r\n        return id;\r\n    }\r\n\r\n    function declareDeadAnimal(uint animalNumber) external {\r\n        require(ownerOf(animalNumber) == msg.sender);\r\n        _burn(animalNumber);\r\n        delete animals[animalNumber];\r\n    }\r\n\r\n    function isAnimalForSale(uint animalNumber) external view returns (bool) {\r\n        return animalsOnSale[animalNumber] != 0;\r\n    }\r\n\r\n\tfunction animalPrice(uint animalNumber) external view returns (uint256) {\r\n        return animalsOnSale[animalNumber];\r\n    }\r\n\r\n\tfunction buyAnimal(uint animalNumber) external payable {\r\n        require(animalsOnSale[animalNumber] != 0);\r\n        require(msg.value == animalsOnSale[animalNumber]);\r\n        _transfer(ownerOf(animalNumber), msg.sender, animalNumber);\r\n        delete animalsOnSale[animalNumber];\r\n    }\r\n\r\n\tfunction offerForSale(uint animalNumber, uint price) external {\r\n        require(ownerOf(animalNumber) == msg.sender);\r\n        require(price > 0);\r\n        animalsOnSale[animalNumber] = price;\r\n    }\r\n\r\n    function canUseForReproduction(uint256 parent) private view returns (bool) {\r\n        return ownerOf(parent) == msg.sender || (animalForReproduction[parent].authorizedBreeder == msg.sender && animalForReproduction[parent].hasPayed);\r\n    }\r\n\r\n    function declareAnimalWithParents(uint sex, uint legs, bool wings, string calldata name, uint parent1, uint parent2) external returns (uint256) {\r\n        require(parent1 != parent2, \"Can't reproduce with only one animal\");\r\n        require(canUseForReproduction(parent1) && canUseForReproduction(parent2), \"Cannot use these animals for reproduction\");\r\n        uint256 id = declareAnimal(sex, legs, wings, name);\r\n        childToParents[id] = Parents(parent1, parent2);\r\n        delete animalForReproduction[parent1];\r\n        delete animalForReproduction[parent2];\r\n        return id;\r\n    }\r\n\r\n\tfunction getParents(uint animalNumber) external view returns (uint256, uint256) {\r\n        Parents memory parents = childToParents[animalNumber];\r\n        return (parents._parent1, parents._parent2);\r\n    }\r\n\r\n    function canReproduce(uint animalNumber) public view returns (bool) {\r\n        return animalForReproduction[animalNumber].price != 0;\r\n    }\r\n\r\n\tfunction reproductionPrice(uint animalNumber) external view returns (uint256) {\r\n        return animalForReproduction[animalNumber].price;\r\n    }\r\n\r\n\tfunction offerForReproduction(uint animalNumber, uint priceOfReproduction) external returns (uint256) {\r\n        require(msg.sender == ownerOf(animalNumber), \"You are not the owner\");\r\n        animalForReproduction[animalNumber] = ReproductionInformations(priceOfReproduction, address(0), false);\r\n    }\r\n\r\n\tfunction authorizedBreederToReproduce(uint animalNumber) external view returns (address) {\r\n        return animalForReproduction[animalNumber].authorizedBreeder;\r\n    }\r\n\r\n\tfunction payForReproduction(uint animalNumber) external payable {\r\n        require(msg.value == animalForReproduction[animalNumber].price, \"Wrong pricing\");\r\n        animalForReproduction[animalNumber].hasPayed = true;\r\n        animalForReproduction[animalNumber].authorizedBreeder = msg.sender;\r\n    }\r\n}",
  "sourcePath": "C:\\Users\\lenovo\\Desktop\\ESILV\\Blockchain Programming\\td\\erc721-101\\contracts\\IExerciceSolution.sol",
  "compiler": {
    "name": "solc",
    "version": "0.6.2+commit.bacdbe57.Emscripten.clang"
  },
  "schemaVersion": "3.4.3",
  "updatedAt": "2021-12-14T12:24:05.826Z",
  "devdoc": {
    "methods": {
      "approve(address,uint256)": {
        "details": "See {IERC721-approve}."
      },
      "balanceOf(address)": {
        "details": "See {IERC721-balanceOf}."
      },
      "baseURI()": {
        "details": "Returns the base URI set via {_setBaseURI}. This will be automatically added as a prefix in {tokenURI} to each token's URI, or to the token ID if no specific URI is set for that token ID."
      },
      "getApproved(uint256)": {
        "details": "See {IERC721-getApproved}."
      },
      "isApprovedForAll(address,address)": {
        "details": "See {IERC721-isApprovedForAll}."
      },
      "name()": {
        "details": "See {IERC721Metadata-name}."
      },
      "ownerOf(uint256)": {
        "details": "See {IERC721-ownerOf}."
      },
      "safeTransferFrom(address,address,uint256)": {
        "details": "See {IERC721-safeTransferFrom}."
      },
      "safeTransferFrom(address,address,uint256,bytes)": {
        "details": "See {IERC721-safeTransferFrom}."
      },
      "setApprovalForAll(address,bool)": {
        "details": "See {IERC721-setApprovalForAll}."
      },
      "supportsInterface(bytes4)": {
        "details": "See {IERC165-supportsInterface}.     * Time complexity O(1), guaranteed to always use less than 30 000 gas."
      },
      "symbol()": {
        "details": "See {IERC721Metadata-symbol}."
      },
      "tokenByIndex(uint256)": {
        "details": "See {IERC721Enumerable-tokenByIndex}."
      },
      "tokenOfOwnerByIndex(address,uint256)": {
        "details": "See {IERC721Enumerable-tokenOfOwnerByIndex}."
      },
      "tokenURI(uint256)": {
        "details": "See {IERC721Metadata-tokenURI}."
      },
      "totalSupply()": {
        "details": "See {IERC721Enumerable-totalSupply}."
      },
      "transferFrom(address,address,uint256)": {
        "details": "See {IERC721-transferFrom}."
      }
    }
  },
  "userdoc": {
    "methods": {}
  }
}